{
  "_format": "hh-sol-artifact-1",
  "contractName": "BoosterSale2",
  "sourceName": "contracts/booster/BoosterSale2.sol",
  "abi": [
    {
      "inputs": [
        {
          "internalType": "address",
          "name": "_boosterOwner",
          "type": "address"
        },
        {
          "internalType": "contract IERC20",
          "name": "_busd",
          "type": "address"
        },
        {
          "internalType": "contract IERC20",
          "name": "_legendaryBooster",
          "type": "address"
        },
        {
          "internalType": "contract IERC20",
          "name": "_epicBooster",
          "type": "address"
        },
        {
          "internalType": "uint256",
          "name": "legendaryBoosterPrice",
          "type": "uint256"
        },
        {
          "internalType": "uint256",
          "name": "epicBoosterPrice",
          "type": "uint256"
        }
      ],
      "stateMutability": "nonpayable",
      "type": "constructor"
    },
    {
      "anonymous": false,
      "inputs": [
        {
          "indexed": true,
          "internalType": "address",
          "name": "previousOwner",
          "type": "address"
        },
        {
          "indexed": true,
          "internalType": "address",
          "name": "newOwner",
          "type": "address"
        }
      ],
      "name": "OwnershipTransferred",
      "type": "event"
    },
    {
      "anonymous": false,
      "inputs": [
        {
          "indexed": false,
          "internalType": "address",
          "name": "account",
          "type": "address"
        }
      ],
      "name": "Paused",
      "type": "event"
    },
    {
      "anonymous": false,
      "inputs": [
        {
          "indexed": false,
          "internalType": "address",
          "name": "account",
          "type": "address"
        }
      ],
      "name": "Unpaused",
      "type": "event"
    },
    {
      "inputs": [],
      "name": "boosterOwner",
      "outputs": [
        {
          "internalType": "address",
          "name": "",
          "type": "address"
        }
      ],
      "stateMutability": "view",
      "type": "function"
    },
    {
      "inputs": [],
      "name": "busd",
      "outputs": [
        {
          "internalType": "contract IERC20",
          "name": "",
          "type": "address"
        }
      ],
      "stateMutability": "view",
      "type": "function"
    },
    {
      "inputs": [
        {
          "internalType": "contract IERC20",
          "name": "booster",
          "type": "address"
        },
        {
          "internalType": "uint256",
          "name": "_numberOfBoostersInWei",
          "type": "uint256"
        }
      ],
      "name": "buy",
      "outputs": [],
      "stateMutability": "nonpayable",
      "type": "function"
    },
    {
      "inputs": [],
      "name": "epicBooster",
      "outputs": [
        {
          "internalType": "contract IERC20",
          "name": "",
          "type": "address"
        }
      ],
      "stateMutability": "view",
      "type": "function"
    },
    {
      "inputs": [],
      "name": "legendaryBooster",
      "outputs": [
        {
          "internalType": "contract IERC20",
          "name": "",
          "type": "address"
        }
      ],
      "stateMutability": "view",
      "type": "function"
    },
    {
      "inputs": [],
      "name": "owner",
      "outputs": [
        {
          "internalType": "address",
          "name": "",
          "type": "address"
        }
      ],
      "stateMutability": "view",
      "type": "function"
    },
    {
      "inputs": [],
      "name": "pause",
      "outputs": [],
      "stateMutability": "nonpayable",
      "type": "function"
    },
    {
      "inputs": [],
      "name": "paused",
      "outputs": [
        {
          "internalType": "bool",
          "name": "",
          "type": "bool"
        }
      ],
      "stateMutability": "view",
      "type": "function"
    },
    {
      "inputs": [
        {
          "internalType": "contract IERC20",
          "name": "",
          "type": "address"
        }
      ],
      "name": "prices",
      "outputs": [
        {
          "internalType": "uint256",
          "name": "",
          "type": "uint256"
        }
      ],
      "stateMutability": "view",
      "type": "function"
    },
    {
      "inputs": [],
      "name": "renounceOwnership",
      "outputs": [],
      "stateMutability": "nonpayable",
      "type": "function"
    },
    {
      "inputs": [
        {
          "internalType": "address[]",
          "name": "_buyers",
          "type": "address[]"
        },
        {
          "internalType": "uint256[]",
          "name": "legendaryAllowances",
          "type": "uint256[]"
        },
        {
          "internalType": "uint256[]",
          "name": "epicAllowances",
          "type": "uint256[]"
        }
      ],
      "name": "setWhitelist",
      "outputs": [],
      "stateMutability": "nonpayable",
      "type": "function"
    },
    {
      "inputs": [
        {
          "internalType": "address",
          "name": "newOwner",
          "type": "address"
        }
      ],
      "name": "transferOwnership",
      "outputs": [],
      "stateMutability": "nonpayable",
      "type": "function"
    },
    {
      "inputs": [],
      "name": "unpause",
      "outputs": [],
      "stateMutability": "nonpayable",
      "type": "function"
    },
    {
      "inputs": [
        {
          "internalType": "address",
          "name": "",
          "type": "address"
        },
        {
          "internalType": "contract IERC20",
          "name": "",
          "type": "address"
        }
      ],
      "name": "whitelist",
      "outputs": [
        {
          "internalType": "uint256",
          "name": "",
          "type": "uint256"
        }
      ],
      "stateMutability": "view",
      "type": "function"
    }
  ],
  "bytecode": "0x6101006040523480156200001257600080fd5b50604051620023da380380620023da833981810160405281019062000038919062000444565b60008060006101000a81548160ff0219169083151502179055506200007262000066620001f360201b60201c565b620001fb60201b60201c565b6200008386620002c060201b60201c565b8573ffffffffffffffffffffffffffffffffffffffff1660808173ffffffffffffffffffffffffffffffffffffffff1660601b815250508473ffffffffffffffffffffffffffffffffffffffff1660a08173ffffffffffffffffffffffffffffffffffffffff1660601b815250508373ffffffffffffffffffffffffffffffffffffffff1660e08173ffffffffffffffffffffffffffffffffffffffff1660601b815250508273ffffffffffffffffffffffffffffffffffffffff1660c08173ffffffffffffffffffffffffffffffffffffffff1660601b8152505081600160008673ffffffffffffffffffffffffffffffffffffffff1673ffffffffffffffffffffffffffffffffffffffff1681526020019081526020016000208190555080600160008573ffffffffffffffffffffffffffffffffffffffff1673ffffffffffffffffffffffffffffffffffffffff1681526020019081526020016000208190555050505050505062000695565b600033905090565b60008060019054906101000a900473ffffffffffffffffffffffffffffffffffffffff16905081600060016101000a81548173ffffffffffffffffffffffffffffffffffffffff021916908373ffffffffffffffffffffffffffffffffffffffff1602179055508173ffffffffffffffffffffffffffffffffffffffff168173ffffffffffffffffffffffffffffffffffffffff167f8be0079c531659141344cd1fd0a4f28419497f9722a3daafe3b4186f6b6457e060405160405180910390a35050565b620002d0620001f360201b60201c565b73ffffffffffffffffffffffffffffffffffffffff16620002f6620003d660201b60201c565b73ffffffffffffffffffffffffffffffffffffffff16146200034f576040517f08c379a000000000000000000000000000000000000000000000000000000000815260040162000346906200054a565b60405180910390fd5b600073ffffffffffffffffffffffffffffffffffffffff168173ffffffffffffffffffffffffffffffffffffffff161415620003c2576040517f08c379a0000000000000000000000000000000000000000000000000000000008152600401620003b99062000528565b60405180910390fd5b620003d381620001fb60201b60201c565b50565b60008060019054906101000a900473ffffffffffffffffffffffffffffffffffffffff16905090565b600081519050620004108162000647565b92915050565b600081519050620004278162000661565b92915050565b6000815190506200043e816200067b565b92915050565b60008060008060008060c087890312156200045e57600080fd5b60006200046e89828a01620003ff565b96505060206200048189828a0162000416565b95505060406200049489828a0162000416565b9450506060620004a789828a0162000416565b9350506080620004ba89828a016200042d565b92505060a0620004cd89828a016200042d565b9150509295509295509295565b6000620004e96026836200056c565b9150620004f682620005cf565b604082019050919050565b6000620005106020836200056c565b91506200051d826200061e565b602082019050919050565b600060208201905081810360008301526200054381620004da565b9050919050565b60006020820190508181036000830152620005658162000501565b9050919050565b600082825260208201905092915050565b60006200058a82620005a5565b9050919050565b60006200059e826200057d565b9050919050565b600073ffffffffffffffffffffffffffffffffffffffff82169050919050565b6000819050919050565b7f4f776e61626c653a206e6577206f776e657220697320746865207a65726f206160008201527f6464726573730000000000000000000000000000000000000000000000000000602082015250565b7f4f776e61626c653a2063616c6c6572206973206e6f7420746865206f776e6572600082015250565b62000652816200057d565b81146200065e57600080fd5b50565b6200066c8162000591565b81146200067857600080fd5b50565b6200068681620005c5565b81146200069257600080fd5b50565b60805160601c60a05160601c60c05160601c60e05160601c611cdc620006fe600039600081816104170152610c580152600081816105440152610b3c0152600081816105bf0152610a8b01526000818161070701528181610a1f0152610ad50152611cdc6000f3fe608060405234801561001057600080fd5b50600436106100ea5760003560e01c80638da5cb5b1161008c578063cfed246b11610066578063cfed246b146101ed578063d24f3c5b1461021d578063f2fde38b1461023b578063f321318514610257576100ea565b80638da5cb5b14610183578063b092145e146101a1578063cce7ec13146101d1576100ea565b80635c975abb116100c85780635c975abb14610133578063715018a6146101515780637532ed2b1461015b5780638456cb5914610179576100ea565b806306c84701146100ef5780633ca5b2341461010b5780633f4ba83a14610129575b600080fd5b610109600480360381019061010491906112cd565b610275565b005b6101136105bd565b6040516101209190611664565b60405180910390f35b6101316105e1565b005b61013b610667565b6040516101489190611649565b60405180910390f35b61015961067d565b005b610163610705565b60405161017091906115f7565b60405180910390f35b610181610729565b005b61018b6107af565b60405161019891906115f7565b60405180910390f35b6101bb60048036038101906101b69190611291565b6107d8565b6040516101c891906117c1565b60405180910390f35b6101eb60048036038101906101e691906113c3565b6107fd565b005b6102076004803603810190610202919061139a565b610b22565b60405161021491906117c1565b60405180910390f35b610225610b3a565b6040516102329190611664565b60405180910390f35b61025560048036038101906102509190611268565b610b5e565b005b61025f610c56565b60405161026c9190611664565b60405180910390f35b61027d610c7a565b73ffffffffffffffffffffffffffffffffffffffff1661029b6107af565b73ffffffffffffffffffffffffffffffffffffffff16146102f1576040517f08c379a00000000000000000000000000000000000000000000000000000000081526004016102e890611741565b60405180910390fd5b6102f9610667565b15610339576040517f08c379a000000000000000000000000000000000000000000000000000000000815260040161033090611721565b60405180910390fd5b60005b868690508110156105b457848482818110610380577f4e487b7100000000000000000000000000000000000000000000000000000000600052603260045260246000fd5b90506020020135600260008989858181106103c4577f4e487b7100000000000000000000000000000000000000000000000000000000600052603260045260246000fd5b90506020020160208101906103d99190611268565b73ffffffffffffffffffffffffffffffffffffffff1673ffffffffffffffffffffffffffffffffffffffff16815260200190815260200160002060007f000000000000000000000000000000000000000000000000000000000000000073ffffffffffffffffffffffffffffffffffffffff1673ffffffffffffffffffffffffffffffffffffffff168152602001908152602001600020819055508282828181106104ad577f4e487b7100000000000000000000000000000000000000000000000000000000600052603260045260246000fd5b90506020020135600260008989858181106104f1577f4e487b7100000000000000000000000000000000000000000000000000000000600052603260045260246000fd5b90506020020160208101906105069190611268565b73ffffffffffffffffffffffffffffffffffffffff1673ffffffffffffffffffffffffffffffffffffffff16815260200190815260200160002060007f000000000000000000000000000000000000000000000000000000000000000073ffffffffffffffffffffffffffffffffffffffff1673ffffffffffffffffffffffffffffffffffffffff1681526020019081526020016000208190555080806105ac9061197e565b91505061033c565b50505050505050565b7f000000000000000000000000000000000000000000000000000000000000000081565b6105e9610c7a565b73ffffffffffffffffffffffffffffffffffffffff166106076107af565b73ffffffffffffffffffffffffffffffffffffffff161461065d576040517f08c379a000000000000000000000000000000000000000000000000000000000815260040161065490611741565b60405180910390fd5b610665610c82565b565b60008060009054906101000a900460ff16905090565b610685610c7a565b73ffffffffffffffffffffffffffffffffffffffff166106a36107af565b73ffffffffffffffffffffffffffffffffffffffff16146106f9576040517f08c379a00000000000000000000000000000000000000000000000000000000081526004016106f090611741565b60405180910390fd5b6107036000610d23565b565b7f000000000000000000000000000000000000000000000000000000000000000081565b610731610c7a565b73ffffffffffffffffffffffffffffffffffffffff1661074f6107af565b73ffffffffffffffffffffffffffffffffffffffff16146107a5576040517f08c379a000000000000000000000000000000000000000000000000000000000815260040161079c90611741565b60405180910390fd5b6107ad610de8565b565b60008060019054906101000a900473ffffffffffffffffffffffffffffffffffffffff16905090565b6002602052816000526040600020602052806000526040600020600091509150505481565b610805610667565b15610845576040517f08c379a000000000000000000000000000000000000000000000000000000000815260040161083c90611721565b60405180910390fd5b6000670de0b6b3a76400008261085b919061180e565b905080600260003373ffffffffffffffffffffffffffffffffffffffff1673ffffffffffffffffffffffffffffffffffffffff16815260200190815260200160002060008573ffffffffffffffffffffffffffffffffffffffff1673ffffffffffffffffffffffffffffffffffffffff16815260200190815260200160002054101561091c576040517f08c379a000000000000000000000000000000000000000000000000000000000815260040161091390611781565b60405180910390fd5b670de0b6b3a7640000821015801561094757506000670de0b6b3a76400008361094591906119c7565b145b610986576040517f08c379a000000000000000000000000000000000000000000000000000000000815260040161097d906116c1565b60405180910390fd5b80600260003373ffffffffffffffffffffffffffffffffffffffff1673ffffffffffffffffffffffffffffffffffffffff16815260200190815260200160002060008573ffffffffffffffffffffffffffffffffffffffff1673ffffffffffffffffffffffffffffffffffffffff1681526020019081526020016000206000828254610a129190611899565b92505081905550610ad0337f0000000000000000000000000000000000000000000000000000000000000000600160008773ffffffffffffffffffffffffffffffffffffffff1673ffffffffffffffffffffffffffffffffffffffff1681526020019081526020016000205484610a89919061183f565b7f000000000000000000000000000000000000000000000000000000000000000073ffffffffffffffffffffffffffffffffffffffff16610e8a909392919063ffffffff16565b610b1d7f000000000000000000000000000000000000000000000000000000000000000033848673ffffffffffffffffffffffffffffffffffffffff16610e8a909392919063ffffffff16565b505050565b60016020528060005260406000206000915090505481565b7f000000000000000000000000000000000000000000000000000000000000000081565b610b66610c7a565b73ffffffffffffffffffffffffffffffffffffffff16610b846107af565b73ffffffffffffffffffffffffffffffffffffffff1614610bda576040517f08c379a0000000000000000000000000000000000000000000000000000000008152600401610bd190611741565b60405180910390fd5b600073ffffffffffffffffffffffffffffffffffffffff168173ffffffffffffffffffffffffffffffffffffffff161415610c4a576040517f08c379a0000000000000000000000000000000000000000000000000000000008152600401610c41906116e1565b60405180910390fd5b610c5381610d23565b50565b7f000000000000000000000000000000000000000000000000000000000000000081565b600033905090565b610c8a610667565b610cc9576040517f08c379a0000000000000000000000000000000000000000000000000000000008152600401610cc0906116a1565b60405180910390fd5b60008060006101000a81548160ff0219169083151502179055507f5db9ee0a495bf2e6ff9c91a7834c1ba4fdd244a5e8aa4e537bd38aeae4b073aa610d0c610c7a565b604051610d1991906115f7565b60405180910390a1565b60008060019054906101000a900473ffffffffffffffffffffffffffffffffffffffff16905081600060016101000a81548173ffffffffffffffffffffffffffffffffffffffff021916908373ffffffffffffffffffffffffffffffffffffffff1602179055508173ffffffffffffffffffffffffffffffffffffffff168173ffffffffffffffffffffffffffffffffffffffff167f8be0079c531659141344cd1fd0a4f28419497f9722a3daafe3b4186f6b6457e060405160405180910390a35050565b610df0610667565b15610e30576040517f08c379a0000000000000000000000000000000000000000000000000000000008152600401610e2790611721565b60405180910390fd5b60016000806101000a81548160ff0219169083151502179055507f62e78cea01bee320cd4e420270b5ea74000d11b0c9f74754ebdbfc544b05a258610e73610c7a565b604051610e8091906115f7565b60405180910390a1565b610f0d846323b872dd60e01b858585604051602401610eab93929190611612565b604051602081830303815290604052907bffffffffffffffffffffffffffffffffffffffffffffffffffffffff19166020820180517bffffffffffffffffffffffffffffffffffffffffffffffffffffffff8381831617835250505050610f13565b50505050565b6000610f75826040518060400160405280602081526020017f5361666545524332303a206c6f772d6c6576656c2063616c6c206661696c65648152508573ffffffffffffffffffffffffffffffffffffffff16610fda9092919063ffffffff16565b9050600081511115610fd55780806020019051810190610f959190611371565b610fd4576040517f08c379a0000000000000000000000000000000000000000000000000000000008152600401610fcb906117a1565b60405180910390fd5b5b505050565b6060610fe98484600085610ff2565b90509392505050565b606082471015611037576040517f08c379a000000000000000000000000000000000000000000000000000000000815260040161102e90611701565b60405180910390fd5b61104085611106565b61107f576040517f08c379a000000000000000000000000000000000000000000000000000000000815260040161107690611761565b60405180910390fd5b6000808673ffffffffffffffffffffffffffffffffffffffff1685876040516110a891906115e0565b60006040518083038185875af1925050503d80600081146110e5576040519150601f19603f3d011682016040523d82523d6000602084013e6110ea565b606091505b50915091506110fa828286611119565b92505050949350505050565b600080823b905060008111915050919050565b6060831561112957829050611179565b60008351111561113c5782518084602001fd5b816040517f08c379a0000000000000000000000000000000000000000000000000000000008152600401611170919061167f565b60405180910390fd5b9392505050565b60008135905061118f81611c4a565b92915050565b60008083601f8401126111a757600080fd5b8235905067ffffffffffffffff8111156111c057600080fd5b6020830191508360208202830111156111d857600080fd5b9250929050565b60008083601f8401126111f157600080fd5b8235905067ffffffffffffffff81111561120a57600080fd5b60208301915083602082028301111561122257600080fd5b9250929050565b60008151905061123881611c61565b92915050565b60008135905061124d81611c78565b92915050565b60008135905061126281611c8f565b92915050565b60006020828403121561127a57600080fd5b600061128884828501611180565b91505092915050565b600080604083850312156112a457600080fd5b60006112b285828601611180565b92505060206112c38582860161123e565b9150509250929050565b600080600080600080606087890312156112e657600080fd5b600087013567ffffffffffffffff81111561130057600080fd5b61130c89828a01611195565b9650965050602087013567ffffffffffffffff81111561132b57600080fd5b61133789828a016111df565b9450945050604087013567ffffffffffffffff81111561135657600080fd5b61136289828a016111df565b92509250509295509295509295565b60006020828403121561138357600080fd5b600061139184828501611229565b91505092915050565b6000602082840312156113ac57600080fd5b60006113ba8482850161123e565b91505092915050565b600080604083850312156113d657600080fd5b60006113e48582860161123e565b92505060206113f585828601611253565b9150509250929050565b611408816118cd565b82525050565b611417816118df565b82525050565b6000611428826117dc565b61143281856117f2565b935061144281856020860161194b565b80840191505092915050565b61145781611927565b82525050565b6000611468826117e7565b61147281856117fd565b935061148281856020860161194b565b61148b81611a56565b840191505092915050565b60006114a36014836117fd565b91506114ae82611a67565b602082019050919050565b60006114c6601c836117fd565b91506114d182611a90565b602082019050919050565b60006114e96026836117fd565b91506114f482611ab9565b604082019050919050565b600061150c6026836117fd565b915061151782611b08565b604082019050919050565b600061152f6010836117fd565b915061153a82611b57565b602082019050919050565b60006115526020836117fd565b915061155d82611b80565b602082019050919050565b6000611575601d836117fd565b915061158082611ba9565b602082019050919050565b60006115986017836117fd565b91506115a382611bd2565b602082019050919050565b60006115bb602a836117fd565b91506115c682611bfb565b604082019050919050565b6115da8161191d565b82525050565b60006115ec828461141d565b915081905092915050565b600060208201905061160c60008301846113ff565b92915050565b600060608201905061162760008301866113ff565b61163460208301856113ff565b61164160408301846115d1565b949350505050565b600060208201905061165e600083018461140e565b92915050565b6000602082019050611679600083018461144e565b92915050565b60006020820190508181036000830152611699818461145d565b905092915050565b600060208201905081810360008301526116ba81611496565b9050919050565b600060208201905081810360008301526116da816114b9565b9050919050565b600060208201905081810360008301526116fa816114dc565b9050919050565b6000602082019050818103600083015261171a816114ff565b9050919050565b6000602082019050818103600083015261173a81611522565b9050919050565b6000602082019050818103600083015261175a81611545565b9050919050565b6000602082019050818103600083015261177a81611568565b9050919050565b6000602082019050818103600083015261179a8161158b565b9050919050565b600060208201905081810360008301526117ba816115ae565b9050919050565b60006020820190506117d660008301846115d1565b92915050565b600081519050919050565b600081519050919050565b600081905092915050565b600082825260208201905092915050565b60006118198261191d565b91506118248361191d565b92508261183457611833611a27565b5b828204905092915050565b600061184a8261191d565b91506118558361191d565b9250817fffffffffffffffffffffffffffffffffffffffffffffffffffffffffffffffff048311821515161561188e5761188d6119f8565b5b828202905092915050565b60006118a48261191d565b91506118af8361191d565b9250828210156118c2576118c16119f8565b5b828203905092915050565b60006118d8826118fd565b9050919050565b60008115159050919050565b60006118f6826118cd565b9050919050565b600073ffffffffffffffffffffffffffffffffffffffff82169050919050565b6000819050919050565b600061193282611939565b9050919050565b6000611944826118fd565b9050919050565b60005b8381101561196957808201518184015260208101905061194e565b83811115611978576000848401525b50505050565b60006119898261191d565b91507fffffffffffffffffffffffffffffffffffffffffffffffffffffffffffffffff8214156119bc576119bb6119f8565b5b600182019050919050565b60006119d28261191d565b91506119dd8361191d565b9250826119ed576119ec611a27565b5b828206905092915050565b7f4e487b7100000000000000000000000000000000000000000000000000000000600052601160045260246000fd5b7f4e487b7100000000000000000000000000000000000000000000000000000000600052601260045260246000fd5b6000601f19601f8301169050919050565b7f5061757361626c653a206e6f7420706175736564000000000000000000000000600082015250565b7f426f6f7374657253616c65323a20696e76616c696420616d6f756e7400000000600082015250565b7f4f776e61626c653a206e6577206f776e657220697320746865207a65726f206160008201527f6464726573730000000000000000000000000000000000000000000000000000602082015250565b7f416464726573733a20696e73756666696369656e742062616c616e636520666f60008201527f722063616c6c0000000000000000000000000000000000000000000000000000602082015250565b7f5061757361626c653a2070617573656400000000000000000000000000000000600082015250565b7f4f776e61626c653a2063616c6c6572206973206e6f7420746865206f776e6572600082015250565b7f416464726573733a2063616c6c20746f206e6f6e2d636f6e7472616374000000600082015250565b7f426f6f7374657253616c65323a2061626f766520636170000000000000000000600082015250565b7f5361666545524332303a204552433230206f7065726174696f6e20646964206e60008201527f6f74207375636365656400000000000000000000000000000000000000000000602082015250565b611c53816118cd565b8114611c5e57600080fd5b50565b611c6a816118df565b8114611c7557600080fd5b50565b611c81816118eb565b8114611c8c57600080fd5b50565b611c988161191d565b8114611ca357600080fd5b5056fea26469706673582212205128c824b5a51d3746c59e7c53bfaf727f5396fe68a2f4904ad8e394b422914764736f6c63430008040033",
  "linkReferences": {},
  "deployedLinkReferences": {}
}