{
  "_format": "hh-sol-artifact-1",
  "contractName": "TokenAllocation",
  "sourceName": "contracts/utils/TokenAllocation.sol",
  "abi": [
    {
      "inputs": [
        {
          "internalType": "address",
          "name": "_mhtOwner",
          "type": "address"
        },
        {
          "internalType": "contract IERC20",
          "name": "_mht",
          "type": "address"
        },
        {
          "internalType": "uint256",
          "name": "_unlockAtIGOPercent",
          "type": "uint256"
        },
        {
          "internalType": "uint256",
          "name": "_cliffMonths",
          "type": "uint256"
        },
        {
          "internalType": "uint256",
          "name": "_vestingPeriodMonths",
          "type": "uint256"
        }
      ],
      "stateMutability": "nonpayable",
      "type": "constructor"
    },
    {
      "anonymous": false,
      "inputs": [
        {
          "indexed": true,
          "internalType": "address",
          "name": "wallet",
          "type": "address"
        },
        {
          "indexed": true,
          "internalType": "uint256",
          "name": "monthIndex",
          "type": "uint256"
        },
        {
          "indexed": true,
          "internalType": "uint256",
          "name": "value",
          "type": "uint256"
        }
      ],
      "name": "Claimed",
      "type": "event"
    },
    {
      "inputs": [],
      "name": "THIRTY_DAYS_IN_SECONDS",
      "outputs": [
        {
          "internalType": "uint256",
          "name": "",
          "type": "uint256"
        }
      ],
      "stateMutability": "view",
      "type": "function"
    },
    {
      "inputs": [
        {
          "internalType": "address",
          "name": "",
          "type": "address"
        }
      ],
      "name": "addressToUserInfo",
      "outputs": [
        {
          "internalType": "uint256",
          "name": "totalTokens",
          "type": "uint256"
        },
        {
          "internalType": "uint256",
          "name": "remainingTokens",
          "type": "uint256"
        },
        {
          "internalType": "int256",
          "name": "lastClaimMonthIndex",
          "type": "int256"
        }
      ],
      "stateMutability": "view",
      "type": "function"
    },
    {
      "inputs": [],
      "name": "claim",
      "outputs": [],
      "stateMutability": "nonpayable",
      "type": "function"
    },
    {
      "inputs": [],
      "name": "cliffMonths",
      "outputs": [
        {
          "internalType": "uint256",
          "name": "",
          "type": "uint256"
        }
      ],
      "stateMutability": "view",
      "type": "function"
    },
    {
      "inputs": [],
      "name": "igoTimestamp",
      "outputs": [
        {
          "internalType": "uint256",
          "name": "",
          "type": "uint256"
        }
      ],
      "stateMutability": "view",
      "type": "function"
    },
    {
      "inputs": [],
      "name": "mht",
      "outputs": [
        {
          "internalType": "contract IERC20",
          "name": "",
          "type": "address"
        }
      ],
      "stateMutability": "view",
      "type": "function"
    },
    {
      "inputs": [],
      "name": "mhtOwner",
      "outputs": [
        {
          "internalType": "address",
          "name": "",
          "type": "address"
        }
      ],
      "stateMutability": "view",
      "type": "function"
    },
    {
      "inputs": [],
      "name": "unlockAtIGOPercent",
      "outputs": [
        {
          "internalType": "uint256",
          "name": "",
          "type": "uint256"
        }
      ],
      "stateMutability": "view",
      "type": "function"
    },
    {
      "inputs": [],
      "name": "vestingPeriodMonths",
      "outputs": [
        {
          "internalType": "uint256",
          "name": "",
          "type": "uint256"
        }
      ],
      "stateMutability": "view",
      "type": "function"
    }
  ],
  "bytecode": "0x6101206040523480156200001257600080fd5b50604051620015ab380380620015ab83398181016040528101906200003891906200010f565b8473ffffffffffffffffffffffffffffffffffffffff1660808173ffffffffffffffffffffffffffffffffffffffff1660601b815250508373ffffffffffffffffffffffffffffffffffffffff1660a08173ffffffffffffffffffffffffffffffffffffffff1660601b815250508260c081815250508160e08181525050806101008181525050505050505062000231565b600081519050620000db81620001e3565b92915050565b600081519050620000f281620001fd565b92915050565b600081519050620001098162000217565b92915050565b600080600080600060a086880312156200012857600080fd5b60006200013888828901620000ca565b95505060206200014b88828901620000e1565b94505060406200015e88828901620000f8565b93505060606200017188828901620000f8565b92505060806200018488828901620000f8565b9150509295509295909350565b60006200019e82620001b9565b9050919050565b6000620001b28262000191565b9050919050565b600073ffffffffffffffffffffffffffffffffffffffff82169050919050565b6000819050919050565b620001ee8162000191565b8114620001fa57600080fd5b50565b6200020881620001a5565b81146200021457600080fd5b50565b6200022281620001d9565b81146200022e57600080fd5b50565b60805160601c60a05160601c60c05160e051610100516112f0620002bb600039600081816101d2015281816105f901526106ad0152600081816104970152818161059d015281816105c60152818161061a015261067001526000818161046c01526107d90152600081816101ae01526103a001526000818161037d015261044801526112f06000f3fe608060405234801561001057600080fd5b50600436106100935760003560e01c8063762a9f2811610066578063762a9f28146100fc578063b55f1b701461011a578063bd1bc72114610138578063e3b9b22d14610156578063e6df33811461017457610093565b806322c13fd5146100985780632622c811146100b65780633210203b146100d45780634e71d92d146100f2575b600080fd5b6100a06101a6565b6040516100ad9190610d9c565b60405180910390f35b6100be6101ac565b6040516100cb9190610cbf565b60405180910390f35b6100dc6101d0565b6040516100e99190610d9c565b60405180910390f35b6100fa6101f4565b005b610104610446565b6040516101119190610c6d565b60405180910390f35b61012261046a565b60405161012f9190610d9c565b60405180910390f35b61014061048e565b60405161014d9190610d9c565b60405180910390f35b61015e610495565b60405161016b9190610d9c565b60405180910390f35b61018e60048036038101906101899190610aaf565b6104b9565b60405161019d93929190610db7565b60405180910390f35b60005481565b7f000000000000000000000000000000000000000000000000000000000000000081565b7f000000000000000000000000000000000000000000000000000000000000000081565b6000805411801561020757506000544210155b610246576040517f08c379a000000000000000000000000000000000000000000000000000000000815260040161023d90610cfc565b60405180910390fd5b6000600160003373ffffffffffffffffffffffffffffffffffffffff1673ffffffffffffffffffffffffffffffffffffffff168152602001908152602001600020905060008160010154116102d0576040517f08c379a00000000000000000000000000000000000000000000000000000000081526004016102c790610d7c565b60405180910390fd5b60004290506000600183600201546102e89190610e20565b905060006102f5836104e3565b905060008290505b81811161043f57600061033986604051806060016040529081600082015481526020016001820154815260200160028201548152505083610598565b905060008111801561034f575060008660010154115b1561042b57808660010160008282546103689190610f95565b925050819055508186600201819055506103e57f000000000000000000000000000000000000000000000000000000000000000033837f000000000000000000000000000000000000000000000000000000000000000073ffffffffffffffffffffffffffffffffffffffff1661074a909392919063ffffffff16565b80823373ffffffffffffffffffffffffffffffffffffffff167f987d620f307ff6b94d58743cb7a7509f24071586a77759b77c2d4e29f75a2f9a60405160405180910390a45b508080610437906110bb565b9150506102fd565b5050505050565b7f000000000000000000000000000000000000000000000000000000000000000081565b7f000000000000000000000000000000000000000000000000000000000000000081565b62278d0081565b7f000000000000000000000000000000000000000000000000000000000000000081565b60016020528060005260406000206000915090508060000154908060010154908060020154905083565b6000806000541180156104f857506000544210155b610537576040517f08c379a000000000000000000000000000000000000000000000000000000000815260040161052e90610cfc565b60405180910390fd5b60007fffffffffffffffffffffffffffffffffffffffffffffffffffffffffffffffff90506000805490505b83811161058e57818061057590611072565b92505062278d00816105879190610eb4565b9050610563565b8192505050919050565b6000807f00000000000000000000000000000000000000000000000000000000000000001180156105e957507f00000000000000000000000000000000000000000000000000000000000000008211155b156105f75760009050610744565b7f00000000000000000000000000000000000000000000000000000000000000007f00000000000000000000000000000000000000000000000000000000000000006106439190610eb4565b8211156106535760009050610744565b600082141561066c57610665836107d3565b9050610744565b60007f00000000000000000000000000000000000000000000000000000000000000008361069a9190610f95565b905060006106a7856107d3565b905060007f00000000000000000000000000000000000000000000000000000000000000008287600001516106dc9190610f95565b6106e69190610f0a565b905060006001846106f79190610f95565b826107029190610f3b565b8361070d9190610eb4565b905060008188600001516107219190610f95565b90508260026107309190610f3b565b81101561073b578092505b82955050505050505b92915050565b6107cd846323b872dd60e01b85858560405160240161076b93929190610c88565b604051602081830303815290604052907bffffffffffffffffffffffffffffffffffffffffffffffffffffffff19166020820180517bffffffffffffffffffffffffffffffffffffffffffffffffffffffff8381831617835250505050610818565b50505050565b600060647f000000000000000000000000000000000000000000000000000000000000000083600001516108079190610f3b565b6108119190610f0a565b9050919050565b600061087a826040518060400160405280602081526020017f5361666545524332303a206c6f772d6c6576656c2063616c6c206661696c65648152508573ffffffffffffffffffffffffffffffffffffffff166108df9092919063ffffffff16565b90506000815111156108da578080602001905181019061089a9190610ad8565b6108d9576040517f08c379a00000000000000000000000000000000000000000000000000000000081526004016108d090610d5c565b60405180910390fd5b5b505050565b60606108ee84846000856108f7565b90509392505050565b60608247101561093c576040517f08c379a000000000000000000000000000000000000000000000000000000000815260040161093390610d1c565b60405180910390fd5b61094585610a0b565b610984576040517f08c379a000000000000000000000000000000000000000000000000000000000815260040161097b90610d3c565b60405180910390fd5b6000808673ffffffffffffffffffffffffffffffffffffffff1685876040516109ad9190610c56565b60006040518083038185875af1925050503d80600081146109ea576040519150601f19603f3d011682016040523d82523d6000602084013e6109ef565b606091505b50915091506109ff828286610a1e565b92505050949350505050565b600080823b905060008111915050919050565b60608315610a2e57829050610a7e565b600083511115610a415782518084602001fd5b816040517f08c379a0000000000000000000000000000000000000000000000000000000008152600401610a759190610cda565b60405180910390fd5b9392505050565b600081359050610a948161128c565b92915050565b600081519050610aa9816112a3565b92915050565b600060208284031215610ac157600080fd5b6000610acf84828501610a85565b91505092915050565b600060208284031215610aea57600080fd5b6000610af884828501610a9a565b91505092915050565b610b0a81610fc9565b82525050565b6000610b1b82610dee565b610b258185610e04565b9350610b3581856020860161103f565b80840191505092915050565b610b4a8161101b565b82525050565b610b5981610fe7565b82525050565b6000610b6a82610df9565b610b748185610e0f565b9350610b8481856020860161103f565b610b8d81611162565b840191505092915050565b6000610ba5601683610e0f565b9150610bb082611173565b602082019050919050565b6000610bc8602683610e0f565b9150610bd38261119c565b604082019050919050565b6000610beb601d83610e0f565b9150610bf6826111eb565b602082019050919050565b6000610c0e602a83610e0f565b9150610c1982611214565b604082019050919050565b6000610c31601183610e0f565b9150610c3c82611263565b602082019050919050565b610c5081611011565b82525050565b6000610c628284610b10565b915081905092915050565b6000602082019050610c826000830184610b01565b92915050565b6000606082019050610c9d6000830186610b01565b610caa6020830185610b01565b610cb76040830184610c47565b949350505050565b6000602082019050610cd46000830184610b41565b92915050565b60006020820190508181036000830152610cf48184610b5f565b905092915050565b60006020820190508181036000830152610d1581610b98565b9050919050565b60006020820190508181036000830152610d3581610bbb565b9050919050565b60006020820190508181036000830152610d5581610bde565b9050919050565b60006020820190508181036000830152610d7581610c01565b9050919050565b60006020820190508181036000830152610d9581610c24565b9050919050565b6000602082019050610db16000830184610c47565b92915050565b6000606082019050610dcc6000830186610c47565b610dd96020830185610c47565b610de66040830184610b50565b949350505050565b600081519050919050565b600081519050919050565b600081905092915050565b600082825260208201905092915050565b6000610e2b82610fe7565b9150610e3683610fe7565b9250817f7fffffffffffffffffffffffffffffffffffffffffffffffffffffffffffffff03831360008312151615610e7157610e70611104565b5b817f8000000000000000000000000000000000000000000000000000000000000000038312600083121615610ea957610ea8611104565b5b828201905092915050565b6000610ebf82611011565b9150610eca83611011565b9250827fffffffffffffffffffffffffffffffffffffffffffffffffffffffffffffffff03821115610eff57610efe611104565b5b828201905092915050565b6000610f1582611011565b9150610f2083611011565b925082610f3057610f2f611133565b5b828204905092915050565b6000610f4682611011565b9150610f5183611011565b9250817fffffffffffffffffffffffffffffffffffffffffffffffffffffffffffffffff0483118215151615610f8a57610f89611104565b5b828202905092915050565b6000610fa082611011565b9150610fab83611011565b925082821015610fbe57610fbd611104565b5b828203905092915050565b6000610fd482610ff1565b9050919050565b60008115159050919050565b6000819050919050565b600073ffffffffffffffffffffffffffffffffffffffff82169050919050565b6000819050919050565b60006110268261102d565b9050919050565b600061103882610ff1565b9050919050565b60005b8381101561105d578082015181840152602081019050611042565b8381111561106c576000848401525b50505050565b600061107d82610fe7565b91507f7fffffffffffffffffffffffffffffffffffffffffffffffffffffffffffffff8214156110b0576110af611104565b5b600182019050919050565b60006110c682611011565b91507fffffffffffffffffffffffffffffffffffffffffffffffffffffffffffffffff8214156110f9576110f8611104565b5b600182019050919050565b7f4e487b7100000000000000000000000000000000000000000000000000000000600052601160045260246000fd5b7f4e487b7100000000000000000000000000000000000000000000000000000000600052601260045260246000fd5b6000601f19601f8301169050919050565b7f556e617661696c61626c65206265666f72652049474f00000000000000000000600082015250565b7f416464726573733a20696e73756666696369656e742062616c616e636520666f60008201527f722063616c6c0000000000000000000000000000000000000000000000000000602082015250565b7f416464726573733a2063616c6c20746f206e6f6e2d636f6e7472616374000000600082015250565b7f5361666545524332303a204552433230206f7065726174696f6e20646964206e60008201527f6f74207375636365656400000000000000000000000000000000000000000000602082015250565b7f4e6f7420656e6f75676820746f6b656e73000000000000000000000000000000600082015250565b61129581610fc9565b81146112a057600080fd5b50565b6112ac81610fdb565b81146112b757600080fd5b5056fea2646970667358221220b723724080e25b33b0a49c7e13f2ae2268d9b2e122adb3f181b2d2005a61f18064736f6c63430008040033",
  "linkReferences": {},
  "deployedLinkReferences": {}
}