{
  "_format": "hh-sol-artifact-1",
  "contractName": "MouseHero",
  "sourceName": "contracts/nft/MouseHero.sol",
  "abi": [
    {
      "inputs": [
        {
          "internalType": "address",
          "name": "owner",
          "type": "address"
        }
      ],
      "stateMutability": "nonpayable",
      "type": "constructor"
    },
    {
      "anonymous": false,
      "inputs": [
        {
          "indexed": true,
          "internalType": "address",
          "name": "owner",
          "type": "address"
        },
        {
          "indexed": true,
          "internalType": "address",
          "name": "approved",
          "type": "address"
        },
        {
          "indexed": true,
          "internalType": "uint256",
          "name": "tokenId",
          "type": "uint256"
        }
      ],
      "name": "Approval",
      "type": "event"
    },
    {
      "anonymous": false,
      "inputs": [
        {
          "indexed": true,
          "internalType": "address",
          "name": "owner",
          "type": "address"
        },
        {
          "indexed": true,
          "internalType": "address",
          "name": "operator",
          "type": "address"
        },
        {
          "indexed": false,
          "internalType": "bool",
          "name": "approved",
          "type": "bool"
        }
      ],
      "name": "ApprovalForAll",
      "type": "event"
    },
    {
      "anonymous": false,
      "inputs": [
        {
          "indexed": true,
          "internalType": "address",
          "name": "to",
          "type": "address"
        },
        {
          "indexed": true,
          "internalType": "uint256",
          "name": "tokenId",
          "type": "uint256"
        },
        {
          "indexed": false,
          "internalType": "enum Rarity",
          "name": "rarity",
          "type": "uint8"
        }
      ],
      "name": "Mint",
      "type": "event"
    },
    {
      "anonymous": false,
      "inputs": [
        {
          "indexed": true,
          "internalType": "address",
          "name": "previousOwner",
          "type": "address"
        },
        {
          "indexed": true,
          "internalType": "address",
          "name": "newOwner",
          "type": "address"
        }
      ],
      "name": "OwnershipTransferred",
      "type": "event"
    },
    {
      "anonymous": false,
      "inputs": [
        {
          "indexed": false,
          "internalType": "address",
          "name": "account",
          "type": "address"
        }
      ],
      "name": "Paused",
      "type": "event"
    },
    {
      "anonymous": false,
      "inputs": [
        {
          "indexed": true,
          "internalType": "address",
          "name": "from",
          "type": "address"
        },
        {
          "indexed": true,
          "internalType": "address",
          "name": "to",
          "type": "address"
        },
        {
          "indexed": true,
          "internalType": "uint256",
          "name": "tokenId",
          "type": "uint256"
        }
      ],
      "name": "Transfer",
      "type": "event"
    },
    {
      "anonymous": false,
      "inputs": [
        {
          "indexed": false,
          "internalType": "address",
          "name": "account",
          "type": "address"
        }
      ],
      "name": "Unpaused",
      "type": "event"
    },
    {
      "inputs": [
        {
          "internalType": "address",
          "name": "to",
          "type": "address"
        },
        {
          "internalType": "uint256",
          "name": "tokenId",
          "type": "uint256"
        }
      ],
      "name": "approve",
      "outputs": [],
      "stateMutability": "nonpayable",
      "type": "function"
    },
    {
      "inputs": [
        {
          "internalType": "address",
          "name": "owner",
          "type": "address"
        }
      ],
      "name": "balanceOf",
      "outputs": [
        {
          "internalType": "uint256",
          "name": "",
          "type": "uint256"
        }
      ],
      "stateMutability": "view",
      "type": "function"
    },
    {
      "inputs": [
        {
          "internalType": "uint256",
          "name": "tokenId",
          "type": "uint256"
        }
      ],
      "name": "burn",
      "outputs": [],
      "stateMutability": "nonpayable",
      "type": "function"
    },
    {
      "inputs": [
        {
          "internalType": "uint256",
          "name": "tokenId",
          "type": "uint256"
        }
      ],
      "name": "getApproved",
      "outputs": [
        {
          "internalType": "address",
          "name": "",
          "type": "address"
        }
      ],
      "stateMutability": "view",
      "type": "function"
    },
    {
      "inputs": [
        {
          "internalType": "address",
          "name": "owner",
          "type": "address"
        },
        {
          "internalType": "address",
          "name": "operator",
          "type": "address"
        }
      ],
      "name": "isApprovedForAll",
      "outputs": [
        {
          "internalType": "bool",
          "name": "",
          "type": "bool"
        }
      ],
      "stateMutability": "view",
      "type": "function"
    },
    {
      "inputs": [],
      "name": "minter",
      "outputs": [
        {
          "internalType": "address",
          "name": "",
          "type": "address"
        }
      ],
      "stateMutability": "view",
      "type": "function"
    },
    {
      "inputs": [],
      "name": "name",
      "outputs": [
        {
          "internalType": "string",
          "name": "",
          "type": "string"
        }
      ],
      "stateMutability": "view",
      "type": "function"
    },
    {
      "inputs": [],
      "name": "owner",
      "outputs": [
        {
          "internalType": "address",
          "name": "",
          "type": "address"
        }
      ],
      "stateMutability": "view",
      "type": "function"
    },
    {
      "inputs": [
        {
          "internalType": "uint256",
          "name": "tokenId",
          "type": "uint256"
        }
      ],
      "name": "ownerOf",
      "outputs": [
        {
          "internalType": "address",
          "name": "",
          "type": "address"
        }
      ],
      "stateMutability": "view",
      "type": "function"
    },
    {
      "inputs": [],
      "name": "pause",
      "outputs": [],
      "stateMutability": "nonpayable",
      "type": "function"
    },
    {
      "inputs": [],
      "name": "paused",
      "outputs": [
        {
          "internalType": "bool",
          "name": "",
          "type": "bool"
        }
      ],
      "stateMutability": "view",
      "type": "function"
    },
    {
      "inputs": [],
      "name": "renounceOwnership",
      "outputs": [],
      "stateMutability": "nonpayable",
      "type": "function"
    },
    {
      "inputs": [
        {
          "internalType": "address",
          "name": "to",
          "type": "address"
        },
        {
          "internalType": "enum Rarity",
          "name": "rarity",
          "type": "uint8"
        }
      ],
      "name": "safeMint",
      "outputs": [],
      "stateMutability": "nonpayable",
      "type": "function"
    },
    {
      "inputs": [
        {
          "internalType": "address",
          "name": "from",
          "type": "address"
        },
        {
          "internalType": "address",
          "name": "to",
          "type": "address"
        },
        {
          "internalType": "uint256",
          "name": "tokenId",
          "type": "uint256"
        }
      ],
      "name": "safeTransferFrom",
      "outputs": [],
      "stateMutability": "nonpayable",
      "type": "function"
    },
    {
      "inputs": [
        {
          "internalType": "address",
          "name": "from",
          "type": "address"
        },
        {
          "internalType": "address",
          "name": "to",
          "type": "address"
        },
        {
          "internalType": "uint256",
          "name": "tokenId",
          "type": "uint256"
        },
        {
          "internalType": "bytes",
          "name": "_data",
          "type": "bytes"
        }
      ],
      "name": "safeTransferFrom",
      "outputs": [],
      "stateMutability": "nonpayable",
      "type": "function"
    },
    {
      "inputs": [
        {
          "internalType": "address",
          "name": "operator",
          "type": "address"
        },
        {
          "internalType": "bool",
          "name": "approved",
          "type": "bool"
        }
      ],
      "name": "setApprovalForAll",
      "outputs": [],
      "stateMutability": "nonpayable",
      "type": "function"
    },
    {
      "inputs": [
        {
          "internalType": "address",
          "name": "_minter",
          "type": "address"
        }
      ],
      "name": "setMinter",
      "outputs": [],
      "stateMutability": "nonpayable",
      "type": "function"
    },
    {
      "inputs": [
        {
          "internalType": "bytes4",
          "name": "interfaceId",
          "type": "bytes4"
        }
      ],
      "name": "supportsInterface",
      "outputs": [
        {
          "internalType": "bool",
          "name": "",
          "type": "bool"
        }
      ],
      "stateMutability": "view",
      "type": "function"
    },
    {
      "inputs": [],
      "name": "symbol",
      "outputs": [
        {
          "internalType": "string",
          "name": "",
          "type": "string"
        }
      ],
      "stateMutability": "view",
      "type": "function"
    },
    {
      "inputs": [
        {
          "internalType": "uint256",
          "name": "index",
          "type": "uint256"
        }
      ],
      "name": "tokenByIndex",
      "outputs": [
        {
          "internalType": "uint256",
          "name": "",
          "type": "uint256"
        }
      ],
      "stateMutability": "view",
      "type": "function"
    },
    {
      "inputs": [
        {
          "internalType": "address",
          "name": "owner",
          "type": "address"
        },
        {
          "internalType": "uint256",
          "name": "index",
          "type": "uint256"
        }
      ],
      "name": "tokenOfOwnerByIndex",
      "outputs": [
        {
          "internalType": "uint256",
          "name": "",
          "type": "uint256"
        }
      ],
      "stateMutability": "view",
      "type": "function"
    },
    {
      "inputs": [
        {
          "internalType": "uint256",
          "name": "tokenId",
          "type": "uint256"
        }
      ],
      "name": "tokenURI",
      "outputs": [
        {
          "internalType": "string",
          "name": "",
          "type": "string"
        }
      ],
      "stateMutability": "view",
      "type": "function"
    },
    {
      "inputs": [],
      "name": "totalSupply",
      "outputs": [
        {
          "internalType": "uint256",
          "name": "",
          "type": "uint256"
        }
      ],
      "stateMutability": "view",
      "type": "function"
    },
    {
      "inputs": [
        {
          "internalType": "address",
          "name": "from",
          "type": "address"
        },
        {
          "internalType": "address",
          "name": "to",
          "type": "address"
        },
        {
          "internalType": "uint256",
          "name": "tokenId",
          "type": "uint256"
        }
      ],
      "name": "transferFrom",
      "outputs": [],
      "stateMutability": "nonpayable",
      "type": "function"
    },
    {
      "inputs": [
        {
          "internalType": "address",
          "name": "newOwner",
          "type": "address"
        }
      ],
      "name": "transferOwnership",
      "outputs": [],
      "stateMutability": "nonpayable",
      "type": "function"
    },
    {
      "inputs": [],
      "name": "unpause",
      "outputs": [],
      "stateMutability": "nonpayable",
      "type": "function"
    }
  ],
  "bytecode": "0x60806040523480156200001157600080fd5b50604051620046d6380380620046d6833981810160405281019062000037919062000452565b6040518060400160405280600a81526020017f4d6f757365204865726f000000000000000000000000000000000000000000008152506040518060400160405280600581526020017f4d4f5553450000000000000000000000000000000000000000000000000000008152508160009080519060200190620000bb92919062000338565b508060019080519060200190620000d492919062000338565b5050506000600b60006101000a81548160ff02191690831515021790555062000112620001066200012a60201b60201c565b6200013260201b60201c565b6200012381620001f860201b60201c565b5062000604565b600033905090565b6000600b60019054906101000a900473ffffffffffffffffffffffffffffffffffffffff16905081600b60016101000a81548173ffffffffffffffffffffffffffffffffffffffff021916908373ffffffffffffffffffffffffffffffffffffffff1602179055508173ffffffffffffffffffffffffffffffffffffffff168173ffffffffffffffffffffffffffffffffffffffff167f8be0079c531659141344cd1fd0a4f28419497f9722a3daafe3b4186f6b6457e060405160405180910390a35050565b620002086200012a60201b60201c565b73ffffffffffffffffffffffffffffffffffffffff166200022e6200030e60201b60201c565b73ffffffffffffffffffffffffffffffffffffffff161462000287576040517f08c379a00000000000000000000000000000000000000000000000000000000081526004016200027e90620004e5565b60405180910390fd5b600073ffffffffffffffffffffffffffffffffffffffff168173ffffffffffffffffffffffffffffffffffffffff161415620002fa576040517f08c379a0000000000000000000000000000000000000000000000000000000008152600401620002f1906200057d565b60405180910390fd5b6200030b816200013260201b60201c565b50565b6000600b60019054906101000a900473ffffffffffffffffffffffffffffffffffffffff16905090565b8280546200034690620005ce565b90600052602060002090601f0160209004810192826200036a5760008555620003b6565b82601f106200038557805160ff1916838001178555620003b6565b82800160010185558215620003b6579182015b82811115620003b557825182559160200191906001019062000398565b5b509050620003c59190620003c9565b5090565b5b80821115620003e4576000816000905550600101620003ca565b5090565b600080fd5b600073ffffffffffffffffffffffffffffffffffffffff82169050919050565b60006200041a82620003ed565b9050919050565b6200042c816200040d565b81146200043857600080fd5b50565b6000815190506200044c8162000421565b92915050565b6000602082840312156200046b576200046a620003e8565b5b60006200047b848285016200043b565b91505092915050565b600082825260208201905092915050565b7f4f776e61626c653a2063616c6c6572206973206e6f7420746865206f776e6572600082015250565b6000620004cd60208362000484565b9150620004da8262000495565b602082019050919050565b600060208201905081810360008301526200050081620004be565b9050919050565b7f4f776e61626c653a206e6577206f776e657220697320746865207a65726f206160008201527f6464726573730000000000000000000000000000000000000000000000000000602082015250565b60006200056560268362000484565b9150620005728262000507565b604082019050919050565b60006020820190508181036000830152620005988162000556565b9050919050565b7f4e487b7100000000000000000000000000000000000000000000000000000000600052602260045260246000fd5b60006002820490506001821680620005e757607f821691505b60208210811415620005fe57620005fd6200059f565b5b50919050565b6140c280620006146000396000f3fe608060405234801561001057600080fd5b506004361061018e5760003560e01c80636352211e116100de57806395d89b4111610097578063c87b56dd11610071578063c87b56dd14610449578063e985e9c514610479578063f2fde38b146104a9578063fca3b5aa146104c55761018e565b806395d89b41146103f3578063a22cb46514610411578063b88d4fde1461042d5761018e565b80636352211e1461034557806370a0823114610375578063715018a6146103a5578063761c4c40146103af5780638456cb59146103cb5780638da5cb5b146103d55761018e565b806323b872dd1161014b57806342842e0e1161012557806342842e0e146102bf57806342966c68146102db5780634f6ccce7146102f75780635c975abb146103275761018e565b806323b872dd146102695780632f745c59146102855780633f4ba83a146102b55761018e565b806301ffc9a71461019357806306fdde03146101c357806307546172146101e1578063081812fc146101ff578063095ea7b31461022f57806318160ddd1461024b575b600080fd5b6101ad60048036038101906101a89190612a29565b6104e1565b6040516101ba9190612a71565b60405180910390f35b6101cb6104f3565b6040516101d89190612b25565b60405180910390f35b6101e9610585565b6040516101f69190612b88565b60405180910390f35b61021960048036038101906102149190612bd9565b6105ab565b6040516102269190612b88565b60405180910390f35b61024960048036038101906102449190612c32565b610630565b005b610253610748565b6040516102609190612c81565b60405180910390f35b610283600480360381019061027e9190612c9c565b610755565b005b61029f600480360381019061029a9190612c32565b6107b5565b6040516102ac9190612c81565b60405180910390f35b6102bd61085a565b005b6102d960048036038101906102d49190612c9c565b6108e0565b005b6102f560048036038101906102f09190612bd9565b610900565b005b610311600480360381019061030c9190612bd9565b61095c565b60405161031e9190612c81565b60405180910390f35b61032f6109cd565b60405161033c9190612a71565b60405180910390f35b61035f600480360381019061035a9190612bd9565b6109e4565b60405161036c9190612b88565b60405180910390f35b61038f600480360381019061038a9190612cef565b610a96565b60405161039c9190612c81565b60405180910390f35b6103ad610b4e565b005b6103c960048036038101906103c49190612d41565b610bd6565b005b6103d3610db6565b005b6103dd610e3c565b6040516103ea9190612b88565b60405180910390f35b6103fb610e66565b6040516104089190612b25565b60405180910390f35b61042b60048036038101906104269190612dad565b610ef8565b005b61044760048036038101906104429190612f22565b611079565b005b610463600480360381019061045e9190612bd9565b6110db565b6040516104709190612b25565b60405180910390f35b610493600480360381019061048e9190612fa5565b6110ed565b6040516104a09190612a71565b60405180910390f35b6104c360048036038101906104be9190612cef565b611181565b005b6104df60048036038101906104da9190612cef565b611279565b005b60006104ec82611339565b9050919050565b60606000805461050290613014565b80601f016020809104026020016040519081016040528092919081815260200182805461052e90613014565b801561057b5780601f106105505761010080835404028352916020019161057b565b820191906000526020600020905b81548152906001019060200180831161055e57829003601f168201915b5050505050905090565b600d60009054906101000a900473ffffffffffffffffffffffffffffffffffffffff1681565b60006105b6826113b3565b6105f5576040517f08c379a00000000000000000000000000000000000000000000000000000000081526004016105ec906130b8565b60405180910390fd5b6004600083815260200190815260200160002060009054906101000a900473ffffffffffffffffffffffffffffffffffffffff169050919050565b600061063b826109e4565b90508073ffffffffffffffffffffffffffffffffffffffff168373ffffffffffffffffffffffffffffffffffffffff1614156106ac576040517f08c379a00000000000000000000000000000000000000000000000000000000081526004016106a39061314a565b60405180910390fd5b8073ffffffffffffffffffffffffffffffffffffffff166106cb61141f565b73ffffffffffffffffffffffffffffffffffffffff1614806106fa57506106f9816106f461141f565b6110ed565b5b610739576040517f08c379a0000000000000000000000000000000000000000000000000000000008152600401610730906131dc565b60405180910390fd5b6107438383611427565b505050565b6000600880549050905090565b61076661076061141f565b826114e0565b6107a5576040517f08c379a000000000000000000000000000000000000000000000000000000000815260040161079c9061326e565b60405180910390fd5b6107b08383836115be565b505050565b60006107c083610a96565b8210610801576040517f08c379a00000000000000000000000000000000000000000000000000000000081526004016107f890613300565b60405180910390fd5b600660008473ffffffffffffffffffffffffffffffffffffffff1673ffffffffffffffffffffffffffffffffffffffff168152602001908152602001600020600083815260200190815260200160002054905092915050565b61086261141f565b73ffffffffffffffffffffffffffffffffffffffff16610880610e3c565b73ffffffffffffffffffffffffffffffffffffffff16146108d6576040517f08c379a00000000000000000000000000000000000000000000000000000000081526004016108cd9061336c565b60405180910390fd5b6108de61181a565b565b6108fb83838360405180602001604052806000815250611079565b505050565b61091161090b61141f565b826114e0565b610950576040517f08c379a0000000000000000000000000000000000000000000000000000000008152600401610947906133fe565b60405180910390fd5b610959816118bc565b50565b6000610966610748565b82106109a7576040517f08c379a000000000000000000000000000000000000000000000000000000000815260040161099e90613490565b60405180910390fd5b600882815481106109bb576109ba6134b0565b5b90600052602060002001549050919050565b6000600b60009054906101000a900460ff16905090565b6000806002600084815260200190815260200160002060009054906101000a900473ffffffffffffffffffffffffffffffffffffffff169050600073ffffffffffffffffffffffffffffffffffffffff168173ffffffffffffffffffffffffffffffffffffffff161415610a8d576040517f08c379a0000000000000000000000000000000000000000000000000000000008152600401610a8490613551565b60405180910390fd5b80915050919050565b60008073ffffffffffffffffffffffffffffffffffffffff168273ffffffffffffffffffffffffffffffffffffffff161415610b07576040517f08c379a0000000000000000000000000000000000000000000000000000000008152600401610afe906135e3565b60405180910390fd5b600360008373ffffffffffffffffffffffffffffffffffffffff1673ffffffffffffffffffffffffffffffffffffffff168152602001908152602001600020549050919050565b610b5661141f565b73ffffffffffffffffffffffffffffffffffffffff16610b74610e3c565b73ffffffffffffffffffffffffffffffffffffffff1614610bca576040517f08c379a0000000000000000000000000000000000000000000000000000000008152600401610bc19061336c565b60405180910390fd5b610bd460006118c8565b565b610bde6109cd565b15610c1e576040517f08c379a0000000000000000000000000000000000000000000000000000000008152600401610c159061364f565b60405180910390fd5b600073ffffffffffffffffffffffffffffffffffffffff16600d60009054906101000a900473ffffffffffffffffffffffffffffffffffffffff1673ffffffffffffffffffffffffffffffffffffffff161415610cb0576040517f08c379a0000000000000000000000000000000000000000000000000000000008152600401610ca7906136bb565b60405180910390fd5b600d60009054906101000a900473ffffffffffffffffffffffffffffffffffffffff1673ffffffffffffffffffffffffffffffffffffffff163373ffffffffffffffffffffffffffffffffffffffff1614610d40576040517f08c379a0000000000000000000000000000000000000000000000000000000008152600401610d3790613727565b60405180910390fd5b6000610d4c600c61198e565b9050610d58600c61199c565b610d6283826119b2565b808373ffffffffffffffffffffffffffffffffffffffff167f29600984795369456176b31dad545cb35585021faea93dcc568a467a737ad42584604051610da991906137be565b60405180910390a3505050565b610dbe61141f565b73ffffffffffffffffffffffffffffffffffffffff16610ddc610e3c565b73ffffffffffffffffffffffffffffffffffffffff1614610e32576040517f08c379a0000000000000000000000000000000000000000000000000000000008152600401610e299061336c565b60405180910390fd5b610e3a6119d0565b565b6000600b60019054906101000a900473ffffffffffffffffffffffffffffffffffffffff16905090565b606060018054610e7590613014565b80601f0160208091040260200160405190810160405280929190818152602001828054610ea190613014565b8015610eee5780601f10610ec357610100808354040283529160200191610eee565b820191906000526020600020905b815481529060010190602001808311610ed157829003601f168201915b5050505050905090565b610f0061141f565b73ffffffffffffffffffffffffffffffffffffffff168273ffffffffffffffffffffffffffffffffffffffff161415610f6e576040517f08c379a0000000000000000000000000000000000000000000000000000000008152600401610f6590613825565b60405180910390fd5b8060056000610f7b61141f565b73ffffffffffffffffffffffffffffffffffffffff1673ffffffffffffffffffffffffffffffffffffffff16815260200190815260200160002060008473ffffffffffffffffffffffffffffffffffffffff1673ffffffffffffffffffffffffffffffffffffffff16815260200190815260200160002060006101000a81548160ff0219169083151502179055508173ffffffffffffffffffffffffffffffffffffffff1661102861141f565b73ffffffffffffffffffffffffffffffffffffffff167f17307eab39ab6107e8899845ad3d59bd9653f200f220920489ca2b5937696c318360405161106d9190612a71565b60405180910390a35050565b61108a61108461141f565b836114e0565b6110c9576040517f08c379a00000000000000000000000000000000000000000000000000000000081526004016110c09061326e565b60405180910390fd5b6110d584848484611a73565b50505050565b60606110e682611acf565b9050919050565b6000600560008473ffffffffffffffffffffffffffffffffffffffff1673ffffffffffffffffffffffffffffffffffffffff16815260200190815260200160002060008373ffffffffffffffffffffffffffffffffffffffff1673ffffffffffffffffffffffffffffffffffffffff16815260200190815260200160002060009054906101000a900460ff16905092915050565b61118961141f565b73ffffffffffffffffffffffffffffffffffffffff166111a7610e3c565b73ffffffffffffffffffffffffffffffffffffffff16146111fd576040517f08c379a00000000000000000000000000000000000000000000000000000000081526004016111f49061336c565b60405180910390fd5b600073ffffffffffffffffffffffffffffffffffffffff168173ffffffffffffffffffffffffffffffffffffffff16141561126d576040517f08c379a0000000000000000000000000000000000000000000000000000000008152600401611264906138b7565b60405180910390fd5b611276816118c8565b50565b61128161141f565b73ffffffffffffffffffffffffffffffffffffffff1661129f610e3c565b73ffffffffffffffffffffffffffffffffffffffff16146112f5576040517f08c379a00000000000000000000000000000000000000000000000000000000081526004016112ec9061336c565b60405180910390fd5b80600d60006101000a81548173ffffffffffffffffffffffffffffffffffffffff021916908373ffffffffffffffffffffffffffffffffffffffff16021790555050565b60007f780e9d63000000000000000000000000000000000000000000000000000000007bffffffffffffffffffffffffffffffffffffffffffffffffffffffff1916827bffffffffffffffffffffffffffffffffffffffffffffffffffffffff191614806113ac57506113ab82611c21565b5b9050919050565b60008073ffffffffffffffffffffffffffffffffffffffff166002600084815260200190815260200160002060009054906101000a900473ffffffffffffffffffffffffffffffffffffffff1673ffffffffffffffffffffffffffffffffffffffff1614159050919050565b600033905090565b816004600083815260200190815260200160002060006101000a81548173ffffffffffffffffffffffffffffffffffffffff021916908373ffffffffffffffffffffffffffffffffffffffff160217905550808273ffffffffffffffffffffffffffffffffffffffff1661149a836109e4565b73ffffffffffffffffffffffffffffffffffffffff167f8c5be1e5ebec7d5bd14f71427d1e84f3dd0314c0f7b2291e5b200ac8c7c3b92560405160405180910390a45050565b60006114eb826113b3565b61152a576040517f08c379a000000000000000000000000000000000000000000000000000000000815260040161152190613949565b60405180910390fd5b6000611535836109e4565b90508073ffffffffffffffffffffffffffffffffffffffff168473ffffffffffffffffffffffffffffffffffffffff1614806115a457508373ffffffffffffffffffffffffffffffffffffffff1661158c846105ab565b73ffffffffffffffffffffffffffffffffffffffff16145b806115b557506115b481856110ed565b5b91505092915050565b8273ffffffffffffffffffffffffffffffffffffffff166115de826109e4565b73ffffffffffffffffffffffffffffffffffffffff1614611634576040517f08c379a000000000000000000000000000000000000000000000000000000000815260040161162b906139db565b60405180910390fd5b600073ffffffffffffffffffffffffffffffffffffffff168273ffffffffffffffffffffffffffffffffffffffff1614156116a4576040517f08c379a000000000000000000000000000000000000000000000000000000000815260040161169b90613a6d565b60405180910390fd5b6116af838383611d03565b6116ba600082611427565b6001600360008573ffffffffffffffffffffffffffffffffffffffff1673ffffffffffffffffffffffffffffffffffffffff168152602001908152602001600020600082825461170a9190613abc565b925050819055506001600360008473ffffffffffffffffffffffffffffffffffffffff1673ffffffffffffffffffffffffffffffffffffffff16815260200190815260200160002060008282546117619190613af0565b92505081905550816002600083815260200190815260200160002060006101000a81548173ffffffffffffffffffffffffffffffffffffffff021916908373ffffffffffffffffffffffffffffffffffffffff160217905550808273ffffffffffffffffffffffffffffffffffffffff168473ffffffffffffffffffffffffffffffffffffffff167fddf252ad1be2c89b69c2b068fc378daa952ba7f163c4a11628f55a4df523b3ef60405160405180910390a4505050565b6118226109cd565b611861576040517f08c379a000000000000000000000000000000000000000000000000000000000815260040161185890613b92565b60405180910390fd5b6000600b60006101000a81548160ff0219169083151502179055507f5db9ee0a495bf2e6ff9c91a7834c1ba4fdd244a5e8aa4e537bd38aeae4b073aa6118a561141f565b6040516118b29190612b88565b60405180910390a1565b6118c581611d5b565b50565b6000600b60019054906101000a900473ffffffffffffffffffffffffffffffffffffffff16905081600b60016101000a81548173ffffffffffffffffffffffffffffffffffffffff021916908373ffffffffffffffffffffffffffffffffffffffff1602179055508173ffffffffffffffffffffffffffffffffffffffff168173ffffffffffffffffffffffffffffffffffffffff167f8be0079c531659141344cd1fd0a4f28419497f9722a3daafe3b4186f6b6457e060405160405180910390a35050565b600081600001549050919050565b6001816000016000828254019250508190555050565b6119cc828260405180602001604052806000815250611dae565b5050565b6119d86109cd565b15611a18576040517f08c379a0000000000000000000000000000000000000000000000000000000008152600401611a0f9061364f565b60405180910390fd5b6001600b60006101000a81548160ff0219169083151502179055507f62e78cea01bee320cd4e420270b5ea74000d11b0c9f74754ebdbfc544b05a258611a5c61141f565b604051611a699190612b88565b60405180910390a1565b611a7e8484846115be565b611a8a84848484611e09565b611ac9576040517f08c379a0000000000000000000000000000000000000000000000000000000008152600401611ac090613c24565b60405180910390fd5b50505050565b6060611ada826113b3565b611b19576040517f08c379a0000000000000000000000000000000000000000000000000000000008152600401611b1090613cb6565b60405180910390fd5b6000600a60008481526020019081526020016000208054611b3990613014565b80601f0160208091040260200160405190810160405280929190818152602001828054611b6590613014565b8015611bb25780601f10611b8757610100808354040283529160200191611bb2565b820191906000526020600020905b815481529060010190602001808311611b9557829003601f168201915b505050505090506000611bc3611fa0565b9050600081511415611bd9578192505050611c1c565b600082511115611c0e578082604051602001611bf6929190613d12565b60405160208183030381529060405292505050611c1c565b611c1784611fdd565b925050505b919050565b60007f80ac58cd000000000000000000000000000000000000000000000000000000007bffffffffffffffffffffffffffffffffffffffffffffffffffffffff1916827bffffffffffffffffffffffffffffffffffffffffffffffffffffffff19161480611cec57507f5b5e139f000000000000000000000000000000000000000000000000000000007bffffffffffffffffffffffffffffffffffffffffffffffffffffffff1916827bffffffffffffffffffffffffffffffffffffffffffffffffffffffff1916145b80611cfc5750611cfb82612084565b5b9050919050565b611d0b6109cd565b15611d4b576040517f08c379a0000000000000000000000000000000000000000000000000000000008152600401611d429061364f565b60405180910390fd5b611d568383836120ee565b505050565b611d6481612202565b6000600a60008381526020019081526020016000208054611d8490613014565b905014611dab57600a60008281526020019081526020016000206000611daa9190612960565b5b50565b611db88383612313565b611dc56000848484611e09565b611e04576040517f08c379a0000000000000000000000000000000000000000000000000000000008152600401611dfb90613c24565b60405180910390fd5b505050565b6000611e2a8473ffffffffffffffffffffffffffffffffffffffff166124e1565b15611f93578373ffffffffffffffffffffffffffffffffffffffff1663150b7a02611e5361141f565b8786866040518563ffffffff1660e01b8152600401611e759493929190613d8b565b602060405180830381600087803b158015611e8f57600080fd5b505af1925050508015611ec057506040513d601f19601f82011682018060405250810190611ebd9190613dec565b60015b611f43573d8060008114611ef0576040519150601f19603f3d011682016040523d82523d6000602084013e611ef5565b606091505b50600081511415611f3b576040517f08c379a0000000000000000000000000000000000000000000000000000000008152600401611f3290613c24565b60405180910390fd5b805181602001fd5b63150b7a0260e01b7bffffffffffffffffffffffffffffffffffffffffffffffffffffffff1916817bffffffffffffffffffffffffffffffffffffffffffffffffffffffff191614915050611f98565b600190505b949350505050565b60606040518060400160405280602081526020017f68747470733a2f2f6e66742e6d6f7573656861756e742e636f6d2f6865726f2f815250905090565b6060611fe8826113b3565b612027576040517f08c379a000000000000000000000000000000000000000000000000000000000815260040161201e90613e8b565b60405180910390fd5b6000612031611fa0565b90506000815111612051576040518060200160405280600081525061207c565b8061205b846124f4565b60405160200161206c929190613d12565b6040516020818303038152906040525b915050919050565b60007f01ffc9a7000000000000000000000000000000000000000000000000000000007bffffffffffffffffffffffffffffffffffffffffffffffffffffffff1916827bffffffffffffffffffffffffffffffffffffffffffffffffffffffff1916149050919050565b6120f9838383612655565b600073ffffffffffffffffffffffffffffffffffffffff168373ffffffffffffffffffffffffffffffffffffffff16141561213c576121378161265a565b61217b565b8173ffffffffffffffffffffffffffffffffffffffff168373ffffffffffffffffffffffffffffffffffffffff161461217a5761217983826126a3565b5b5b600073ffffffffffffffffffffffffffffffffffffffff168273ffffffffffffffffffffffffffffffffffffffff1614156121be576121b981612810565b6121fd565b8273ffffffffffffffffffffffffffffffffffffffff168273ffffffffffffffffffffffffffffffffffffffff16146121fc576121fb82826128e1565b5b5b505050565b600061220d826109e4565b905061221b81600084611d03565b612226600083611427565b6001600360008373ffffffffffffffffffffffffffffffffffffffff1673ffffffffffffffffffffffffffffffffffffffff16815260200190815260200160002060008282546122769190613abc565b925050819055506002600083815260200190815260200160002060006101000a81549073ffffffffffffffffffffffffffffffffffffffff021916905581600073ffffffffffffffffffffffffffffffffffffffff168273ffffffffffffffffffffffffffffffffffffffff167fddf252ad1be2c89b69c2b068fc378daa952ba7f163c4a11628f55a4df523b3ef60405160405180910390a45050565b600073ffffffffffffffffffffffffffffffffffffffff168273ffffffffffffffffffffffffffffffffffffffff161415612383576040517f08c379a000000000000000000000000000000000000000000000000000000000815260040161237a90613ef7565b60405180910390fd5b61238c816113b3565b156123cc576040517f08c379a00000000000000000000000000000000000000000000000000000000081526004016123c390613f63565b60405180910390fd5b6123d860008383611d03565b6001600360008473ffffffffffffffffffffffffffffffffffffffff1673ffffffffffffffffffffffffffffffffffffffff16815260200190815260200160002060008282546124289190613af0565b92505081905550816002600083815260200190815260200160002060006101000a81548173ffffffffffffffffffffffffffffffffffffffff021916908373ffffffffffffffffffffffffffffffffffffffff160217905550808273ffffffffffffffffffffffffffffffffffffffff16600073ffffffffffffffffffffffffffffffffffffffff167fddf252ad1be2c89b69c2b068fc378daa952ba7f163c4a11628f55a4df523b3ef60405160405180910390a45050565b600080823b905060008111915050919050565b6060600082141561253c576040518060400160405280600181526020017f30000000000000000000000000000000000000000000000000000000000000008152509050612650565b600082905060005b6000821461256e57808061255790613f83565b915050600a826125679190613ffb565b9150612544565b60008167ffffffffffffffff81111561258a57612589612df7565b5b6040519080825280601f01601f1916602001820160405280156125bc5781602001600182028036833780820191505090505b5090505b60008514612649576001826125d59190613abc565b9150600a856125e4919061402c565b60306125f09190613af0565b60f81b818381518110612606576126056134b0565b5b60200101907effffffffffffffffffffffffffffffffffffffffffffffffffffffffffffff1916908160001a905350600a856126429190613ffb565b94506125c0565b8093505050505b919050565b505050565b6008805490506009600083815260200190815260200160002081905550600881908060018154018082558091505060019003906000526020600020016000909190919091505550565b600060016126b084610a96565b6126ba9190613abc565b905060006007600084815260200190815260200160002054905081811461279f576000600660008673ffffffffffffffffffffffffffffffffffffffff1673ffffffffffffffffffffffffffffffffffffffff168152602001908152602001600020600084815260200190815260200160002054905080600660008773ffffffffffffffffffffffffffffffffffffffff1673ffffffffffffffffffffffffffffffffffffffff168152602001908152602001600020600084815260200190815260200160002081905550816007600083815260200190815260200160002081905550505b6007600084815260200190815260200160002060009055600660008573ffffffffffffffffffffffffffffffffffffffff1673ffffffffffffffffffffffffffffffffffffffff16815260200190815260200160002060008381526020019081526020016000206000905550505050565b600060016008805490506128249190613abc565b9050600060096000848152602001908152602001600020549050600060088381548110612854576128536134b0565b5b906000526020600020015490508060088381548110612876576128756134b0565b5b9060005260206000200181905550816009600083815260200190815260200160002081905550600960008581526020019081526020016000206000905560088054806128c5576128c461405d565b5b6001900381819060005260206000200160009055905550505050565b60006128ec83610a96565b905081600660008573ffffffffffffffffffffffffffffffffffffffff1673ffffffffffffffffffffffffffffffffffffffff168152602001908152602001600020600083815260200190815260200160002081905550806007600084815260200190815260200160002081905550505050565b50805461296c90613014565b6000825580601f1061297e575061299d565b601f01602090049060005260206000209081019061299c91906129a0565b5b50565b5b808211156129b95760008160009055506001016129a1565b5090565b6000604051905090565b600080fd5b600080fd5b60007fffffffff0000000000000000000000000000000000000000000000000000000082169050919050565b612a06816129d1565b8114612a1157600080fd5b50565b600081359050612a23816129fd565b92915050565b600060208284031215612a3f57612a3e6129c7565b5b6000612a4d84828501612a14565b91505092915050565b60008115159050919050565b612a6b81612a56565b82525050565b6000602082019050612a866000830184612a62565b92915050565b600081519050919050565b600082825260208201905092915050565b60005b83811015612ac6578082015181840152602081019050612aab565b83811115612ad5576000848401525b50505050565b6000601f19601f8301169050919050565b6000612af782612a8c565b612b018185612a97565b9350612b11818560208601612aa8565b612b1a81612adb565b840191505092915050565b60006020820190508181036000830152612b3f8184612aec565b905092915050565b600073ffffffffffffffffffffffffffffffffffffffff82169050919050565b6000612b7282612b47565b9050919050565b612b8281612b67565b82525050565b6000602082019050612b9d6000830184612b79565b92915050565b6000819050919050565b612bb681612ba3565b8114612bc157600080fd5b50565b600081359050612bd381612bad565b92915050565b600060208284031215612bef57612bee6129c7565b5b6000612bfd84828501612bc4565b91505092915050565b612c0f81612b67565b8114612c1a57600080fd5b50565b600081359050612c2c81612c06565b92915050565b60008060408385031215612c4957612c486129c7565b5b6000612c5785828601612c1d565b9250506020612c6885828601612bc4565b9150509250929050565b612c7b81612ba3565b82525050565b6000602082019050612c966000830184612c72565b92915050565b600080600060608486031215612cb557612cb46129c7565b5b6000612cc386828701612c1d565b9350506020612cd486828701612c1d565b9250506040612ce586828701612bc4565b9150509250925092565b600060208284031215612d0557612d046129c7565b5b6000612d1384828501612c1d565b91505092915050565b60048110612d2957600080fd5b50565b600081359050612d3b81612d1c565b92915050565b60008060408385031215612d5857612d576129c7565b5b6000612d6685828601612c1d565b9250506020612d7785828601612d2c565b9150509250929050565b612d8a81612a56565b8114612d9557600080fd5b50565b600081359050612da781612d81565b92915050565b60008060408385031215612dc457612dc36129c7565b5b6000612dd285828601612c1d565b9250506020612de385828601612d98565b9150509250929050565b600080fd5b600080fd5b7f4e487b7100000000000000000000000000000000000000000000000000000000600052604160045260246000fd5b612e2f82612adb565b810181811067ffffffffffffffff82111715612e4e57612e4d612df7565b5b80604052505050565b6000612e616129bd565b9050612e6d8282612e26565b919050565b600067ffffffffffffffff821115612e8d57612e8c612df7565b5b612e9682612adb565b9050602081019050919050565b82818337600083830152505050565b6000612ec5612ec084612e72565b612e57565b905082815260208101848484011115612ee157612ee0612df2565b5b612eec848285612ea3565b509392505050565b600082601f830112612f0957612f08612ded565b5b8135612f19848260208601612eb2565b91505092915050565b60008060008060808587031215612f3c57612f3b6129c7565b5b6000612f4a87828801612c1d565b9450506020612f5b87828801612c1d565b9350506040612f6c87828801612bc4565b925050606085013567ffffffffffffffff811115612f8d57612f8c6129cc565b5b612f9987828801612ef4565b91505092959194509250565b60008060408385031215612fbc57612fbb6129c7565b5b6000612fca85828601612c1d565b9250506020612fdb85828601612c1d565b9150509250929050565b7f4e487b7100000000000000000000000000000000000000000000000000000000600052602260045260246000fd5b6000600282049050600182168061302c57607f821691505b602082108114156130405761303f612fe5565b5b50919050565b7f4552433732313a20617070726f76656420717565727920666f72206e6f6e657860008201527f697374656e7420746f6b656e0000000000000000000000000000000000000000602082015250565b60006130a2602c83612a97565b91506130ad82613046565b604082019050919050565b600060208201905081810360008301526130d181613095565b9050919050565b7f4552433732313a20617070726f76616c20746f2063757272656e74206f776e6560008201527f7200000000000000000000000000000000000000000000000000000000000000602082015250565b6000613134602183612a97565b915061313f826130d8565b604082019050919050565b6000602082019050818103600083015261316381613127565b9050919050565b7f4552433732313a20617070726f76652063616c6c6572206973206e6f74206f7760008201527f6e6572206e6f7220617070726f76656420666f7220616c6c0000000000000000602082015250565b60006131c6603883612a97565b91506131d18261316a565b604082019050919050565b600060208201905081810360008301526131f5816131b9565b9050919050565b7f4552433732313a207472616e736665722063616c6c6572206973206e6f74206f60008201527f776e6572206e6f7220617070726f766564000000000000000000000000000000602082015250565b6000613258603183612a97565b9150613263826131fc565b604082019050919050565b600060208201905081810360008301526132878161324b565b9050919050565b7f455243373231456e756d657261626c653a206f776e657220696e646578206f7560008201527f74206f6620626f756e6473000000000000000000000000000000000000000000602082015250565b60006132ea602b83612a97565b91506132f58261328e565b604082019050919050565b60006020820190508181036000830152613319816132dd565b9050919050565b7f4f776e61626c653a2063616c6c6572206973206e6f7420746865206f776e6572600082015250565b6000613356602083612a97565b915061336182613320565b602082019050919050565b6000602082019050818103600083015261338581613349565b9050919050565b7f4552433732314275726e61626c653a2063616c6c6572206973206e6f74206f7760008201527f6e6572206e6f7220617070726f76656400000000000000000000000000000000602082015250565b60006133e8603083612a97565b91506133f38261338c565b604082019050919050565b60006020820190508181036000830152613417816133db565b9050919050565b7f455243373231456e756d657261626c653a20676c6f62616c20696e646578206f60008201527f7574206f6620626f756e64730000000000000000000000000000000000000000602082015250565b600061347a602c83612a97565b91506134858261341e565b604082019050919050565b600060208201905081810360008301526134a98161346d565b9050919050565b7f4e487b7100000000000000000000000000000000000000000000000000000000600052603260045260246000fd5b7f4552433732313a206f776e657220717565727920666f72206e6f6e657869737460008201527f656e7420746f6b656e0000000000000000000000000000000000000000000000602082015250565b600061353b602983612a97565b9150613546826134df565b604082019050919050565b6000602082019050818103600083015261356a8161352e565b9050919050565b7f4552433732313a2062616c616e636520717565727920666f7220746865207a6560008201527f726f206164647265737300000000000000000000000000000000000000000000602082015250565b60006135cd602a83612a97565b91506135d882613571565b604082019050919050565b600060208201905081810360008301526135fc816135c0565b9050919050565b7f5061757361626c653a2070617573656400000000000000000000000000000000600082015250565b6000613639601083612a97565b915061364482613603565b602082019050919050565b600060208201905081810360008301526136688161362c565b9050919050565b7f4d696e746572206e6f7420736574000000000000000000000000000000000000600082015250565b60006136a5600e83612a97565b91506136b08261366f565b602082019050919050565b600060208201905081810360008301526136d481613698565b9050919050565b7f4e6f74206d696e74657200000000000000000000000000000000000000000000600082015250565b6000613711600a83612a97565b915061371c826136db565b602082019050919050565b6000602082019050818103600083015261374081613704565b9050919050565b7f4e487b7100000000000000000000000000000000000000000000000000000000600052602160045260246000fd5b6004811061378757613786613747565b5b50565b600081905061379882613776565b919050565b60006137a88261378a565b9050919050565b6137b88161379d565b82525050565b60006020820190506137d360008301846137af565b92915050565b7f4552433732313a20617070726f766520746f2063616c6c657200000000000000600082015250565b600061380f601983612a97565b915061381a826137d9565b602082019050919050565b6000602082019050818103600083015261383e81613802565b9050919050565b7f4f776e61626c653a206e6577206f776e657220697320746865207a65726f206160008201527f6464726573730000000000000000000000000000000000000000000000000000602082015250565b60006138a1602683612a97565b91506138ac82613845565b604082019050919050565b600060208201905081810360008301526138d081613894565b9050919050565b7f4552433732313a206f70657261746f7220717565727920666f72206e6f6e657860008201527f697374656e7420746f6b656e0000000000000000000000000000000000000000602082015250565b6000613933602c83612a97565b915061393e826138d7565b604082019050919050565b6000602082019050818103600083015261396281613926565b9050919050565b7f4552433732313a207472616e73666572206f6620746f6b656e2074686174206960008201527f73206e6f74206f776e0000000000000000000000000000000000000000000000602082015250565b60006139c5602983612a97565b91506139d082613969565b604082019050919050565b600060208201905081810360008301526139f4816139b8565b9050919050565b7f4552433732313a207472616e7366657220746f20746865207a65726f2061646460008201527f7265737300000000000000000000000000000000000000000000000000000000602082015250565b6000613a57602483612a97565b9150613a62826139fb565b604082019050919050565b60006020820190508181036000830152613a8681613a4a565b9050919050565b7f4e487b7100000000000000000000000000000000000000000000000000000000600052601160045260246000fd5b6000613ac782612ba3565b9150613ad283612ba3565b925082821015613ae557613ae4613a8d565b5b828203905092915050565b6000613afb82612ba3565b9150613b0683612ba3565b9250827fffffffffffffffffffffffffffffffffffffffffffffffffffffffffffffffff03821115613b3b57613b3a613a8d565b5b828201905092915050565b7f5061757361626c653a206e6f7420706175736564000000000000000000000000600082015250565b6000613b7c601483612a97565b9150613b8782613b46565b602082019050919050565b60006020820190508181036000830152613bab81613b6f565b9050919050565b7f4552433732313a207472616e7366657220746f206e6f6e20455243373231526560008201527f63656976657220696d706c656d656e7465720000000000000000000000000000602082015250565b6000613c0e603283612a97565b9150613c1982613bb2565b604082019050919050565b60006020820190508181036000830152613c3d81613c01565b9050919050565b7f45524337323155524953746f726167653a2055524920717565727920666f722060008201527f6e6f6e6578697374656e7420746f6b656e000000000000000000000000000000602082015250565b6000613ca0603183612a97565b9150613cab82613c44565b604082019050919050565b60006020820190508181036000830152613ccf81613c93565b9050919050565b600081905092915050565b6000613cec82612a8c565b613cf68185613cd6565b9350613d06818560208601612aa8565b80840191505092915050565b6000613d1e8285613ce1565b9150613d2a8284613ce1565b91508190509392505050565b600081519050919050565b600082825260208201905092915050565b6000613d5d82613d36565b613d678185613d41565b9350613d77818560208601612aa8565b613d8081612adb565b840191505092915050565b6000608082019050613da06000830187612b79565b613dad6020830186612b79565b613dba6040830185612c72565b8181036060830152613dcc8184613d52565b905095945050505050565b600081519050613de6816129fd565b92915050565b600060208284031215613e0257613e016129c7565b5b6000613e1084828501613dd7565b91505092915050565b7f4552433732314d657461646174613a2055524920717565727920666f72206e6f60008201527f6e6578697374656e7420746f6b656e0000000000000000000000000000000000602082015250565b6000613e75602f83612a97565b9150613e8082613e19565b604082019050919050565b60006020820190508181036000830152613ea481613e68565b9050919050565b7f4552433732313a206d696e7420746f20746865207a65726f2061646472657373600082015250565b6000613ee1602083612a97565b9150613eec82613eab565b602082019050919050565b60006020820190508181036000830152613f1081613ed4565b9050919050565b7f4552433732313a20746f6b656e20616c7265616479206d696e74656400000000600082015250565b6000613f4d601c83612a97565b9150613f5882613f17565b602082019050919050565b60006020820190508181036000830152613f7c81613f40565b9050919050565b6000613f8e82612ba3565b91507fffffffffffffffffffffffffffffffffffffffffffffffffffffffffffffffff821415613fc157613fc0613a8d565b5b600182019050919050565b7f4e487b7100000000000000000000000000000000000000000000000000000000600052601260045260246000fd5b600061400682612ba3565b915061401183612ba3565b92508261402157614020613fcc565b5b828204905092915050565b600061403782612ba3565b915061404283612ba3565b92508261405257614051613fcc565b5b828206905092915050565b7f4e487b7100000000000000000000000000000000000000000000000000000000600052603160045260246000fdfea2646970667358221220b0d5d1df37b2db87470b87bae7cf941485c9cf5fa0e38a1d20191c0be19e154764736f6c63430008090033",
  "linkReferences": {},
  "deployedLinkReferences": {}
}