{
  "_format": "hh-sol-artifact-1",
  "contractName": "Random",
  "sourceName": "contracts/booster/Random.sol",
  "abi": [
    {
      "inputs": [],
      "name": "PERCENTAGE_THOUSAND",
      "outputs": [
        {
          "internalType": "uint256",
          "name": "",
          "type": "uint256"
        }
      ],
      "stateMutability": "view",
      "type": "function"
    }
  ],
  "bytecode": "0x60806040526000805534801561001457600080fd5b5060b4806100236000396000f3fe6080604052348015600f57600080fd5b506004361060285760003560e01c806345b12d4a14602d575b600080fd5b60336047565b604051603e9190605b565b60405180910390f35b620186a081565b6055816074565b82525050565b6000602082019050606e6000830184604e565b92915050565b600081905091905056fea264697066735822122022a8e06cd5876f01d39e03835a35dd1b4c5fe8ac4982a4b8f4af763eed66d5ee64736f6c63430008040033",
  "linkReferences": {},
  "deployedLinkReferences": {}
}