{
  "_format": "hh-sol-artifact-1",
  "contractName": "WhitelistSale",
  "sourceName": "contracts/WhitelistSale.sol",
  "abi": [
    {
      "inputs": [
        {
          "internalType": "address",
          "name": "_mhtOwner",
          "type": "address"
        },
        {
          "internalType": "contract IERC20",
          "name": "_mht",
          "type": "address"
        },
        {
          "internalType": "contract IERC20",
          "name": "_busd",
          "type": "address"
        },
        {
          "internalType": "uint256",
          "name": "_mhtToBusd",
          "type": "uint256"
        },
        {
          "internalType": "uint256",
          "name": "_minMhtAmount",
          "type": "uint256"
        },
        {
          "internalType": "uint256",
          "name": "_maxMhtAmount",
          "type": "uint256"
        },
        {
          "internalType": "uint256",
          "name": "_unlockAtIGOPercent",
          "type": "uint256"
        },
        {
          "internalType": "uint256",
          "name": "_cliffMonths",
          "type": "uint256"
        },
        {
          "internalType": "uint256",
          "name": "_vestingPeriodMonths",
          "type": "uint256"
        }
      ],
      "stateMutability": "nonpayable",
      "type": "constructor"
    },
    {
      "anonymous": false,
      "inputs": [
        {
          "indexed": true,
          "internalType": "address",
          "name": "wallet",
          "type": "address"
        },
        {
          "indexed": true,
          "internalType": "uint256",
          "name": "monthIndex",
          "type": "uint256"
        },
        {
          "indexed": true,
          "internalType": "uint256",
          "name": "value",
          "type": "uint256"
        }
      ],
      "name": "Claimed",
      "type": "event"
    },
    {
      "anonymous": false,
      "inputs": [
        {
          "indexed": true,
          "internalType": "uint256",
          "name": "timestamp",
          "type": "uint256"
        }
      ],
      "name": "IGO",
      "type": "event"
    },
    {
      "anonymous": false,
      "inputs": [
        {
          "indexed": true,
          "internalType": "address",
          "name": "previousOwner",
          "type": "address"
        },
        {
          "indexed": true,
          "internalType": "address",
          "name": "newOwner",
          "type": "address"
        }
      ],
      "name": "OwnershipTransferred",
      "type": "event"
    },
    {
      "anonymous": false,
      "inputs": [
        {
          "indexed": false,
          "internalType": "address",
          "name": "account",
          "type": "address"
        }
      ],
      "name": "Paused",
      "type": "event"
    },
    {
      "anonymous": false,
      "inputs": [
        {
          "indexed": false,
          "internalType": "address",
          "name": "account",
          "type": "address"
        }
      ],
      "name": "Unpaused",
      "type": "event"
    },
    {
      "inputs": [],
      "name": "THIRTY_DAYS_IN_SECONDS",
      "outputs": [
        {
          "internalType": "uint256",
          "name": "",
          "type": "uint256"
        }
      ],
      "stateMutability": "view",
      "type": "function"
    },
    {
      "inputs": [
        {
          "internalType": "address[]",
          "name": "_buyers",
          "type": "address[]"
        }
      ],
      "name": "addToWhitelist",
      "outputs": [],
      "stateMutability": "nonpayable",
      "type": "function"
    },
    {
      "inputs": [
        {
          "internalType": "address",
          "name": "",
          "type": "address"
        }
      ],
      "name": "addressToUserInfo",
      "outputs": [
        {
          "internalType": "uint256",
          "name": "totalTokens",
          "type": "uint256"
        },
        {
          "internalType": "uint256",
          "name": "remainingTokens",
          "type": "uint256"
        },
        {
          "internalType": "int256",
          "name": "lastClaimMonthIndex",
          "type": "int256"
        }
      ],
      "stateMutability": "view",
      "type": "function"
    },
    {
      "inputs": [],
      "name": "busd",
      "outputs": [
        {
          "internalType": "contract IERC20",
          "name": "",
          "type": "address"
        }
      ],
      "stateMutability": "view",
      "type": "function"
    },
    {
      "inputs": [
        {
          "internalType": "uint256",
          "name": "_mhtAmount",
          "type": "uint256"
        }
      ],
      "name": "buy",
      "outputs": [],
      "stateMutability": "nonpayable",
      "type": "function"
    },
    {
      "inputs": [],
      "name": "claim",
      "outputs": [],
      "stateMutability": "nonpayable",
      "type": "function"
    },
    {
      "inputs": [],
      "name": "cliffMonths",
      "outputs": [
        {
          "internalType": "uint256",
          "name": "",
          "type": "uint256"
        }
      ],
      "stateMutability": "view",
      "type": "function"
    },
    {
      "inputs": [],
      "name": "igoTimestamp",
      "outputs": [
        {
          "internalType": "uint256",
          "name": "",
          "type": "uint256"
        }
      ],
      "stateMutability": "view",
      "type": "function"
    },
    {
      "inputs": [
        {
          "internalType": "address",
          "name": "wallet",
          "type": "address"
        }
      ],
      "name": "isWhitelisted",
      "outputs": [
        {
          "internalType": "bool",
          "name": "",
          "type": "bool"
        }
      ],
      "stateMutability": "view",
      "type": "function"
    },
    {
      "inputs": [],
      "name": "maxMhtAmount",
      "outputs": [
        {
          "internalType": "uint256",
          "name": "",
          "type": "uint256"
        }
      ],
      "stateMutability": "view",
      "type": "function"
    },
    {
      "inputs": [],
      "name": "mht",
      "outputs": [
        {
          "internalType": "contract IERC20",
          "name": "",
          "type": "address"
        }
      ],
      "stateMutability": "view",
      "type": "function"
    },
    {
      "inputs": [],
      "name": "mhtOwner",
      "outputs": [
        {
          "internalType": "address",
          "name": "",
          "type": "address"
        }
      ],
      "stateMutability": "view",
      "type": "function"
    },
    {
      "inputs": [],
      "name": "mhtToBusd",
      "outputs": [
        {
          "internalType": "uint256",
          "name": "",
          "type": "uint256"
        }
      ],
      "stateMutability": "view",
      "type": "function"
    },
    {
      "inputs": [],
      "name": "minMhtAmount",
      "outputs": [
        {
          "internalType": "uint256",
          "name": "",
          "type": "uint256"
        }
      ],
      "stateMutability": "view",
      "type": "function"
    },
    {
      "inputs": [],
      "name": "owner",
      "outputs": [
        {
          "internalType": "address",
          "name": "",
          "type": "address"
        }
      ],
      "stateMutability": "view",
      "type": "function"
    },
    {
      "inputs": [],
      "name": "pause",
      "outputs": [],
      "stateMutability": "nonpayable",
      "type": "function"
    },
    {
      "inputs": [],
      "name": "paused",
      "outputs": [
        {
          "internalType": "bool",
          "name": "",
          "type": "bool"
        }
      ],
      "stateMutability": "view",
      "type": "function"
    },
    {
      "inputs": [
        {
          "internalType": "address[]",
          "name": "_buyers",
          "type": "address[]"
        }
      ],
      "name": "removeFromWhitelist",
      "outputs": [],
      "stateMutability": "nonpayable",
      "type": "function"
    },
    {
      "inputs": [],
      "name": "renounceOwnership",
      "outputs": [],
      "stateMutability": "nonpayable",
      "type": "function"
    },
    {
      "inputs": [
        {
          "internalType": "uint256",
          "name": "_igoTimestamp",
          "type": "uint256"
        }
      ],
      "name": "setIgoTimestamp",
      "outputs": [],
      "stateMutability": "nonpayable",
      "type": "function"
    },
    {
      "inputs": [
        {
          "internalType": "address",
          "name": "newOwner",
          "type": "address"
        }
      ],
      "name": "transferOwnership",
      "outputs": [],
      "stateMutability": "nonpayable",
      "type": "function"
    },
    {
      "inputs": [],
      "name": "unlockAtIGOPercent",
      "outputs": [
        {
          "internalType": "uint256",
          "name": "",
          "type": "uint256"
        }
      ],
      "stateMutability": "view",
      "type": "function"
    },
    {
      "inputs": [],
      "name": "unpause",
      "outputs": [],
      "stateMutability": "nonpayable",
      "type": "function"
    },
    {
      "inputs": [],
      "name": "vestingPeriodMonths",
      "outputs": [
        {
          "internalType": "uint256",
          "name": "",
          "type": "uint256"
        }
      ],
      "stateMutability": "view",
      "type": "function"
    }
  ],
  "bytecode": "0x6101a06040523480156200001257600080fd5b506040516200307a3803806200307a8339818101604052810190620000389190620003c7565b888884848460008060006101000a81548160ff021916908315150217905550620000776200006b6200017660201b60201c565b6200017e60201b60201c565b8473ffffffffffffffffffffffffffffffffffffffff1660808173ffffffffffffffffffffffffffffffffffffffff1660601b815250508373ffffffffffffffffffffffffffffffffffffffff1660a08173ffffffffffffffffffffffffffffffffffffffff1660601b815250508260c081815250508160e08181525050806101008181525050505050505062000114896200024360201b60201c565b8673ffffffffffffffffffffffffffffffffffffffff166101208173ffffffffffffffffffffffffffffffffffffffff1660601b815250508561014081815250508461016081815250508361018081815250505050505050505050506200065b565b600033905090565b60008060019054906101000a900473ffffffffffffffffffffffffffffffffffffffff16905081600060016101000a81548173ffffffffffffffffffffffffffffffffffffffff021916908373ffffffffffffffffffffffffffffffffffffffff1602179055508173ffffffffffffffffffffffffffffffffffffffff168173ffffffffffffffffffffffffffffffffffffffff167f8be0079c531659141344cd1fd0a4f28419497f9722a3daafe3b4186f6b6457e060405160405180910390a35050565b620002536200017660201b60201c565b73ffffffffffffffffffffffffffffffffffffffff16620002796200035960201b60201c565b73ffffffffffffffffffffffffffffffffffffffff1614620002d2576040517f08c379a0000000000000000000000000000000000000000000000000000000008152600401620002c99062000510565b60405180910390fd5b600073ffffffffffffffffffffffffffffffffffffffff168173ffffffffffffffffffffffffffffffffffffffff16141562000345576040517f08c379a00000000000000000000000000000000000000000000000000000000081526004016200033c90620004ee565b60405180910390fd5b62000356816200017e60201b60201c565b50565b60008060019054906101000a900473ffffffffffffffffffffffffffffffffffffffff16905090565b60008151905062000393816200060d565b92915050565b600081519050620003aa8162000627565b92915050565b600081519050620003c18162000641565b92915050565b60008060008060008060008060006101208a8c031215620003e757600080fd5b6000620003f78c828d0162000382565b99505060206200040a8c828d0162000399565b98505060406200041d8c828d0162000399565b9750506060620004308c828d01620003b0565b9650506080620004438c828d01620003b0565b95505060a0620004568c828d01620003b0565b94505060c0620004698c828d01620003b0565b93505060e06200047c8c828d01620003b0565b925050610100620004908c828d01620003b0565b9150509295985092959850929598565b6000620004af60268362000532565b9150620004bc8262000595565b604082019050919050565b6000620004d660208362000532565b9150620004e382620005e4565b602082019050919050565b600060208201905081810360008301526200050981620004a0565b9050919050565b600060208201905081810360008301526200052b81620004c7565b9050919050565b600082825260208201905092915050565b600062000550826200056b565b9050919050565b6000620005648262000543565b9050919050565b600073ffffffffffffffffffffffffffffffffffffffff82169050919050565b6000819050919050565b7f4f776e61626c653a206e6577206f776e657220697320746865207a65726f206160008201527f6464726573730000000000000000000000000000000000000000000000000000602082015250565b7f4f776e61626c653a2063616c6c6572206973206e6f7420746865206f776e6572600082015250565b620006188162000543565b81146200062457600080fd5b50565b620006328162000557565b81146200063e57600080fd5b50565b6200064c816200058b565b81146200065857600080fd5b50565b60805160601c60a05160601c60c05160e051610100516101205160601c61014051610160516101805161293c6200073e600039600081816108ca01528181610d860152610de90152600081816103fb0152610d2301526000818161056d0152610e6a0152600081816104c30152610ec80152600081816104490152818161122201526112d6015260008181610f1e015281816111c6015281816111ef015281816112430152611299015260008181610c16015261182c015260008181610425015261073c015260008181610719015281816109760152610ea6015261293c6000f3fe608060405234801561001057600080fd5b50600436106101585760003560e01c8063715018a6116100c3578063b55f1b701161007c578063b55f1b7014610335578063bd1bc72114610353578063d96a094a14610371578063e3b9b22d1461038d578063e6df3381146103ab578063f2fde38b146103dd57610158565b8063715018a6146102ad578063762a9f28146102b75780637f649783146102d55780638456cb59146102f15780638da5cb5b146102fb578063b002749f1461031957610158565b80633f4ba83a116101155780633f4ba83a14610223578063418128291461022d5780634e71d92d1461024b578063548db174146102555780635c975abb14610271578063714eb7461461028f57610158565b806320ab845e1461015d57806322c13fd51461017b5780632622c811146101995780633210203b146101b75780633af32abf146101d55780633ca5b23414610205575b600080fd5b6101656103f9565b6040516101729190612189565b60405180910390f35b61018361041d565b6040516101909190612189565b60405180910390f35b6101a1610423565b6040516101ae9190611f8c565b60405180910390f35b6101bf610447565b6040516101cc9190612189565b60405180910390f35b6101ef60048036038101906101ea9190611bad565b61046b565b6040516101fc9190611f71565b60405180910390f35b61020d6104c1565b60405161021a9190611f8c565b60405180910390f35b61022b6104e5565b005b61023561056b565b6040516102429190612189565b60405180910390f35b61025361058f565b005b61026f600480360381019061026a9190611bd6565b6107e2565b005b6102796108b2565b6040516102869190611f71565b60405180910390f35b6102976108c8565b6040516102a49190612189565b60405180910390f35b6102b56108ec565b005b6102bf610974565b6040516102cc9190611f1f565b60405180910390f35b6102ef60048036038101906102ea9190611bd6565b610998565b005b6102f9610a68565b005b610303610aee565b6040516103109190611f1f565b60405180910390f35b610333600480360381019061032e9190611c40565b610b17565b005b61033d610c14565b60405161034a9190612189565b60405180910390f35b61035b610c38565b6040516103689190612189565b60405180910390f35b61038b60048036038101906103869190611c40565b610c3f565b005b610395610f1c565b6040516103a29190612189565b60405180910390f35b6103c560048036038101906103c09190611bad565b610f40565b6040516103d4939291906121a4565b60405180910390f35b6103f760048036038101906103f29190611bad565b610f6a565b005b7f000000000000000000000000000000000000000000000000000000000000000081565b60025481565b7f000000000000000000000000000000000000000000000000000000000000000081565b7f000000000000000000000000000000000000000000000000000000000000000081565b6000600160008373ffffffffffffffffffffffffffffffffffffffff1673ffffffffffffffffffffffffffffffffffffffff16815260200190815260200160002060009054906101000a900460ff169050919050565b7f000000000000000000000000000000000000000000000000000000000000000081565b6104ed611062565b73ffffffffffffffffffffffffffffffffffffffff1661050b610aee565b73ffffffffffffffffffffffffffffffffffffffff1614610561576040517f08c379a0000000000000000000000000000000000000000000000000000000008152600401610558906120c9565b60405180910390fd5b61056961106a565b565b7f000000000000000000000000000000000000000000000000000000000000000081565b60006002541180156105a357506002544210155b6105e2576040517f08c379a00000000000000000000000000000000000000000000000000000000081526004016105d990611fe9565b60405180910390fd5b6000600360003373ffffffffffffffffffffffffffffffffffffffff1673ffffffffffffffffffffffffffffffffffffffff1681526020019081526020016000209050600081600101541161066c576040517f08c379a000000000000000000000000000000000000000000000000000000000815260040161066390612169565b60405180910390fd5b6000429050600060018360020154610684919061225e565b905060006106918361110b565b905060008290505b8181116107db5760006106d5866040518060600160405290816000820154815260200160018201548152602001600282015481525050836111c1565b90506000811180156106eb575060008660010154115b156107c7578086600101600082825461070491906123d3565b925050819055508186600201819055506107817f000000000000000000000000000000000000000000000000000000000000000033837f000000000000000000000000000000000000000000000000000000000000000073ffffffffffffffffffffffffffffffffffffffff16611373909392919063ffffffff16565b80823373ffffffffffffffffffffffffffffffffffffffff167f987d620f307ff6b94d58743cb7a7509f24071586a77759b77c2d4e29f75a2f9a60405160405180910390a45b5080806107d39061252a565b915050610699565b5050505050565b6107ea611062565b73ffffffffffffffffffffffffffffffffffffffff16610808610aee565b73ffffffffffffffffffffffffffffffffffffffff161461085e576040517f08c379a0000000000000000000000000000000000000000000000000000000008152600401610855906120c9565b60405180910390fd5b6108666108b2565b156108a6576040517f08c379a000000000000000000000000000000000000000000000000000000000815260040161089d90612069565b60405180910390fd5b6108af816113fc565b50565b60008060009054906101000a900460ff16905090565b7f000000000000000000000000000000000000000000000000000000000000000081565b6108f4611062565b73ffffffffffffffffffffffffffffffffffffffff16610912610aee565b73ffffffffffffffffffffffffffffffffffffffff1614610968576040517f08c379a000000000000000000000000000000000000000000000000000000000815260040161095f906120c9565b60405180910390fd5b61097260006114b7565b565b7f000000000000000000000000000000000000000000000000000000000000000081565b6109a0611062565b73ffffffffffffffffffffffffffffffffffffffff166109be610aee565b73ffffffffffffffffffffffffffffffffffffffff1614610a14576040517f08c379a0000000000000000000000000000000000000000000000000000000008152600401610a0b906120c9565b60405180910390fd5b610a1c6108b2565b15610a5c576040517f08c379a0000000000000000000000000000000000000000000000000000000008152600401610a5390612069565b60405180910390fd5b610a658161157c565b50565b610a70611062565b73ffffffffffffffffffffffffffffffffffffffff16610a8e610aee565b73ffffffffffffffffffffffffffffffffffffffff1614610ae4576040517f08c379a0000000000000000000000000000000000000000000000000000000008152600401610adb906120c9565b60405180910390fd5b610aec611636565b565b60008060019054906101000a900473ffffffffffffffffffffffffffffffffffffffff16905090565b610b1f611062565b73ffffffffffffffffffffffffffffffffffffffff16610b3d610aee565b73ffffffffffffffffffffffffffffffffffffffff1614610b93576040517f08c379a0000000000000000000000000000000000000000000000000000000008152600401610b8a906120c9565b60405180910390fd5b610b9b6108b2565b15610bdb576040517f08c379a0000000000000000000000000000000000000000000000000000000008152600401610bd290612069565b60405180910390fd5b610be4816116d8565b807fb324e62bd39f9056e9f60997dcccc55e4719b1f2e870503f98daf651b43dfee060405160405180910390a250565b7f000000000000000000000000000000000000000000000000000000000000000081565b62278d0081565b610c476108b2565b15610c87576040517f08c379a0000000000000000000000000000000000000000000000000000000008152600401610c7e90612069565b60405180910390fd5b60006002541480610c99575060025442105b610cd8576040517f08c379a0000000000000000000000000000000000000000000000000000000008152600401610ccf906120e9565b60405180910390fd5b33610ce28161046b565b610d21576040517f08c379a0000000000000000000000000000000000000000000000000000000008152600401610d1890612029565b60405180910390fd5b7f0000000000000000000000000000000000000000000000000000000000000000821015610d84576040517f08c379a0000000000000000000000000000000000000000000000000000000008152600401610d7b906120a9565b60405180910390fd5b7f0000000000000000000000000000000000000000000000000000000000000000821115610de7576040517f08c379a0000000000000000000000000000000000000000000000000000000008152600401610dde90612089565b60405180910390fd5b7f000000000000000000000000000000000000000000000000000000000000000082610e12336116e2565b610e1c91906122f2565b1115610e5d576040517f08c379a0000000000000000000000000000000000000000000000000000000008152600401610e5490612109565b60405180910390fd5b6000670de0b6b3a76400007f000000000000000000000000000000000000000000000000000000000000000084610e949190612379565b610e9e9190612348565b9050610f0d337f0000000000000000000000000000000000000000000000000000000000000000837f000000000000000000000000000000000000000000000000000000000000000073ffffffffffffffffffffffffffffffffffffffff16611373909392919063ffffffff16565b610f17338461172e565b505050565b7f000000000000000000000000000000000000000000000000000000000000000081565b60036020528060005260406000206000915090508060000154908060010154908060020154905083565b610f72611062565b73ffffffffffffffffffffffffffffffffffffffff16610f90610aee565b73ffffffffffffffffffffffffffffffffffffffff1614610fe6576040517f08c379a0000000000000000000000000000000000000000000000000000000008152600401610fdd906120c9565b60405180910390fd5b600073ffffffffffffffffffffffffffffffffffffffff168173ffffffffffffffffffffffffffffffffffffffff161415611056576040517f08c379a000000000000000000000000000000000000000000000000000000000815260040161104d90612009565b60405180910390fd5b61105f816114b7565b50565b600033905090565b6110726108b2565b6110b1576040517f08c379a00000000000000000000000000000000000000000000000000000000081526004016110a890611fc9565b60405180910390fd5b60008060006101000a81548160ff0219169083151502179055507f5db9ee0a495bf2e6ff9c91a7834c1ba4fdd244a5e8aa4e537bd38aeae4b073aa6110f4611062565b6040516111019190611f1f565b60405180910390a1565b60008060025411801561112057506002544210155b61115f576040517f08c379a000000000000000000000000000000000000000000000000000000000815260040161115690611fe9565b60405180910390fd5b60007fffffffffffffffffffffffffffffffffffffffffffffffffffffffffffffffff9050600060025490505b8381116111b757818061119e906124e1565b92505062278d00816111b091906122f2565b905061118c565b8192505050919050565b6000807f000000000000000000000000000000000000000000000000000000000000000011801561121257507f00000000000000000000000000000000000000000000000000000000000000008211155b15611220576000905061136d565b7f00000000000000000000000000000000000000000000000000000000000000007f000000000000000000000000000000000000000000000000000000000000000061126c91906122f2565b82111561127c576000905061136d565b60008214156112955761128e83611826565b905061136d565b60007f0000000000000000000000000000000000000000000000000000000000000000836112c391906123d3565b905060006112d085611826565b905060007f000000000000000000000000000000000000000000000000000000000000000082876000015161130591906123d3565b61130f9190612348565b9050600060018461132091906123d3565b8261132b9190612379565b8361133691906122f2565b9050600081886000015161134a91906123d3565b90508260026113599190612379565b811015611364578092505b82955050505050505b92915050565b6113f6846323b872dd60e01b85858560405160240161139493929190611f3a565b604051602081830303815290604052907bffffffffffffffffffffffffffffffffffffffffffffffffffffffff19166020820180517bffffffffffffffffffffffffffffffffffffffffffffffffffffffff838183161783525050505061186b565b50505050565b60005b81518110156114b357600060016000848481518110611447577f4e487b7100000000000000000000000000000000000000000000000000000000600052603260045260246000fd5b602002602001015173ffffffffffffffffffffffffffffffffffffffff1673ffffffffffffffffffffffffffffffffffffffff16815260200190815260200160002060006101000a81548160ff02191690831515021790555080806114ab9061252a565b9150506113ff565b5050565b60008060019054906101000a900473ffffffffffffffffffffffffffffffffffffffff16905081600060016101000a81548173ffffffffffffffffffffffffffffffffffffffff021916908373ffffffffffffffffffffffffffffffffffffffff1602179055508173ffffffffffffffffffffffffffffffffffffffff168173ffffffffffffffffffffffffffffffffffffffff167f8be0079c531659141344cd1fd0a4f28419497f9722a3daafe3b4186f6b6457e060405160405180910390a35050565b60005b81518110156116325760018060008484815181106115c6577f4e487b7100000000000000000000000000000000000000000000000000000000600052603260045260246000fd5b602002602001015173ffffffffffffffffffffffffffffffffffffffff1673ffffffffffffffffffffffffffffffffffffffff16815260200190815260200160002060006101000a81548160ff021916908315150217905550808061162a9061252a565b91505061157f565b5050565b61163e6108b2565b1561167e576040517f08c379a000000000000000000000000000000000000000000000000000000000815260040161167590612069565b60405180910390fd5b60016000806101000a81548160ff0219169083151502179055507f62e78cea01bee320cd4e420270b5ea74000d11b0c9f74754ebdbfc544b05a2586116c1611062565b6040516116ce9190611f1f565b60405180910390a1565b8060028190555050565b6000600360008373ffffffffffffffffffffffffffffffffffffffff1673ffffffffffffffffffffffffffffffffffffffff168152602001908152602001600020600001549050919050565b60006002541480611740575060025442105b61177f576040517f08c379a0000000000000000000000000000000000000000000000000000000008152600401611776906120e9565b60405180910390fd5b6000600360008473ffffffffffffffffffffffffffffffffffffffff1673ffffffffffffffffffffffffffffffffffffffff1681526020019081526020016000209050818160000160008282546117d691906122f2565b92505081905550818160010160008282546117f191906122f2565b925050819055507fffffffffffffffffffffffffffffffffffffffffffffffffffffffffffffffff8160020181905550505050565b600060647f0000000000000000000000000000000000000000000000000000000000000000836000015161185a9190612379565b6118649190612348565b9050919050565b60006118cd826040518060400160405280602081526020017f5361666545524332303a206c6f772d6c6576656c2063616c6c206661696c65648152508573ffffffffffffffffffffffffffffffffffffffff166119329092919063ffffffff16565b905060008151111561192d57808060200190518101906118ed9190611c17565b61192c576040517f08c379a000000000000000000000000000000000000000000000000000000000815260040161192390612149565b60405180910390fd5b5b505050565b6060611941848460008561194a565b90509392505050565b60608247101561198f576040517f08c379a000000000000000000000000000000000000000000000000000000000815260040161198690612049565b60405180910390fd5b61199885611a5e565b6119d7576040517f08c379a00000000000000000000000000000000000000000000000000000000081526004016119ce90612129565b60405180910390fd5b6000808673ffffffffffffffffffffffffffffffffffffffff168587604051611a009190611f08565b60006040518083038185875af1925050503d8060008114611a3d576040519150601f19603f3d011682016040523d82523d6000602084013e611a42565b606091505b5091509150611a52828286611a71565b92505050949350505050565b600080823b905060008111915050919050565b60608315611a8157829050611ad1565b600083511115611a945782518084602001fd5b816040517f08c379a0000000000000000000000000000000000000000000000000000000008152600401611ac89190611fa7565b60405180910390fd5b9392505050565b6000611aeb611ae684612200565b6121db565b90508083825260208201905082856020860282011115611b0a57600080fd5b60005b85811015611b3a5781611b208882611b44565b845260208401935060208301925050600181019050611b0d565b5050509392505050565b600081359050611b53816128c1565b92915050565b600082601f830112611b6a57600080fd5b8135611b7a848260208601611ad8565b91505092915050565b600081519050611b92816128d8565b92915050565b600081359050611ba7816128ef565b92915050565b600060208284031215611bbf57600080fd5b6000611bcd84828501611b44565b91505092915050565b600060208284031215611be857600080fd5b600082013567ffffffffffffffff811115611c0257600080fd5b611c0e84828501611b59565b91505092915050565b600060208284031215611c2957600080fd5b6000611c3784828501611b83565b91505092915050565b600060208284031215611c5257600080fd5b6000611c6084828501611b98565b91505092915050565b611c7281612407565b82525050565b611c8181612419565b82525050565b6000611c928261222c565b611c9c8185612242565b9350611cac81856020860161247d565b80840191505092915050565b611cc181612459565b82525050565b611cd081612425565b82525050565b6000611ce182612237565b611ceb818561224d565b9350611cfb81856020860161247d565b611d0481612600565b840191505092915050565b6000611d1c60148361224d565b9150611d2782612611565b602082019050919050565b6000611d3f60168361224d565b9150611d4a8261263a565b602082019050919050565b6000611d6260268361224d565b9150611d6d82612663565b604082019050919050565b6000611d85601a8361224d565b9150611d90826126b2565b602082019050919050565b6000611da860268361224d565b9150611db3826126db565b604082019050919050565b6000611dcb60108361224d565b9150611dd68261272a565b602082019050919050565b6000611dee601d8361224d565b9150611df982612753565b602082019050919050565b6000611e11601a8361224d565b9150611e1c8261277c565b602082019050919050565b6000611e3460208361224d565b9150611e3f826127a5565b602082019050919050565b6000611e5760158361224d565b9150611e62826127ce565b602082019050919050565b6000611e7a601c8361224d565b9150611e85826127f7565b602082019050919050565b6000611e9d601d8361224d565b9150611ea882612820565b602082019050919050565b6000611ec0602a8361224d565b9150611ecb82612849565b604082019050919050565b6000611ee360118361224d565b9150611eee82612898565b602082019050919050565b611f028161244f565b82525050565b6000611f148284611c87565b915081905092915050565b6000602082019050611f346000830184611c69565b92915050565b6000606082019050611f4f6000830186611c69565b611f5c6020830185611c69565b611f696040830184611ef9565b949350505050565b6000602082019050611f866000830184611c78565b92915050565b6000602082019050611fa16000830184611cb8565b92915050565b60006020820190508181036000830152611fc18184611cd6565b905092915050565b60006020820190508181036000830152611fe281611d0f565b9050919050565b6000602082019050818103600083015261200281611d32565b9050919050565b6000602082019050818103600083015261202281611d55565b9050919050565b6000602082019050818103600083015261204281611d78565b9050919050565b6000602082019050818103600083015261206281611d9b565b9050919050565b6000602082019050818103600083015261208281611dbe565b9050919050565b600060208201905081810360008301526120a281611de1565b9050919050565b600060208201905081810360008301526120c281611e04565b9050919050565b600060208201905081810360008301526120e281611e27565b9050919050565b6000602082019050818103600083015261210281611e4a565b9050919050565b6000602082019050818103600083015261212281611e6d565b9050919050565b6000602082019050818103600083015261214281611e90565b9050919050565b6000602082019050818103600083015261216281611eb3565b9050919050565b6000602082019050818103600083015261218281611ed6565b9050919050565b600060208201905061219e6000830184611ef9565b92915050565b60006060820190506121b96000830186611ef9565b6121c66020830185611ef9565b6121d36040830184611cc7565b949350505050565b60006121e56121f6565b90506121f182826124b0565b919050565b6000604051905090565b600067ffffffffffffffff82111561221b5761221a6125d1565b5b602082029050602081019050919050565b600081519050919050565b600081519050919050565b600081905092915050565b600082825260208201905092915050565b600061226982612425565b915061227483612425565b9250817f7fffffffffffffffffffffffffffffffffffffffffffffffffffffffffffffff038313600083121516156122af576122ae612573565b5b817f80000000000000000000000000000000000000000000000000000000000000000383126000831216156122e7576122e6612573565b5b828201905092915050565b60006122fd8261244f565b91506123088361244f565b9250827fffffffffffffffffffffffffffffffffffffffffffffffffffffffffffffffff0382111561233d5761233c612573565b5b828201905092915050565b60006123538261244f565b915061235e8361244f565b92508261236e5761236d6125a2565b5b828204905092915050565b60006123848261244f565b915061238f8361244f565b9250817fffffffffffffffffffffffffffffffffffffffffffffffffffffffffffffffff04831182151516156123c8576123c7612573565b5b828202905092915050565b60006123de8261244f565b91506123e98361244f565b9250828210156123fc576123fb612573565b5b828203905092915050565b60006124128261242f565b9050919050565b60008115159050919050565b6000819050919050565b600073ffffffffffffffffffffffffffffffffffffffff82169050919050565b6000819050919050565b60006124648261246b565b9050919050565b60006124768261242f565b9050919050565b60005b8381101561249b578082015181840152602081019050612480565b838111156124aa576000848401525b50505050565b6124b982612600565b810181811067ffffffffffffffff821117156124d8576124d76125d1565b5b80604052505050565b60006124ec82612425565b91507f7fffffffffffffffffffffffffffffffffffffffffffffffffffffffffffffff82141561251f5761251e612573565b5b600182019050919050565b60006125358261244f565b91507fffffffffffffffffffffffffffffffffffffffffffffffffffffffffffffffff82141561256857612567612573565b5b600182019050919050565b7f4e487b7100000000000000000000000000000000000000000000000000000000600052601160045260246000fd5b7f4e487b7100000000000000000000000000000000000000000000000000000000600052601260045260246000fd5b7f4e487b7100000000000000000000000000000000000000000000000000000000600052604160045260246000fd5b6000601f19601f8301169050919050565b7f5061757361626c653a206e6f7420706175736564000000000000000000000000600082015250565b7f556e617661696c61626c65206265666f72652049474f00000000000000000000600082015250565b7f4f776e61626c653a206e6577206f776e657220697320746865207a65726f206160008201527f6464726573730000000000000000000000000000000000000000000000000000602082015250565b7f57686974656c6973743a206e6f742077686974656c6973746564000000000000600082015250565b7f416464726573733a20696e73756666696369656e742062616c616e636520666f60008201527f722063616c6c0000000000000000000000000000000000000000000000000000602082015250565b7f5061757361626c653a2070617573656400000000000000000000000000000000600082015250565b7f53616c653a20616d6f756e742067726561746572207468616e206d6178000000600082015250565b7f53616c653a20616d6f756e74206c657373207468616e206d696e000000000000600082015250565b7f4f776e61626c653a2063616c6c6572206973206e6f7420746865206f776e6572600082015250565b7f556e617661696c61626c652061667465722049474f0000000000000000000000600082015250565b7f53616c653a20746f74616c2067726561746572207468616e206d617800000000600082015250565b7f416464726573733a2063616c6c20746f206e6f6e2d636f6e7472616374000000600082015250565b7f5361666545524332303a204552433230206f7065726174696f6e20646964206e60008201527f6f74207375636365656400000000000000000000000000000000000000000000602082015250565b7f4e6f7420656e6f75676820746f6b656e73000000000000000000000000000000600082015250565b6128ca81612407565b81146128d557600080fd5b50565b6128e181612419565b81146128ec57600080fd5b50565b6128f88161244f565b811461290357600080fd5b5056fea2646970667358221220e2576573e030981e422ece574d2a2b219b53931194a5e0f8e3c335b19b997a3864736f6c63430008040033",
  "linkReferences": {},
  "deployedLinkReferences": {}
}