{
  "_format": "hh-sol-artifact-1",
  "contractName": "WhitelistSale",
  "sourceName": "contracts/WhitelistSale.sol",
  "abi": [
    {
      "inputs": [
        {
          "internalType": "address",
          "name": "_mhtOwner",
          "type": "address"
        },
        {
          "internalType": "contract IERC20",
          "name": "_mht",
          "type": "address"
        },
        {
          "internalType": "contract IERC20",
          "name": "_busd",
          "type": "address"
        },
        {
          "internalType": "uint256",
          "name": "_mhtOnSale",
          "type": "uint256"
        },
        {
          "internalType": "uint256",
          "name": "_mhtToBusd",
          "type": "uint256"
        },
        {
          "internalType": "uint256",
          "name": "_minMhtAmount",
          "type": "uint256"
        },
        {
          "internalType": "uint256",
          "name": "_maxMhtAmount",
          "type": "uint256"
        },
        {
          "internalType": "uint256",
          "name": "_unlockAtIGOPercent",
          "type": "uint256"
        },
        {
          "internalType": "uint256",
          "name": "_cliffMonths",
          "type": "uint256"
        },
        {
          "internalType": "uint256",
          "name": "_vestingPeriodMonths",
          "type": "uint256"
        }
      ],
      "stateMutability": "nonpayable",
      "type": "constructor"
    },
    {
      "anonymous": false,
      "inputs": [
        {
          "indexed": false,
          "internalType": "address",
          "name": "wallet",
          "type": "address"
        }
      ],
      "name": "AddedToWhitelist",
      "type": "event"
    },
    {
      "anonymous": false,
      "inputs": [
        {
          "indexed": true,
          "internalType": "address",
          "name": "wallet",
          "type": "address"
        },
        {
          "indexed": true,
          "internalType": "uint256",
          "name": "monthIndex",
          "type": "uint256"
        },
        {
          "indexed": true,
          "internalType": "uint256",
          "name": "value",
          "type": "uint256"
        }
      ],
      "name": "Claimed",
      "type": "event"
    },
    {
      "anonymous": false,
      "inputs": [
        {
          "indexed": true,
          "internalType": "uint256",
          "name": "timestamp",
          "type": "uint256"
        }
      ],
      "name": "IGO",
      "type": "event"
    },
    {
      "anonymous": false,
      "inputs": [
        {
          "indexed": true,
          "internalType": "address",
          "name": "previousOwner",
          "type": "address"
        },
        {
          "indexed": true,
          "internalType": "address",
          "name": "newOwner",
          "type": "address"
        }
      ],
      "name": "OwnershipTransferred",
      "type": "event"
    },
    {
      "anonymous": false,
      "inputs": [
        {
          "indexed": false,
          "internalType": "address",
          "name": "account",
          "type": "address"
        }
      ],
      "name": "Paused",
      "type": "event"
    },
    {
      "anonymous": false,
      "inputs": [
        {
          "indexed": false,
          "internalType": "address",
          "name": "wallet",
          "type": "address"
        }
      ],
      "name": "RemovedFromWhitelist",
      "type": "event"
    },
    {
      "anonymous": false,
      "inputs": [
        {
          "indexed": false,
          "internalType": "address",
          "name": "account",
          "type": "address"
        }
      ],
      "name": "Unpaused",
      "type": "event"
    },
    {
      "inputs": [],
      "name": "THIRTY_DAYS_IN_SECONDS",
      "outputs": [
        {
          "internalType": "uint256",
          "name": "",
          "type": "uint256"
        }
      ],
      "stateMutability": "view",
      "type": "function"
    },
    {
      "inputs": [
        {
          "internalType": "address[]",
          "name": "_buyers",
          "type": "address[]"
        }
      ],
      "name": "addToWhitelist",
      "outputs": [],
      "stateMutability": "nonpayable",
      "type": "function"
    },
    {
      "inputs": [
        {
          "internalType": "address",
          "name": "",
          "type": "address"
        }
      ],
      "name": "addressToUserInfo",
      "outputs": [
        {
          "internalType": "uint256",
          "name": "totalTokens",
          "type": "uint256"
        },
        {
          "internalType": "uint256",
          "name": "remainingTokens",
          "type": "uint256"
        },
        {
          "internalType": "int256",
          "name": "lastClaimMonthIndex",
          "type": "int256"
        }
      ],
      "stateMutability": "view",
      "type": "function"
    },
    {
      "inputs": [],
      "name": "busd",
      "outputs": [
        {
          "internalType": "contract IERC20",
          "name": "",
          "type": "address"
        }
      ],
      "stateMutability": "view",
      "type": "function"
    },
    {
      "inputs": [
        {
          "internalType": "uint256",
          "name": "_mhtAmount",
          "type": "uint256"
        }
      ],
      "name": "buy",
      "outputs": [],
      "stateMutability": "nonpayable",
      "type": "function"
    },
    {
      "inputs": [],
      "name": "claim",
      "outputs": [],
      "stateMutability": "nonpayable",
      "type": "function"
    },
    {
      "inputs": [],
      "name": "cliffMonths",
      "outputs": [
        {
          "internalType": "uint256",
          "name": "",
          "type": "uint256"
        }
      ],
      "stateMutability": "view",
      "type": "function"
    },
    {
      "inputs": [],
      "name": "igoTimestamp",
      "outputs": [
        {
          "internalType": "uint256",
          "name": "",
          "type": "uint256"
        }
      ],
      "stateMutability": "view",
      "type": "function"
    },
    {
      "inputs": [
        {
          "internalType": "address",
          "name": "wallet",
          "type": "address"
        }
      ],
      "name": "isWhitelisted",
      "outputs": [
        {
          "internalType": "bool",
          "name": "",
          "type": "bool"
        }
      ],
      "stateMutability": "view",
      "type": "function"
    },
    {
      "inputs": [],
      "name": "maxMhtAmount",
      "outputs": [
        {
          "internalType": "uint256",
          "name": "",
          "type": "uint256"
        }
      ],
      "stateMutability": "view",
      "type": "function"
    },
    {
      "inputs": [],
      "name": "mht",
      "outputs": [
        {
          "internalType": "contract IERC20",
          "name": "",
          "type": "address"
        }
      ],
      "stateMutability": "view",
      "type": "function"
    },
    {
      "inputs": [],
      "name": "mhtOnSale",
      "outputs": [
        {
          "internalType": "uint256",
          "name": "",
          "type": "uint256"
        }
      ],
      "stateMutability": "view",
      "type": "function"
    },
    {
      "inputs": [],
      "name": "mhtOwner",
      "outputs": [
        {
          "internalType": "address",
          "name": "",
          "type": "address"
        }
      ],
      "stateMutability": "view",
      "type": "function"
    },
    {
      "inputs": [],
      "name": "mhtSold",
      "outputs": [
        {
          "internalType": "uint256",
          "name": "",
          "type": "uint256"
        }
      ],
      "stateMutability": "view",
      "type": "function"
    },
    {
      "inputs": [],
      "name": "mhtToBusd",
      "outputs": [
        {
          "internalType": "uint256",
          "name": "",
          "type": "uint256"
        }
      ],
      "stateMutability": "view",
      "type": "function"
    },
    {
      "inputs": [],
      "name": "minMhtAmount",
      "outputs": [
        {
          "internalType": "uint256",
          "name": "",
          "type": "uint256"
        }
      ],
      "stateMutability": "view",
      "type": "function"
    },
    {
      "inputs": [],
      "name": "owner",
      "outputs": [
        {
          "internalType": "address",
          "name": "",
          "type": "address"
        }
      ],
      "stateMutability": "view",
      "type": "function"
    },
    {
      "inputs": [],
      "name": "pause",
      "outputs": [],
      "stateMutability": "nonpayable",
      "type": "function"
    },
    {
      "inputs": [],
      "name": "paused",
      "outputs": [
        {
          "internalType": "bool",
          "name": "",
          "type": "bool"
        }
      ],
      "stateMutability": "view",
      "type": "function"
    },
    {
      "inputs": [
        {
          "internalType": "address[]",
          "name": "_buyers",
          "type": "address[]"
        }
      ],
      "name": "removeFromWhitelist",
      "outputs": [],
      "stateMutability": "nonpayable",
      "type": "function"
    },
    {
      "inputs": [],
      "name": "renounceOwnership",
      "outputs": [],
      "stateMutability": "nonpayable",
      "type": "function"
    },
    {
      "inputs": [
        {
          "internalType": "uint256",
          "name": "_igoTimestamp",
          "type": "uint256"
        }
      ],
      "name": "setIgoTimestamp",
      "outputs": [],
      "stateMutability": "nonpayable",
      "type": "function"
    },
    {
      "inputs": [
        {
          "internalType": "address",
          "name": "newOwner",
          "type": "address"
        }
      ],
      "name": "transferOwnership",
      "outputs": [],
      "stateMutability": "nonpayable",
      "type": "function"
    },
    {
      "inputs": [],
      "name": "unlockAtIGOPercent",
      "outputs": [
        {
          "internalType": "uint256",
          "name": "",
          "type": "uint256"
        }
      ],
      "stateMutability": "view",
      "type": "function"
    },
    {
      "inputs": [],
      "name": "unpause",
      "outputs": [],
      "stateMutability": "nonpayable",
      "type": "function"
    },
    {
      "inputs": [],
      "name": "vestingPeriodMonths",
      "outputs": [
        {
          "internalType": "uint256",
          "name": "",
          "type": "uint256"
        }
      ],
      "stateMutability": "view",
      "type": "function"
    }
  ],
  "bytecode": "0x6101c06040523480156200001257600080fd5b506040516200369438038062003694833981810160405281019062000038919062000571565b898984848460008060006101000a81548160ff021916908315150217905550620000776200006b6200032060201b60201c565b6200032860201b60201c565b600073ffffffffffffffffffffffffffffffffffffffff168573ffffffffffffffffffffffffffffffffffffffff161415620000ea576040517f08c379a0000000000000000000000000000000000000000000000000000000008152600401620000e190620007d3565b60405180910390fd5b600073ffffffffffffffffffffffffffffffffffffffff168473ffffffffffffffffffffffffffffffffffffffff1614156200015d576040517f08c379a000000000000000000000000000000000000000000000000000000000815260040162000154906200076d565b60405180910390fd5b6064831115620001a4576040517f08c379a00000000000000000000000000000000000000000000000000000000081526004016200019b90620007f5565b60405180910390fd5b8473ffffffffffffffffffffffffffffffffffffffff1660808173ffffffffffffffffffffffffffffffffffffffff1660601b815250508373ffffffffffffffffffffffffffffffffffffffff1660a08173ffffffffffffffffffffffffffffffffffffffff1660601b815250508260c081815250508160e081815250508061010081815250505050505050600073ffffffffffffffffffffffffffffffffffffffff168873ffffffffffffffffffffffffffffffffffffffff161415620002a3576040517f08c379a00000000000000000000000000000000000000000000000000000000081526004016200029a90620007b1565b60405180910390fd5b620002b48a620003ed60201b60201c565b8773ffffffffffffffffffffffffffffffffffffffff166101208173ffffffffffffffffffffffffffffffffffffffff1660601b81525050866101408181525050856101608181525050846101808181525050836101a0818152505050505050505050505050620009e4565b600033905090565b60008060019054906101000a900473ffffffffffffffffffffffffffffffffffffffff16905081600060016101000a81548173ffffffffffffffffffffffffffffffffffffffff021916908373ffffffffffffffffffffffffffffffffffffffff1602179055508173ffffffffffffffffffffffffffffffffffffffff168173ffffffffffffffffffffffffffffffffffffffff167f8be0079c531659141344cd1fd0a4f28419497f9722a3daafe3b4186f6b6457e060405160405180910390a35050565b620003fd6200032060201b60201c565b73ffffffffffffffffffffffffffffffffffffffff16620004236200050360201b60201c565b73ffffffffffffffffffffffffffffffffffffffff16146200047c576040517f08c379a000000000000000000000000000000000000000000000000000000000815260040162000473906200078f565b60405180910390fd5b600073ffffffffffffffffffffffffffffffffffffffff168173ffffffffffffffffffffffffffffffffffffffff161415620004ef576040517f08c379a0000000000000000000000000000000000000000000000000000000008152600401620004e6906200074b565b60405180910390fd5b62000500816200032860201b60201c565b50565b60008060019054906101000a900473ffffffffffffffffffffffffffffffffffffffff16905090565b6000815190506200053d8162000996565b92915050565b6000815190506200055481620009b0565b92915050565b6000815190506200056b81620009ca565b92915050565b6000806000806000806000806000806101408b8d0312156200059257600080fd5b6000620005a28d828e016200052c565b9a50506020620005b58d828e0162000543565b9950506040620005c88d828e0162000543565b9850506060620005db8d828e016200055a565b9750506080620005ee8d828e016200055a565b96505060a0620006018d828e016200055a565b95505060c0620006148d828e016200055a565b94505060e0620006278d828e016200055a565b9350506101006200063b8d828e016200055a565b9250506101206200064f8d828e016200055a565b9150509295989b9194979a5092959850565b60006200067060268362000817565b91506200067d826200087a565b604082019050919050565b60006200069760088362000817565b9150620006a482620008c9565b602082019050919050565b6000620006be60208362000817565b9150620006cb82620008f2565b602082019050919050565b6000620006e560098362000817565b9150620006f2826200091b565b602082019050919050565b60006200070c600d8362000817565b9150620007198262000944565b602082019050919050565b600062000733601f8362000817565b915062000740826200096d565b602082019050919050565b60006020820190508181036000830152620007668162000661565b9050919050565b60006020820190508181036000830152620007888162000688565b9050919050565b60006020820190508181036000830152620007aa81620006af565b9050919050565b60006020820190508181036000830152620007cc81620006d6565b9050919050565b60006020820190508181036000830152620007ee81620006fd565b9050919050565b60006020820190508181036000830152620008108162000724565b9050919050565b600082825260208201905092915050565b6000620008358262000850565b9050919050565b6000620008498262000828565b9050919050565b600073ffffffffffffffffffffffffffffffffffffffff82169050919050565b6000819050919050565b7f4f776e61626c653a206e6577206f776e657220697320746865207a65726f206160008201527f6464726573730000000000000000000000000000000000000000000000000000602082015250565b7f7a65726f206d6874000000000000000000000000000000000000000000000000600082015250565b7f4f776e61626c653a2063616c6c6572206973206e6f7420746865206f776e6572600082015250565b7f7a65726f20627573640000000000000000000000000000000000000000000000600082015250565b7f7a65726f206d68744f776e657200000000000000000000000000000000000000600082015250565b7f756e6c6f636b417449474f50657263656e74206d757374206c74652031303000600082015250565b620009a18162000828565b8114620009ad57600080fd5b50565b620009bb816200083c565b8114620009c757600080fd5b50565b620009d58162000870565b8114620009e157600080fd5b50565b60805160601c60a05160601c60c05160e051610100516101205160601c6101405161016051610180516101a051612bbb62000ad96000396000818161094201528181610e220152610e850152600081816104730152610dbf0152600081816105e50152610f8f0152600081816109ee0152610efb01526000818161053b0152610fed0152600081816104c10152818161134701526113fb015260008181611043015281816112eb015281816113140152818161136801526113be015260008181610cb20152611a3f01526000818161049d01526107b401526000818161079101528181610a120152610fcb0152612bbb6000f3fe608060405234801561001057600080fd5b506004361061018e5760003560e01c8063715018a6116100de578063b002749f11610097578063d96a094a11610071578063d96a094a146103e3578063e3b9b22d146103ff578063e6df33811461041d578063f2fde38b1461044f5761018e565b8063b002749f1461038b578063b55f1b70146103a7578063bd1bc721146103c55761018e565b8063715018a61461030157806373e0f48a1461030b578063762a9f28146103295780637f649783146103475780638456cb59146103635780638da5cb5b1461036d5761018e565b80633ca5b2341161014b5780634e71d92d116101255780634e71d92d1461029f578063548db174146102a95780635c975abb146102c5578063714eb746146102e35761018e565b80633ca5b234146102595780633f4ba83a1461027757806341812829146102815761018e565b806309381fa11461019357806320ab845e146101b157806322c13fd5146101cf5780632622c811146101ed5780633210203b1461020b5780633af32abf14610229575b600080fd5b61019b61046b565b6040516101a891906123df565b60405180910390f35b6101b9610471565b6040516101c691906123df565b60405180910390f35b6101d7610495565b6040516101e491906123df565b60405180910390f35b6101f561049b565b60405161020291906121c2565b60405180910390f35b6102136104bf565b60405161022091906123df565b60405180910390f35b610243600480360381019061023e9190611dc0565b6104e3565b60405161025091906121a7565b60405180910390f35b610261610539565b60405161026e91906121c2565b60405180910390f35b61027f61055d565b005b6102896105e3565b60405161029691906123df565b60405180910390f35b6102a7610607565b005b6102c360048036038101906102be9190611de9565b61085a565b005b6102cd61092a565b6040516102da91906121a7565b60405180910390f35b6102eb610940565b6040516102f891906123df565b60405180910390f35b610309610964565b005b6103136109ec565b60405161032091906123df565b60405180910390f35b610331610a10565b60405161033e9190612155565b60405180910390f35b610361600480360381019061035c9190611de9565b610a34565b005b61036b610b04565b005b610375610b8a565b6040516103829190612155565b60405180910390f35b6103a560048036038101906103a09190611e53565b610bb3565b005b6103af610cb0565b6040516103bc91906123df565b60405180910390f35b6103cd610cd4565b6040516103da91906123df565b60405180910390f35b6103fd60048036038101906103f89190611e53565b610cdb565b005b610407611041565b60405161041491906123df565b60405180910390f35b61043760048036038101906104329190611dc0565b611065565b604051610446939291906123fa565b60405180910390f35b61046960048036038101906104649190611dc0565b61108f565b005b60045481565b7f000000000000000000000000000000000000000000000000000000000000000081565b60025481565b7f000000000000000000000000000000000000000000000000000000000000000081565b7f000000000000000000000000000000000000000000000000000000000000000081565b6000600160008373ffffffffffffffffffffffffffffffffffffffff1673ffffffffffffffffffffffffffffffffffffffff16815260200190815260200160002060009054906101000a900460ff169050919050565b7f000000000000000000000000000000000000000000000000000000000000000081565b610565611187565b73ffffffffffffffffffffffffffffffffffffffff16610583610b8a565b73ffffffffffffffffffffffffffffffffffffffff16146105d9576040517f08c379a00000000000000000000000000000000000000000000000000000000081526004016105d09061231f565b60405180910390fd5b6105e161118f565b565b7f000000000000000000000000000000000000000000000000000000000000000081565b600060025411801561061b57506002544210155b61065a576040517f08c379a00000000000000000000000000000000000000000000000000000000081526004016106519061221f565b60405180910390fd5b6000600360003373ffffffffffffffffffffffffffffffffffffffff1673ffffffffffffffffffffffffffffffffffffffff168152602001908152602001600020905060008160010154116106e4576040517f08c379a00000000000000000000000000000000000000000000000000000000081526004016106db906123bf565b60405180910390fd5b60004290506000600183600201546106fc91906124b4565b9050600061070983611230565b905060008290505b81811161085357600061074d866040518060600160405290816000820154815260200160018201548152602001600282015481525050836112e6565b9050600081118015610763575060008660010154115b1561083f578086600101600082825461077c9190612629565b925050819055508186600201819055506107f97f000000000000000000000000000000000000000000000000000000000000000033837f000000000000000000000000000000000000000000000000000000000000000073ffffffffffffffffffffffffffffffffffffffff16611498909392919063ffffffff16565b80823373ffffffffffffffffffffffffffffffffffffffff167f987d620f307ff6b94d58743cb7a7509f24071586a77759b77c2d4e29f75a2f9a60405160405180910390a45b50808061084b90612780565b915050610711565b5050505050565b610862611187565b73ffffffffffffffffffffffffffffffffffffffff16610880610b8a565b73ffffffffffffffffffffffffffffffffffffffff16146108d6576040517f08c379a00000000000000000000000000000000000000000000000000000000081526004016108cd9061231f565b60405180910390fd5b6108de61092a565b1561091e576040517f08c379a0000000000000000000000000000000000000000000000000000000008152600401610915906122bf565b60405180910390fd5b61092781611521565b50565b60008060009054906101000a900460ff16905090565b7f000000000000000000000000000000000000000000000000000000000000000081565b61096c611187565b73ffffffffffffffffffffffffffffffffffffffff1661098a610b8a565b73ffffffffffffffffffffffffffffffffffffffff16146109e0576040517f08c379a00000000000000000000000000000000000000000000000000000000081526004016109d79061231f565b60405180910390fd5b6109ea6000611653565b565b7f000000000000000000000000000000000000000000000000000000000000000081565b7f000000000000000000000000000000000000000000000000000000000000000081565b610a3c611187565b73ffffffffffffffffffffffffffffffffffffffff16610a5a610b8a565b73ffffffffffffffffffffffffffffffffffffffff1614610ab0576040517f08c379a0000000000000000000000000000000000000000000000000000000008152600401610aa79061231f565b60405180910390fd5b610ab861092a565b15610af8576040517f08c379a0000000000000000000000000000000000000000000000000000000008152600401610aef906122bf565b60405180910390fd5b610b0181611718565b50565b610b0c611187565b73ffffffffffffffffffffffffffffffffffffffff16610b2a610b8a565b73ffffffffffffffffffffffffffffffffffffffff1614610b80576040517f08c379a0000000000000000000000000000000000000000000000000000000008152600401610b779061231f565b60405180910390fd5b610b88611849565b565b60008060019054906101000a900473ffffffffffffffffffffffffffffffffffffffff16905090565b610bbb611187565b73ffffffffffffffffffffffffffffffffffffffff16610bd9610b8a565b73ffffffffffffffffffffffffffffffffffffffff1614610c2f576040517f08c379a0000000000000000000000000000000000000000000000000000000008152600401610c269061231f565b60405180910390fd5b610c3761092a565b15610c77576040517f08c379a0000000000000000000000000000000000000000000000000000000008152600401610c6e906122bf565b60405180910390fd5b610c80816118eb565b807fb324e62bd39f9056e9f60997dcccc55e4719b1f2e870503f98daf651b43dfee060405160405180910390a250565b7f000000000000000000000000000000000000000000000000000000000000000081565b62278d0081565b610ce361092a565b15610d23576040517f08c379a0000000000000000000000000000000000000000000000000000000008152600401610d1a906122bf565b60405180910390fd5b60006002541480610d35575060025442105b610d74576040517f08c379a0000000000000000000000000000000000000000000000000000000008152600401610d6b9061233f565b60405180910390fd5b33610d7e816104e3565b610dbd576040517f08c379a0000000000000000000000000000000000000000000000000000000008152600401610db49061227f565b60405180910390fd5b7f0000000000000000000000000000000000000000000000000000000000000000821015610e20576040517f08c379a0000000000000000000000000000000000000000000000000000000008152600401610e17906122ff565b60405180910390fd5b7f0000000000000000000000000000000000000000000000000000000000000000821115610e83576040517f08c379a0000000000000000000000000000000000000000000000000000000008152600401610e7a906122df565b60405180910390fd5b7f000000000000000000000000000000000000000000000000000000000000000082610eae336118f5565b610eb89190612548565b1115610ef9576040517f08c379a0000000000000000000000000000000000000000000000000000000008152600401610ef09061235f565b60405180910390fd5b7f000000000000000000000000000000000000000000000000000000000000000082600454610f289190612548565b1115610f69576040517f08c379a0000000000000000000000000000000000000000000000000000000008152600401610f609061225f565b60405180910390fd5b8160046000828254610f7b9190612548565b925050819055506000670de0b6b3a76400007f000000000000000000000000000000000000000000000000000000000000000084610fb991906125cf565b610fc3919061259e565b9050611032337f0000000000000000000000000000000000000000000000000000000000000000837f000000000000000000000000000000000000000000000000000000000000000073ffffffffffffffffffffffffffffffffffffffff16611498909392919063ffffffff16565b61103c3384611941565b505050565b7f000000000000000000000000000000000000000000000000000000000000000081565b60036020528060005260406000206000915090508060000154908060010154908060020154905083565b611097611187565b73ffffffffffffffffffffffffffffffffffffffff166110b5610b8a565b73ffffffffffffffffffffffffffffffffffffffff161461110b576040517f08c379a00000000000000000000000000000000000000000000000000000000081526004016111029061231f565b60405180910390fd5b600073ffffffffffffffffffffffffffffffffffffffff168173ffffffffffffffffffffffffffffffffffffffff16141561117b576040517f08c379a00000000000000000000000000000000000000000000000000000000081526004016111729061223f565b60405180910390fd5b61118481611653565b50565b600033905090565b61119761092a565b6111d6576040517f08c379a00000000000000000000000000000000000000000000000000000000081526004016111cd906121ff565b60405180910390fd5b60008060006101000a81548160ff0219169083151502179055507f5db9ee0a495bf2e6ff9c91a7834c1ba4fdd244a5e8aa4e537bd38aeae4b073aa611219611187565b6040516112269190612155565b60405180910390a1565b60008060025411801561124557506002544210155b611284576040517f08c379a000000000000000000000000000000000000000000000000000000000815260040161127b9061221f565b60405180910390fd5b60007fffffffffffffffffffffffffffffffffffffffffffffffffffffffffffffffff9050600060025490505b8381116112dc5781806112c390612737565b92505062278d00816112d59190612548565b90506112b1565b8192505050919050565b6000807f000000000000000000000000000000000000000000000000000000000000000011801561133757507f00000000000000000000000000000000000000000000000000000000000000008211155b156113455760009050611492565b7f00000000000000000000000000000000000000000000000000000000000000007f00000000000000000000000000000000000000000000000000000000000000006113919190612548565b8211156113a15760009050611492565b60008214156113ba576113b383611a39565b9050611492565b60007f0000000000000000000000000000000000000000000000000000000000000000836113e89190612629565b905060006113f585611a39565b905060007f000000000000000000000000000000000000000000000000000000000000000082876000015161142a9190612629565b611434919061259e565b905060006001846114459190612629565b8261145091906125cf565b8361145b9190612548565b9050600081886000015161146f9190612629565b905082600261147e91906125cf565b811015611489578092505b82955050505050505b92915050565b61151b846323b872dd60e01b8585856040516024016114b993929190612170565b604051602081830303815290604052907bffffffffffffffffffffffffffffffffffffffffffffffffffffffff19166020820180517bffffffffffffffffffffffffffffffffffffffffffffffffffffffff8381831617835250505050611a7e565b50505050565b60005b815181101561164f5760006001600084848151811061156c577f4e487b7100000000000000000000000000000000000000000000000000000000600052603260045260246000fd5b602002602001015173ffffffffffffffffffffffffffffffffffffffff1673ffffffffffffffffffffffffffffffffffffffff16815260200190815260200160002060006101000a81548160ff0219169083151502179055507fcdd2e9b91a56913d370075169cefa1602ba36be5301664f752192bb1709df75782828151811061161f577f4e487b7100000000000000000000000000000000000000000000000000000000600052603260045260246000fd5b60200260200101516040516116349190612155565b60405180910390a1808061164790612780565b915050611524565b5050565b60008060019054906101000a900473ffffffffffffffffffffffffffffffffffffffff16905081600060016101000a81548173ffffffffffffffffffffffffffffffffffffffff021916908373ffffffffffffffffffffffffffffffffffffffff1602179055508173ffffffffffffffffffffffffffffffffffffffff168173ffffffffffffffffffffffffffffffffffffffff167f8be0079c531659141344cd1fd0a4f28419497f9722a3daafe3b4186f6b6457e060405160405180910390a35050565b60005b8151811015611845576001806000848481518110611762577f4e487b7100000000000000000000000000000000000000000000000000000000600052603260045260246000fd5b602002602001015173ffffffffffffffffffffffffffffffffffffffff1673ffffffffffffffffffffffffffffffffffffffff16815260200190815260200160002060006101000a81548160ff0219169083151502179055507fa850ae9193f515cbae8d35e8925bd2be26627fc91bce650b8652ed254e9cab03828281518110611815577f4e487b7100000000000000000000000000000000000000000000000000000000600052603260045260246000fd5b602002602001015160405161182a9190612155565b60405180910390a1808061183d90612780565b91505061171b565b5050565b61185161092a565b15611891576040517f08c379a0000000000000000000000000000000000000000000000000000000008152600401611888906122bf565b60405180910390fd5b60016000806101000a81548160ff0219169083151502179055507f62e78cea01bee320cd4e420270b5ea74000d11b0c9f74754ebdbfc544b05a2586118d4611187565b6040516118e19190612155565b60405180910390a1565b8060028190555050565b6000600360008373ffffffffffffffffffffffffffffffffffffffff1673ffffffffffffffffffffffffffffffffffffffff168152602001908152602001600020600001549050919050565b60006002541480611953575060025442105b611992576040517f08c379a00000000000000000000000000000000000000000000000000000000081526004016119899061233f565b60405180910390fd5b6000600360008473ffffffffffffffffffffffffffffffffffffffff1673ffffffffffffffffffffffffffffffffffffffff1681526020019081526020016000209050818160000160008282546119e99190612548565b9250508190555081816001016000828254611a049190612548565b925050819055507fffffffffffffffffffffffffffffffffffffffffffffffffffffffffffffffff8160020181905550505050565b600060647f00000000000000000000000000000000000000000000000000000000000000008360000151611a6d91906125cf565b611a77919061259e565b9050919050565b6000611ae0826040518060400160405280602081526020017f5361666545524332303a206c6f772d6c6576656c2063616c6c206661696c65648152508573ffffffffffffffffffffffffffffffffffffffff16611b459092919063ffffffff16565b9050600081511115611b405780806020019051810190611b009190611e2a565b611b3f576040517f08c379a0000000000000000000000000000000000000000000000000000000008152600401611b369061239f565b60405180910390fd5b5b505050565b6060611b548484600085611b5d565b90509392505050565b606082471015611ba2576040517f08c379a0000000000000000000000000000000000000000000000000000000008152600401611b999061229f565b60405180910390fd5b611bab85611c71565b611bea576040517f08c379a0000000000000000000000000000000000000000000000000000000008152600401611be19061237f565b60405180910390fd5b6000808673ffffffffffffffffffffffffffffffffffffffff168587604051611c13919061213e565b60006040518083038185875af1925050503d8060008114611c50576040519150601f19603f3d011682016040523d82523d6000602084013e611c55565b606091505b5091509150611c65828286611c84565b92505050949350505050565b600080823b905060008111915050919050565b60608315611c9457829050611ce4565b600083511115611ca75782518084602001fd5b816040517f08c379a0000000000000000000000000000000000000000000000000000000008152600401611cdb91906121dd565b60405180910390fd5b9392505050565b6000611cfe611cf984612456565b612431565b90508083825260208201905082856020860282011115611d1d57600080fd5b60005b85811015611d4d5781611d338882611d57565b845260208401935060208301925050600181019050611d20565b5050509392505050565b600081359050611d6681612b40565b92915050565b600082601f830112611d7d57600080fd5b8135611d8d848260208601611ceb565b91505092915050565b600081519050611da581612b57565b92915050565b600081359050611dba81612b6e565b92915050565b600060208284031215611dd257600080fd5b6000611de084828501611d57565b91505092915050565b600060208284031215611dfb57600080fd5b600082013567ffffffffffffffff811115611e1557600080fd5b611e2184828501611d6c565b91505092915050565b600060208284031215611e3c57600080fd5b6000611e4a84828501611d96565b91505092915050565b600060208284031215611e6557600080fd5b6000611e7384828501611dab565b91505092915050565b611e858161265d565b82525050565b611e948161266f565b82525050565b6000611ea582612482565b611eaf8185612498565b9350611ebf8185602086016126d3565b80840191505092915050565b611ed4816126af565b82525050565b611ee38161267b565b82525050565b6000611ef48261248d565b611efe81856124a3565b9350611f0e8185602086016126d3565b611f1781612856565b840191505092915050565b6000611f2f6014836124a3565b9150611f3a82612867565b602082019050919050565b6000611f526016836124a3565b9150611f5d82612890565b602082019050919050565b6000611f756026836124a3565b9150611f80826128b9565b604082019050919050565b6000611f98601f836124a3565b9150611fa382612908565b602082019050919050565b6000611fbb601a836124a3565b9150611fc682612931565b602082019050919050565b6000611fde6026836124a3565b9150611fe98261295a565b604082019050919050565b60006120016010836124a3565b915061200c826129a9565b602082019050919050565b6000612024601d836124a3565b915061202f826129d2565b602082019050919050565b6000612047601a836124a3565b9150612052826129fb565b602082019050919050565b600061206a6020836124a3565b915061207582612a24565b602082019050919050565b600061208d6015836124a3565b915061209882612a4d565b602082019050919050565b60006120b0601c836124a3565b91506120bb82612a76565b602082019050919050565b60006120d3601d836124a3565b91506120de82612a9f565b602082019050919050565b60006120f6602a836124a3565b915061210182612ac8565b604082019050919050565b60006121196011836124a3565b915061212482612b17565b602082019050919050565b612138816126a5565b82525050565b600061214a8284611e9a565b915081905092915050565b600060208201905061216a6000830184611e7c565b92915050565b60006060820190506121856000830186611e7c565b6121926020830185611e7c565b61219f604083018461212f565b949350505050565b60006020820190506121bc6000830184611e8b565b92915050565b60006020820190506121d76000830184611ecb565b92915050565b600060208201905081810360008301526121f78184611ee9565b905092915050565b6000602082019050818103600083015261221881611f22565b9050919050565b6000602082019050818103600083015261223881611f45565b9050919050565b6000602082019050818103600083015261225881611f68565b9050919050565b6000602082019050818103600083015261227881611f8b565b9050919050565b6000602082019050818103600083015261229881611fae565b9050919050565b600060208201905081810360008301526122b881611fd1565b9050919050565b600060208201905081810360008301526122d881611ff4565b9050919050565b600060208201905081810360008301526122f881612017565b9050919050565b600060208201905081810360008301526123188161203a565b9050919050565b600060208201905081810360008301526123388161205d565b9050919050565b6000602082019050818103600083015261235881612080565b9050919050565b60006020820190508181036000830152612378816120a3565b9050919050565b60006020820190508181036000830152612398816120c6565b9050919050565b600060208201905081810360008301526123b8816120e9565b9050919050565b600060208201905081810360008301526123d88161210c565b9050919050565b60006020820190506123f4600083018461212f565b92915050565b600060608201905061240f600083018661212f565b61241c602083018561212f565b6124296040830184611eda565b949350505050565b600061243b61244c565b90506124478282612706565b919050565b6000604051905090565b600067ffffffffffffffff82111561247157612470612827565b5b602082029050602081019050919050565b600081519050919050565b600081519050919050565b600081905092915050565b600082825260208201905092915050565b60006124bf8261267b565b91506124ca8361267b565b9250817f7fffffffffffffffffffffffffffffffffffffffffffffffffffffffffffffff03831360008312151615612505576125046127c9565b5b817f800000000000000000000000000000000000000000000000000000000000000003831260008312161561253d5761253c6127c9565b5b828201905092915050565b6000612553826126a5565b915061255e836126a5565b9250827fffffffffffffffffffffffffffffffffffffffffffffffffffffffffffffffff03821115612593576125926127c9565b5b828201905092915050565b60006125a9826126a5565b91506125b4836126a5565b9250826125c4576125c36127f8565b5b828204905092915050565b60006125da826126a5565b91506125e5836126a5565b9250817fffffffffffffffffffffffffffffffffffffffffffffffffffffffffffffffff048311821515161561261e5761261d6127c9565b5b828202905092915050565b6000612634826126a5565b915061263f836126a5565b925082821015612652576126516127c9565b5b828203905092915050565b600061266882612685565b9050919050565b60008115159050919050565b6000819050919050565b600073ffffffffffffffffffffffffffffffffffffffff82169050919050565b6000819050919050565b60006126ba826126c1565b9050919050565b60006126cc82612685565b9050919050565b60005b838110156126f15780820151818401526020810190506126d6565b83811115612700576000848401525b50505050565b61270f82612856565b810181811067ffffffffffffffff8211171561272e5761272d612827565b5b80604052505050565b60006127428261267b565b91507f7fffffffffffffffffffffffffffffffffffffffffffffffffffffffffffffff821415612775576127746127c9565b5b600182019050919050565b600061278b826126a5565b91507fffffffffffffffffffffffffffffffffffffffffffffffffffffffffffffffff8214156127be576127bd6127c9565b5b600182019050919050565b7f4e487b7100000000000000000000000000000000000000000000000000000000600052601160045260246000fd5b7f4e487b7100000000000000000000000000000000000000000000000000000000600052601260045260246000fd5b7f4e487b7100000000000000000000000000000000000000000000000000000000600052604160045260246000fd5b6000601f19601f8301169050919050565b7f5061757361626c653a206e6f7420706175736564000000000000000000000000600082015250565b7f556e617661696c61626c65206265666f72652049474f00000000000000000000600082015250565b7f4f776e61626c653a206e6577206f776e657220697320746865207a65726f206160008201527f6464726573730000000000000000000000000000000000000000000000000000602082015250565b7f53616c653a20746f74616c204d4854206f6e2073616c65207265616368656400600082015250565b7f57686974656c6973743a206e6f742077686974656c6973746564000000000000600082015250565b7f416464726573733a20696e73756666696369656e742062616c616e636520666f60008201527f722063616c6c0000000000000000000000000000000000000000000000000000602082015250565b7f5061757361626c653a2070617573656400000000000000000000000000000000600082015250565b7f53616c653a20616d6f756e742067726561746572207468616e206d6178000000600082015250565b7f53616c653a20616d6f756e74206c657373207468616e206d696e000000000000600082015250565b7f4f776e61626c653a2063616c6c6572206973206e6f7420746865206f776e6572600082015250565b7f556e617661696c61626c652061667465722049474f0000000000000000000000600082015250565b7f53616c653a20746f74616c2067726561746572207468616e206d617800000000600082015250565b7f416464726573733a2063616c6c20746f206e6f6e2d636f6e7472616374000000600082015250565b7f5361666545524332303a204552433230206f7065726174696f6e20646964206e60008201527f6f74207375636365656400000000000000000000000000000000000000000000602082015250565b7f4e6f7420656e6f75676820746f6b656e73000000000000000000000000000000600082015250565b612b498161265d565b8114612b5457600080fd5b50565b612b608161266f565b8114612b6b57600080fd5b50565b612b77816126a5565b8114612b8257600080fd5b5056fea2646970667358221220bc3221b18a673a8aba0fc6ee2acaf160cd383ec76503179ac50c415b4b3887cf64736f6c63430008040033",
  "linkReferences": {},
  "deployedLinkReferences": {}
}