{
  "_format": "hh-sol-artifact-1",
  "contractName": "BoosterSale3",
  "sourceName": "contracts/booster/BoosterSale3.sol",
  "abi": [
    {
      "inputs": [
        {
          "internalType": "address",
          "name": "_boosterOwner",
          "type": "address"
        },
        {
          "internalType": "contract ERC20",
          "name": "_busd",
          "type": "address"
        },
        {
          "internalType": "contract ERC20",
          "name": "_epicBooster",
          "type": "address"
        },
        {
          "internalType": "contract ERC20",
          "name": "_rareBooster",
          "type": "address"
        },
        {
          "internalType": "uint256",
          "name": "epicBoosterPrice",
          "type": "uint256"
        },
        {
          "internalType": "uint256",
          "name": "rareBoosterPrice",
          "type": "uint256"
        }
      ],
      "stateMutability": "nonpayable",
      "type": "constructor"
    },
    {
      "anonymous": false,
      "inputs": [
        {
          "indexed": false,
          "internalType": "address",
          "name": "account",
          "type": "address"
        }
      ],
      "name": "Paused",
      "type": "event"
    },
    {
      "anonymous": false,
      "inputs": [
        {
          "indexed": true,
          "internalType": "bytes32",
          "name": "role",
          "type": "bytes32"
        },
        {
          "indexed": true,
          "internalType": "bytes32",
          "name": "previousAdminRole",
          "type": "bytes32"
        },
        {
          "indexed": true,
          "internalType": "bytes32",
          "name": "newAdminRole",
          "type": "bytes32"
        }
      ],
      "name": "RoleAdminChanged",
      "type": "event"
    },
    {
      "anonymous": false,
      "inputs": [
        {
          "indexed": true,
          "internalType": "bytes32",
          "name": "role",
          "type": "bytes32"
        },
        {
          "indexed": true,
          "internalType": "address",
          "name": "account",
          "type": "address"
        },
        {
          "indexed": true,
          "internalType": "address",
          "name": "sender",
          "type": "address"
        }
      ],
      "name": "RoleGranted",
      "type": "event"
    },
    {
      "anonymous": false,
      "inputs": [
        {
          "indexed": true,
          "internalType": "bytes32",
          "name": "role",
          "type": "bytes32"
        },
        {
          "indexed": true,
          "internalType": "address",
          "name": "account",
          "type": "address"
        },
        {
          "indexed": true,
          "internalType": "address",
          "name": "sender",
          "type": "address"
        }
      ],
      "name": "RoleRevoked",
      "type": "event"
    },
    {
      "anonymous": false,
      "inputs": [
        {
          "indexed": false,
          "internalType": "address",
          "name": "account",
          "type": "address"
        }
      ],
      "name": "Unpaused",
      "type": "event"
    },
    {
      "inputs": [],
      "name": "DEFAULT_ADMIN_ROLE",
      "outputs": [
        {
          "internalType": "bytes32",
          "name": "",
          "type": "bytes32"
        }
      ],
      "stateMutability": "view",
      "type": "function"
    },
    {
      "inputs": [],
      "name": "OPERATOR_ROLE",
      "outputs": [
        {
          "internalType": "bytes32",
          "name": "",
          "type": "bytes32"
        }
      ],
      "stateMutability": "view",
      "type": "function"
    },
    {
      "inputs": [],
      "name": "boosterOwner",
      "outputs": [
        {
          "internalType": "address",
          "name": "",
          "type": "address"
        }
      ],
      "stateMutability": "view",
      "type": "function"
    },
    {
      "inputs": [],
      "name": "busd",
      "outputs": [
        {
          "internalType": "contract ERC20",
          "name": "",
          "type": "address"
        }
      ],
      "stateMutability": "view",
      "type": "function"
    },
    {
      "inputs": [
        {
          "internalType": "contract ERC20",
          "name": "booster",
          "type": "address"
        },
        {
          "internalType": "uint256",
          "name": "_numberOfBoosters",
          "type": "uint256"
        }
      ],
      "name": "buy",
      "outputs": [],
      "stateMutability": "nonpayable",
      "type": "function"
    },
    {
      "inputs": [],
      "name": "epicBooster",
      "outputs": [
        {
          "internalType": "contract ERC20",
          "name": "",
          "type": "address"
        }
      ],
      "stateMutability": "view",
      "type": "function"
    },
    {
      "inputs": [
        {
          "internalType": "bytes32",
          "name": "role",
          "type": "bytes32"
        }
      ],
      "name": "getRoleAdmin",
      "outputs": [
        {
          "internalType": "bytes32",
          "name": "",
          "type": "bytes32"
        }
      ],
      "stateMutability": "view",
      "type": "function"
    },
    {
      "inputs": [
        {
          "internalType": "bytes32",
          "name": "role",
          "type": "bytes32"
        },
        {
          "internalType": "address",
          "name": "account",
          "type": "address"
        }
      ],
      "name": "grantRole",
      "outputs": [],
      "stateMutability": "nonpayable",
      "type": "function"
    },
    {
      "inputs": [
        {
          "internalType": "bytes32",
          "name": "role",
          "type": "bytes32"
        },
        {
          "internalType": "address",
          "name": "account",
          "type": "address"
        }
      ],
      "name": "hasRole",
      "outputs": [
        {
          "internalType": "bool",
          "name": "",
          "type": "bool"
        }
      ],
      "stateMutability": "view",
      "type": "function"
    },
    {
      "inputs": [],
      "name": "pause",
      "outputs": [],
      "stateMutability": "nonpayable",
      "type": "function"
    },
    {
      "inputs": [],
      "name": "paused",
      "outputs": [
        {
          "internalType": "bool",
          "name": "",
          "type": "bool"
        }
      ],
      "stateMutability": "view",
      "type": "function"
    },
    {
      "inputs": [
        {
          "internalType": "contract ERC20",
          "name": "",
          "type": "address"
        }
      ],
      "name": "prices",
      "outputs": [
        {
          "internalType": "uint256",
          "name": "",
          "type": "uint256"
        }
      ],
      "stateMutability": "view",
      "type": "function"
    },
    {
      "inputs": [],
      "name": "rareBooster",
      "outputs": [
        {
          "internalType": "contract ERC20",
          "name": "",
          "type": "address"
        }
      ],
      "stateMutability": "view",
      "type": "function"
    },
    {
      "inputs": [
        {
          "internalType": "bytes32",
          "name": "role",
          "type": "bytes32"
        },
        {
          "internalType": "address",
          "name": "account",
          "type": "address"
        }
      ],
      "name": "renounceRole",
      "outputs": [],
      "stateMutability": "nonpayable",
      "type": "function"
    },
    {
      "inputs": [
        {
          "internalType": "bytes32",
          "name": "role",
          "type": "bytes32"
        },
        {
          "internalType": "address",
          "name": "account",
          "type": "address"
        }
      ],
      "name": "revokeRole",
      "outputs": [],
      "stateMutability": "nonpayable",
      "type": "function"
    },
    {
      "inputs": [
        {
          "internalType": "address[]",
          "name": "_buyers",
          "type": "address[]"
        },
        {
          "internalType": "uint256[]",
          "name": "epicAllowances",
          "type": "uint256[]"
        },
        {
          "internalType": "uint256[]",
          "name": "rareAllowances",
          "type": "uint256[]"
        }
      ],
      "name": "setWhitelist",
      "outputs": [],
      "stateMutability": "nonpayable",
      "type": "function"
    },
    {
      "inputs": [
        {
          "internalType": "bytes4",
          "name": "interfaceId",
          "type": "bytes4"
        }
      ],
      "name": "supportsInterface",
      "outputs": [
        {
          "internalType": "bool",
          "name": "",
          "type": "bool"
        }
      ],
      "stateMutability": "view",
      "type": "function"
    },
    {
      "inputs": [],
      "name": "unpause",
      "outputs": [],
      "stateMutability": "nonpayable",
      "type": "function"
    },
    {
      "inputs": [
        {
          "internalType": "address",
          "name": "",
          "type": "address"
        },
        {
          "internalType": "contract ERC20",
          "name": "",
          "type": "address"
        }
      ],
      "name": "whitelist",
      "outputs": [
        {
          "internalType": "uint256",
          "name": "",
          "type": "uint256"
        }
      ],
      "stateMutability": "view",
      "type": "function"
    }
  ],
  "bytecode": "0x6101006040523480156200001257600080fd5b5060405162002b9138038062002b91833981810160405281019062000038919062000461565b60008060006101000a81548160ff021916908315150217905550620000676000801b87620001fd60201b60201c565b620000997f97667070c54ef182b0f5858b034beac1b6f3089aa2d3188bb1e8929f4fa9b92987620001fd60201b60201c565b8573ffffffffffffffffffffffffffffffffffffffff1660808173ffffffffffffffffffffffffffffffffffffffff16815250508473ffffffffffffffffffffffffffffffffffffffff1660a08173ffffffffffffffffffffffffffffffffffffffff16815250508373ffffffffffffffffffffffffffffffffffffffff1660c08173ffffffffffffffffffffffffffffffffffffffff16815250508273ffffffffffffffffffffffffffffffffffffffff1660e08173ffffffffffffffffffffffffffffffffffffffff168152505081600260008673ffffffffffffffffffffffffffffffffffffffff1673ffffffffffffffffffffffffffffffffffffffff1681526020019081526020016000208190555080600260008573ffffffffffffffffffffffffffffffffffffffff1673ffffffffffffffffffffffffffffffffffffffff16815260200190815260200160002081905550505050505050620004fd565b6200020f82826200021360201b60201c565b5050565b6200022582826200030460201b60201c565b6200030057600180600084815260200190815260200160002060000160008373ffffffffffffffffffffffffffffffffffffffff1673ffffffffffffffffffffffffffffffffffffffff16815260200190815260200160002060006101000a81548160ff021916908315150217905550620002a56200036f60201b60201c565b73ffffffffffffffffffffffffffffffffffffffff168173ffffffffffffffffffffffffffffffffffffffff16837f2f8788117e7eff1d82e926ec794901d17c78024a50270940304540a733656f0d60405160405180910390a45b5050565b60006001600084815260200190815260200160002060000160008373ffffffffffffffffffffffffffffffffffffffff1673ffffffffffffffffffffffffffffffffffffffff16815260200190815260200160002060009054906101000a900460ff16905092915050565b600033905090565b600080fd5b600073ffffffffffffffffffffffffffffffffffffffff82169050919050565b6000620003a9826200037c565b9050919050565b620003bb816200039c565b8114620003c757600080fd5b50565b600081519050620003db81620003b0565b92915050565b6000620003ee826200039c565b9050919050565b6200040081620003e1565b81146200040c57600080fd5b50565b6000815190506200042081620003f5565b92915050565b6000819050919050565b6200043b8162000426565b81146200044757600080fd5b50565b6000815190506200045b8162000430565b92915050565b60008060008060008060c0878903121562000481576200048062000377565b5b60006200049189828a01620003ca565b9650506020620004a489828a016200040f565b9550506040620004b789828a016200040f565b9450506060620004ca89828a016200040f565b9350506080620004dd89828a016200044a565b92505060a0620004f089828a016200044a565b9150509295509295509295565b60805160a05160c05160e0516126376200055a600039600081816105a701526107500152600081816104c60152610c140152600081816106ef0152610ad001526000818161078a01528181610a640152610b1a01526126376000f3fe608060405234801561001057600080fd5b50600436106101215760003560e01c80637532ed2b116100ad578063cce7ec1311610071578063cce7ec13146102e4578063cfed246b14610300578063d24f3c5b14610330578063d547741f1461034e578063f5b541a61461036a57610121565b80637532ed2b1461023e5780638456cb591461025c57806391d1485414610266578063a217fddf14610296578063b092145e146102b457610121565b806336568abe116100f457806336568abe146101be5780633ca5b234146101da5780633f4ba83a146101f857806344dfb3f9146102025780635c975abb1461022057610121565b806301ffc9a71461012657806306c8470114610156578063248a9ca3146101725780632f2ff15d146101a2575b600080fd5b610140600480360381019061013b919061162b565b610388565b60405161014d9190611673565b60405180910390f35b610170600480360381019061016b9190611749565b610402565b005b61018c60048036038101906101879190611833565b610621565b604051610199919061186f565b60405180910390f35b6101bc60048036038101906101b791906118e8565b610641565b005b6101d860048036038101906101d391906118e8565b61066a565b005b6101e26106ed565b6040516101ef9190611987565b60405180910390f35b610200610711565b005b61020a61074e565b6040516102179190611987565b60405180910390f35b610228610772565b6040516102359190611673565b60405180910390f35b610246610788565b60405161025391906119b1565b60405180910390f35b6102646107ac565b005b610280600480360381019061027b91906118e8565b6107e9565b60405161028d9190611673565b60405180910390f35b61029e610854565b6040516102ab919061186f565b60405180910390f35b6102ce60048036038101906102c99190611a0a565b61085b565b6040516102db9190611a63565b60405180910390f35b6102fe60048036038101906102f99190611aaa565b610880565b005b61031a60048036038101906103159190611aea565b610bfa565b6040516103279190611a63565b60405180910390f35b610338610c12565b6040516103459190611987565b60405180910390f35b610368600480360381019061036391906118e8565b610c36565b005b610372610c5f565b60405161037f919061186f565b60405180910390f35b60007f7965db0b000000000000000000000000000000000000000000000000000000007bffffffffffffffffffffffffffffffffffffffffffffffffffffffff1916827bffffffffffffffffffffffffffffffffffffffffffffffffffffffff191614806103fb57506103fa82610c83565b5b9050919050565b7f97667070c54ef182b0f5858b034beac1b6f3089aa2d3188bb1e8929f4fa9b9296104348161042f610ced565b610cf5565b60005b878790508110156106175785858281811061045557610454611b17565b5b90506020020135600360008a8a8581811061047357610472611b17565b5b90506020020160208101906104889190611b46565b73ffffffffffffffffffffffffffffffffffffffff1673ffffffffffffffffffffffffffffffffffffffff16815260200190815260200160002060007f000000000000000000000000000000000000000000000000000000000000000073ffffffffffffffffffffffffffffffffffffffff1673ffffffffffffffffffffffffffffffffffffffff1681526020019081526020016000208190555083838281811061053657610535611b17565b5b90506020020135600360008a8a8581811061055457610553611b17565b5b90506020020160208101906105699190611b46565b73ffffffffffffffffffffffffffffffffffffffff1673ffffffffffffffffffffffffffffffffffffffff16815260200190815260200160002060007f000000000000000000000000000000000000000000000000000000000000000073ffffffffffffffffffffffffffffffffffffffff1673ffffffffffffffffffffffffffffffffffffffff16815260200190815260200160002081905550808061060f90611ba2565b915050610437565b5050505050505050565b600060016000838152602001908152602001600020600101549050919050565b61064a82610621565b61065b81610656610ced565b610cf5565b6106658383610d92565b505050565b610672610ced565b73ffffffffffffffffffffffffffffffffffffffff168173ffffffffffffffffffffffffffffffffffffffff16146106df576040517f08c379a00000000000000000000000000000000000000000000000000000000081526004016106d690611c6e565b60405180910390fd5b6106e98282610e72565b5050565b7f000000000000000000000000000000000000000000000000000000000000000081565b7f97667070c54ef182b0f5858b034beac1b6f3089aa2d3188bb1e8929f4fa9b9296107438161073e610ced565b610cf5565b61074b610f54565b50565b7f000000000000000000000000000000000000000000000000000000000000000081565b60008060009054906101000a900460ff16905090565b7f000000000000000000000000000000000000000000000000000000000000000081565b7f97667070c54ef182b0f5858b034beac1b6f3089aa2d3188bb1e8929f4fa9b9296107de816107d9610ced565b610cf5565b6107e6610ff5565b50565b60006001600084815260200190815260200160002060000160008373ffffffffffffffffffffffffffffffffffffffff1673ffffffffffffffffffffffffffffffffffffffff16815260200190815260200160002060009054906101000a900460ff16905092915050565b6000801b81565b6003602052816000526040600020602052806000526040600020600091509150505481565b610888610772565b156108c8576040517f08c379a00000000000000000000000000000000000000000000000000000000081526004016108bf90611cda565b60405180910390fd5b80600360003373ffffffffffffffffffffffffffffffffffffffff1673ffffffffffffffffffffffffffffffffffffffff16815260200190815260200160002060008473ffffffffffffffffffffffffffffffffffffffff1673ffffffffffffffffffffffffffffffffffffffff168152602001908152602001600020541015610987576040517f08c379a000000000000000000000000000000000000000000000000000000000815260040161097e90611d46565b60405180910390fd5b60008114156109cb576040517f08c379a00000000000000000000000000000000000000000000000000000000081526004016109c290611db2565b60405180910390fd5b80600360003373ffffffffffffffffffffffffffffffffffffffff1673ffffffffffffffffffffffffffffffffffffffff16815260200190815260200160002060008473ffffffffffffffffffffffffffffffffffffffff1673ffffffffffffffffffffffffffffffffffffffff1681526020019081526020016000206000828254610a579190611dd2565b92505081905550610b15337f0000000000000000000000000000000000000000000000000000000000000000600260008673ffffffffffffffffffffffffffffffffffffffff1673ffffffffffffffffffffffffffffffffffffffff1681526020019081526020016000205484610ace9190611e06565b7f000000000000000000000000000000000000000000000000000000000000000073ffffffffffffffffffffffffffffffffffffffff16611097909392919063ffffffff16565b610bf67f0000000000000000000000000000000000000000000000000000000000000000338473ffffffffffffffffffffffffffffffffffffffff1663313ce5676040518163ffffffff1660e01b815260040160206040518083038186803b158015610b8057600080fd5b505afa158015610b94573d6000803e3d6000fd5b505050506040513d601f19601f82011682018060405250810190610bb89190611e99565b600a610bc49190611ff9565b84610bcf9190611e06565b8573ffffffffffffffffffffffffffffffffffffffff16611097909392919063ffffffff16565b5050565b60026020528060005260406000206000915090505481565b7f000000000000000000000000000000000000000000000000000000000000000081565b610c3f82610621565b610c5081610c4b610ced565b610cf5565b610c5a8383610e72565b505050565b7f97667070c54ef182b0f5858b034beac1b6f3089aa2d3188bb1e8929f4fa9b92981565b60007f01ffc9a7000000000000000000000000000000000000000000000000000000007bffffffffffffffffffffffffffffffffffffffffffffffffffffffff1916827bffffffffffffffffffffffffffffffffffffffffffffffffffffffff1916149050919050565b600033905090565b610cff82826107e9565b610d8e57610d248173ffffffffffffffffffffffffffffffffffffffff166014611120565b610d328360001c6020611120565b604051602001610d43929190612156565b6040516020818303038152906040526040517f08c379a0000000000000000000000000000000000000000000000000000000008152600401610d8591906121da565b60405180910390fd5b5050565b610d9c82826107e9565b610e6e57600180600084815260200190815260200160002060000160008373ffffffffffffffffffffffffffffffffffffffff1673ffffffffffffffffffffffffffffffffffffffff16815260200190815260200160002060006101000a81548160ff021916908315150217905550610e13610ced565b73ffffffffffffffffffffffffffffffffffffffff168173ffffffffffffffffffffffffffffffffffffffff16837f2f8788117e7eff1d82e926ec794901d17c78024a50270940304540a733656f0d60405160405180910390a45b5050565b610e7c82826107e9565b15610f505760006001600084815260200190815260200160002060000160008373ffffffffffffffffffffffffffffffffffffffff1673ffffffffffffffffffffffffffffffffffffffff16815260200190815260200160002060006101000a81548160ff021916908315150217905550610ef5610ced565b73ffffffffffffffffffffffffffffffffffffffff168173ffffffffffffffffffffffffffffffffffffffff16837ff6391f5c32d9c69d2a47ea670b442974b53935d1edc7fd64eb21e047a839171b60405160405180910390a45b5050565b610f5c610772565b610f9b576040517f08c379a0000000000000000000000000000000000000000000000000000000008152600401610f9290612248565b60405180910390fd5b60008060006101000a81548160ff0219169083151502179055507f5db9ee0a495bf2e6ff9c91a7834c1ba4fdd244a5e8aa4e537bd38aeae4b073aa610fde610ced565b604051610feb91906119b1565b60405180910390a1565b610ffd610772565b1561103d576040517f08c379a000000000000000000000000000000000000000000000000000000000815260040161103490611cda565b60405180910390fd5b60016000806101000a81548160ff0219169083151502179055507f62e78cea01bee320cd4e420270b5ea74000d11b0c9f74754ebdbfc544b05a258611080610ced565b60405161108d91906119b1565b60405180910390a1565b61111a846323b872dd60e01b8585856040516024016110b893929190612268565b604051602081830303815290604052907bffffffffffffffffffffffffffffffffffffffffffffffffffffffff19166020820180517bffffffffffffffffffffffffffffffffffffffffffffffffffffffff838183161783525050505061135c565b50505050565b6060600060028360026111339190611e06565b61113d919061229f565b67ffffffffffffffff811115611156576111556122f5565b5b6040519080825280601f01601f1916602001820160405280156111885781602001600182028036833780820191505090505b5090507f3000000000000000000000000000000000000000000000000000000000000000816000815181106111c0576111bf611b17565b5b60200101907effffffffffffffffffffffffffffffffffffffffffffffffffffffffffffff1916908160001a9053507f78000000000000000000000000000000000000000000000000000000000000008160018151811061122457611223611b17565b5b60200101907effffffffffffffffffffffffffffffffffffffffffffffffffffffffffffff1916908160001a905350600060018460026112649190611e06565b61126e919061229f565b90505b600181111561130e577f3031323334353637383961626364656600000000000000000000000000000000600f8616601081106112b0576112af611b17565b5b1a60f81b8282815181106112c7576112c6611b17565b5b60200101907effffffffffffffffffffffffffffffffffffffffffffffffffffffffffffff1916908160001a905350600485901c94508061130790612324565b9050611271565b5060008414611352576040517f08c379a00000000000000000000000000000000000000000000000000000000081526004016113499061239a565b60405180910390fd5b8091505092915050565b60006113be826040518060400160405280602081526020017f5361666545524332303a206c6f772d6c6576656c2063616c6c206661696c65648152508573ffffffffffffffffffffffffffffffffffffffff166114239092919063ffffffff16565b905060008151111561141e57808060200190518101906113de91906123e6565b61141d576040517f08c379a000000000000000000000000000000000000000000000000000000000815260040161141490612485565b60405180910390fd5b5b505050565b6060611432848460008561143b565b90509392505050565b606082471015611480576040517f08c379a000000000000000000000000000000000000000000000000000000000815260040161147790612517565b60405180910390fd5b6114898561154f565b6114c8576040517f08c379a00000000000000000000000000000000000000000000000000000000081526004016114bf90612583565b60405180910390fd5b6000808673ffffffffffffffffffffffffffffffffffffffff1685876040516114f191906125ea565b60006040518083038185875af1925050503d806000811461152e576040519150601f19603f3d011682016040523d82523d6000602084013e611533565b606091505b5091509150611543828286611562565b92505050949350505050565b600080823b905060008111915050919050565b60608315611572578290506115c2565b6000835111156115855782518084602001fd5b816040517f08c379a00000000000000000000000000000000000000000000000000000000081526004016115b991906121da565b60405180910390fd5b9392505050565b600080fd5b600080fd5b60007fffffffff0000000000000000000000000000000000000000000000000000000082169050919050565b611608816115d3565b811461161357600080fd5b50565b600081359050611625816115ff565b92915050565b600060208284031215611641576116406115c9565b5b600061164f84828501611616565b91505092915050565b60008115159050919050565b61166d81611658565b82525050565b60006020820190506116886000830184611664565b92915050565b600080fd5b600080fd5b600080fd5b60008083601f8401126116b3576116b261168e565b5b8235905067ffffffffffffffff8111156116d0576116cf611693565b5b6020830191508360208202830111156116ec576116eb611698565b5b9250929050565b60008083601f8401126117095761170861168e565b5b8235905067ffffffffffffffff81111561172657611725611693565b5b60208301915083602082028301111561174257611741611698565b5b9250929050565b60008060008060008060608789031215611766576117656115c9565b5b600087013567ffffffffffffffff811115611784576117836115ce565b5b61179089828a0161169d565b9650965050602087013567ffffffffffffffff8111156117b3576117b26115ce565b5b6117bf89828a016116f3565b9450945050604087013567ffffffffffffffff8111156117e2576117e16115ce565b5b6117ee89828a016116f3565b92509250509295509295509295565b6000819050919050565b611810816117fd565b811461181b57600080fd5b50565b60008135905061182d81611807565b92915050565b600060208284031215611849576118486115c9565b5b60006118578482850161181e565b91505092915050565b611869816117fd565b82525050565b60006020820190506118846000830184611860565b92915050565b600073ffffffffffffffffffffffffffffffffffffffff82169050919050565b60006118b58261188a565b9050919050565b6118c5816118aa565b81146118d057600080fd5b50565b6000813590506118e2816118bc565b92915050565b600080604083850312156118ff576118fe6115c9565b5b600061190d8582860161181e565b925050602061191e858286016118d3565b9150509250929050565b6000819050919050565b600061194d6119486119438461188a565b611928565b61188a565b9050919050565b600061195f82611932565b9050919050565b600061197182611954565b9050919050565b61198181611966565b82525050565b600060208201905061199c6000830184611978565b92915050565b6119ab816118aa565b82525050565b60006020820190506119c660008301846119a2565b92915050565b60006119d7826118aa565b9050919050565b6119e7816119cc565b81146119f257600080fd5b50565b600081359050611a04816119de565b92915050565b60008060408385031215611a2157611a206115c9565b5b6000611a2f858286016118d3565b9250506020611a40858286016119f5565b9150509250929050565b6000819050919050565b611a5d81611a4a565b82525050565b6000602082019050611a786000830184611a54565b92915050565b611a8781611a4a565b8114611a9257600080fd5b50565b600081359050611aa481611a7e565b92915050565b60008060408385031215611ac157611ac06115c9565b5b6000611acf858286016119f5565b9250506020611ae085828601611a95565b9150509250929050565b600060208284031215611b0057611aff6115c9565b5b6000611b0e848285016119f5565b91505092915050565b7f4e487b7100000000000000000000000000000000000000000000000000000000600052603260045260246000fd5b600060208284031215611b5c57611b5b6115c9565b5b6000611b6a848285016118d3565b91505092915050565b7f4e487b7100000000000000000000000000000000000000000000000000000000600052601160045260246000fd5b6000611bad82611a4a565b91507fffffffffffffffffffffffffffffffffffffffffffffffffffffffffffffffff821415611be057611bdf611b73565b5b600182019050919050565b600082825260208201905092915050565b7f416363657373436f6e74726f6c3a2063616e206f6e6c792072656e6f756e636560008201527f20726f6c657320666f722073656c660000000000000000000000000000000000602082015250565b6000611c58602f83611beb565b9150611c6382611bfc565b604082019050919050565b60006020820190508181036000830152611c8781611c4b565b9050919050565b7f5061757361626c653a2070617573656400000000000000000000000000000000600082015250565b6000611cc4601083611beb565b9150611ccf82611c8e565b602082019050919050565b60006020820190508181036000830152611cf381611cb7565b9050919050565b7f426f6f7374657253616c653a2061626f76652063617000000000000000000000600082015250565b6000611d30601683611beb565b9150611d3b82611cfa565b602082019050919050565b60006020820190508181036000830152611d5f81611d23565b9050919050565b7f426f6f7374657253616c653a20696e76616c696420616d6f756e740000000000600082015250565b6000611d9c601b83611beb565b9150611da782611d66565b602082019050919050565b60006020820190508181036000830152611dcb81611d8f565b9050919050565b6000611ddd82611a4a565b9150611de883611a4a565b925082821015611dfb57611dfa611b73565b5b828203905092915050565b6000611e1182611a4a565b9150611e1c83611a4a565b9250817fffffffffffffffffffffffffffffffffffffffffffffffffffffffffffffffff0483118215151615611e5557611e54611b73565b5b828202905092915050565b600060ff82169050919050565b611e7681611e60565b8114611e8157600080fd5b50565b600081519050611e9381611e6d565b92915050565b600060208284031215611eaf57611eae6115c9565b5b6000611ebd84828501611e84565b91505092915050565b60008160011c9050919050565b6000808291508390505b6001851115611f1d57808604811115611ef957611ef8611b73565b5b6001851615611f085780820291505b8081029050611f1685611ec6565b9450611edd565b94509492505050565b600082611f365760019050611ff2565b81611f445760009050611ff2565b8160018114611f5a5760028114611f6457611f93565b6001915050611ff2565b60ff841115611f7657611f75611b73565b5b8360020a915084821115611f8d57611f8c611b73565b5b50611ff2565b5060208310610133831016604e8410600b8410161715611fc85782820a905083811115611fc357611fc2611b73565b5b611ff2565b611fd58484846001611ed3565b92509050818404811115611fec57611feb611b73565b5b81810290505b9392505050565b600061200482611a4a565b915061200f83611e60565b925061203c7fffffffffffffffffffffffffffffffffffffffffffffffffffffffffffffffff8484611f26565b905092915050565b600081905092915050565b7f416363657373436f6e74726f6c3a206163636f756e7420000000000000000000600082015250565b6000612085601783612044565b91506120908261204f565b601782019050919050565b600081519050919050565b60005b838110156120c45780820151818401526020810190506120a9565b838111156120d3576000848401525b50505050565b60006120e48261209b565b6120ee8185612044565b93506120fe8185602086016120a6565b80840191505092915050565b7f206973206d697373696e6720726f6c6520000000000000000000000000000000600082015250565b6000612140601183612044565b915061214b8261210a565b601182019050919050565b600061216182612078565b915061216d82856120d9565b915061217882612133565b915061218482846120d9565b91508190509392505050565b6000601f19601f8301169050919050565b60006121ac8261209b565b6121b68185611beb565b93506121c68185602086016120a6565b6121cf81612190565b840191505092915050565b600060208201905081810360008301526121f481846121a1565b905092915050565b7f5061757361626c653a206e6f7420706175736564000000000000000000000000600082015250565b6000612232601483611beb565b915061223d826121fc565b602082019050919050565b6000602082019050818103600083015261226181612225565b9050919050565b600060608201905061227d60008301866119a2565b61228a60208301856119a2565b6122976040830184611a54565b949350505050565b60006122aa82611a4a565b91506122b583611a4a565b9250827fffffffffffffffffffffffffffffffffffffffffffffffffffffffffffffffff038211156122ea576122e9611b73565b5b828201905092915050565b7f4e487b7100000000000000000000000000000000000000000000000000000000600052604160045260246000fd5b600061232f82611a4a565b9150600082141561234357612342611b73565b5b600182039050919050565b7f537472696e67733a20686578206c656e67746820696e73756666696369656e74600082015250565b6000612384602083611beb565b915061238f8261234e565b602082019050919050565b600060208201905081810360008301526123b381612377565b9050919050565b6123c381611658565b81146123ce57600080fd5b50565b6000815190506123e0816123ba565b92915050565b6000602082840312156123fc576123fb6115c9565b5b600061240a848285016123d1565b91505092915050565b7f5361666545524332303a204552433230206f7065726174696f6e20646964206e60008201527f6f74207375636365656400000000000000000000000000000000000000000000602082015250565b600061246f602a83611beb565b915061247a82612413565b604082019050919050565b6000602082019050818103600083015261249e81612462565b9050919050565b7f416464726573733a20696e73756666696369656e742062616c616e636520666f60008201527f722063616c6c0000000000000000000000000000000000000000000000000000602082015250565b6000612501602683611beb565b915061250c826124a5565b604082019050919050565b60006020820190508181036000830152612530816124f4565b9050919050565b7f416464726573733a2063616c6c20746f206e6f6e2d636f6e7472616374000000600082015250565b600061256d601d83611beb565b915061257882612537565b602082019050919050565b6000602082019050818103600083015261259c81612560565b9050919050565b600081519050919050565b600081905092915050565b60006125c4826125a3565b6125ce81856125ae565b93506125de8185602086016120a6565b80840191505092915050565b60006125f682846125b9565b91508190509291505056fea2646970667358221220ebd3ac8ffa31444fe4dd373a9a863643a011b9be27a0611bad431b7665bfcdcc64736f6c63430008090033",
  "linkReferences": {},
  "deployedLinkReferences": {}
}