{
  "_format": "hh-sol-artifact-1",
  "contractName": "BoosterSale",
  "sourceName": "contracts/booster/BoosterSale.sol",
  "abi": [
    {
      "inputs": [
        {
          "internalType": "address",
          "name": "_boosterOwner",
          "type": "address"
        },
        {
          "internalType": "contract IERC20",
          "name": "_busd",
          "type": "address"
        }
      ],
      "stateMutability": "nonpayable",
      "type": "constructor"
    },
    {
      "anonymous": false,
      "inputs": [
        {
          "indexed": true,
          "internalType": "address",
          "name": "previousOwner",
          "type": "address"
        },
        {
          "indexed": true,
          "internalType": "address",
          "name": "newOwner",
          "type": "address"
        }
      ],
      "name": "OwnershipTransferred",
      "type": "event"
    },
    {
      "anonymous": false,
      "inputs": [
        {
          "indexed": false,
          "internalType": "address",
          "name": "account",
          "type": "address"
        }
      ],
      "name": "Paused",
      "type": "event"
    },
    {
      "anonymous": false,
      "inputs": [
        {
          "indexed": false,
          "internalType": "address",
          "name": "account",
          "type": "address"
        }
      ],
      "name": "Unpaused",
      "type": "event"
    },
    {
      "inputs": [
        {
          "internalType": "address[]",
          "name": "_buyers",
          "type": "address[]"
        }
      ],
      "name": "addToWhitelist",
      "outputs": [],
      "stateMutability": "nonpayable",
      "type": "function"
    },
    {
      "inputs": [],
      "name": "boosterOwner",
      "outputs": [
        {
          "internalType": "address",
          "name": "",
          "type": "address"
        }
      ],
      "stateMutability": "view",
      "type": "function"
    },
    {
      "inputs": [
        {
          "internalType": "contract IERC20",
          "name": "",
          "type": "address"
        }
      ],
      "name": "boosterToBoosterIndex",
      "outputs": [
        {
          "internalType": "uint256",
          "name": "",
          "type": "uint256"
        }
      ],
      "stateMutability": "view",
      "type": "function"
    },
    {
      "inputs": [
        {
          "internalType": "uint256",
          "name": "",
          "type": "uint256"
        }
      ],
      "name": "boosters",
      "outputs": [
        {
          "internalType": "contract IERC20",
          "name": "",
          "type": "address"
        }
      ],
      "stateMutability": "view",
      "type": "function"
    },
    {
      "inputs": [],
      "name": "busd",
      "outputs": [
        {
          "internalType": "contract IERC20",
          "name": "",
          "type": "address"
        }
      ],
      "stateMutability": "view",
      "type": "function"
    },
    {
      "inputs": [
        {
          "internalType": "uint256",
          "name": "",
          "type": "uint256"
        }
      ],
      "name": "busdPricePerBoosterInWei",
      "outputs": [
        {
          "internalType": "uint256",
          "name": "",
          "type": "uint256"
        }
      ],
      "stateMutability": "view",
      "type": "function"
    },
    {
      "inputs": [
        {
          "internalType": "contract IERC20",
          "name": "booster",
          "type": "address"
        },
        {
          "internalType": "uint256",
          "name": "_numberOfBoostersInWei",
          "type": "uint256"
        }
      ],
      "name": "buy",
      "outputs": [],
      "stateMutability": "nonpayable",
      "type": "function"
    },
    {
      "inputs": [
        {
          "internalType": "uint256",
          "name": "",
          "type": "uint256"
        }
      ],
      "name": "capPerBoosterInWei",
      "outputs": [
        {
          "internalType": "uint256",
          "name": "",
          "type": "uint256"
        }
      ],
      "stateMutability": "view",
      "type": "function"
    },
    {
      "inputs": [
        {
          "internalType": "contract IERC20[]",
          "name": "_boosters",
          "type": "address[]"
        },
        {
          "internalType": "uint256[]",
          "name": "_busdPricePerBoosterInWei",
          "type": "uint256[]"
        },
        {
          "internalType": "uint256[]",
          "name": "_capPerBoosterInWei",
          "type": "uint256[]"
        }
      ],
      "name": "configure",
      "outputs": [],
      "stateMutability": "nonpayable",
      "type": "function"
    },
    {
      "inputs": [
        {
          "internalType": "address",
          "name": "",
          "type": "address"
        }
      ],
      "name": "isWhitelisted",
      "outputs": [
        {
          "internalType": "bool",
          "name": "",
          "type": "bool"
        }
      ],
      "stateMutability": "view",
      "type": "function"
    },
    {
      "inputs": [],
      "name": "owner",
      "outputs": [
        {
          "internalType": "address",
          "name": "",
          "type": "address"
        }
      ],
      "stateMutability": "view",
      "type": "function"
    },
    {
      "inputs": [],
      "name": "pause",
      "outputs": [],
      "stateMutability": "nonpayable",
      "type": "function"
    },
    {
      "inputs": [],
      "name": "paused",
      "outputs": [
        {
          "internalType": "bool",
          "name": "",
          "type": "bool"
        }
      ],
      "stateMutability": "view",
      "type": "function"
    },
    {
      "inputs": [
        {
          "internalType": "address[]",
          "name": "_buyers",
          "type": "address[]"
        }
      ],
      "name": "removeFromWhitelist",
      "outputs": [],
      "stateMutability": "nonpayable",
      "type": "function"
    },
    {
      "inputs": [],
      "name": "renounceOwnership",
      "outputs": [],
      "stateMutability": "nonpayable",
      "type": "function"
    },
    {
      "inputs": [
        {
          "internalType": "address",
          "name": "newOwner",
          "type": "address"
        }
      ],
      "name": "transferOwnership",
      "outputs": [],
      "stateMutability": "nonpayable",
      "type": "function"
    },
    {
      "inputs": [],
      "name": "unpause",
      "outputs": [],
      "stateMutability": "nonpayable",
      "type": "function"
    }
  ],
  "bytecode": "0x60c06040523480156200001157600080fd5b5060405162002ac638038062002ac6833981810160405281019062000037919062000332565b60008060006101000a81548160ff0219169083151502179055506200007162000065620000f860201b60201c565b6200010060201b60201c565b6200008282620001c560201b60201c565b8173ffffffffffffffffffffffffffffffffffffffff1660808173ffffffffffffffffffffffffffffffffffffffff1660601b815250508073ffffffffffffffffffffffffffffffffffffffff1660a08173ffffffffffffffffffffffffffffffffffffffff1660601b8152505050506200050a565b600033905090565b60008060019054906101000a900473ffffffffffffffffffffffffffffffffffffffff16905081600060016101000a81548173ffffffffffffffffffffffffffffffffffffffff021916908373ffffffffffffffffffffffffffffffffffffffff1602179055508173ffffffffffffffffffffffffffffffffffffffff168173ffffffffffffffffffffffffffffffffffffffff167f8be0079c531659141344cd1fd0a4f28419497f9722a3daafe3b4186f6b6457e060405160405180910390a35050565b620001d5620000f860201b60201c565b73ffffffffffffffffffffffffffffffffffffffff16620001fb620002db60201b60201c565b73ffffffffffffffffffffffffffffffffffffffff161462000254576040517f08c379a00000000000000000000000000000000000000000000000000000000081526004016200024b90620003e3565b60405180910390fd5b600073ffffffffffffffffffffffffffffffffffffffff168173ffffffffffffffffffffffffffffffffffffffff161415620002c7576040517f08c379a0000000000000000000000000000000000000000000000000000000008152600401620002be90620003c1565b60405180910390fd5b620002d8816200010060201b60201c565b50565b60008060019054906101000a900473ffffffffffffffffffffffffffffffffffffffff16905090565b6000815190506200031581620004d6565b92915050565b6000815190506200032c81620004f0565b92915050565b600080604083850312156200034657600080fd5b6000620003568582860162000304565b925050602062000369858286016200031b565b9150509250929050565b60006200038260268362000405565b91506200038f826200045e565b604082019050919050565b6000620003a960208362000405565b9150620003b682620004ad565b602082019050919050565b60006020820190508181036000830152620003dc8162000373565b9050919050565b60006020820190508181036000830152620003fe816200039a565b9050919050565b600082825260208201905092915050565b600062000423826200043e565b9050919050565b6000620004378262000416565b9050919050565b600073ffffffffffffffffffffffffffffffffffffffff82169050919050565b7f4f776e61626c653a206e6577206f776e657220697320746865207a65726f206160008201527f6464726573730000000000000000000000000000000000000000000000000000602082015250565b7f4f776e61626c653a2063616c6c6572206973206e6f7420746865206f776e6572600082015250565b620004e18162000416565b8114620004ed57600080fd5b50565b620004fb816200042a565b81146200050757600080fd5b50565b60805160601c60a05160601c61257b6200054b600039600081816106cb0152610f97015260008181610a0d01528181610f750152610fe1015261257b6000f3fe608060405234801561001057600080fd5b506004361061010b5760003560e01c80635c975abb116100a25780637f649783116100715780637f649783146102a65780638456cb59146102c25780638da5cb5b146102cc578063cce7ec13146102ea578063f2fde38b146103065761010b565b80635c975abb1461023057806370cd22ae1461024e578063715018a61461027e5780637532ed2b146102885761010b565b80633f4ba83a116100de5780633f4ba83a146101aa57806348e44272146101b45780634c3a0255146101e4578063548db174146102145761010b565b80630903df0b14610110578063209887941461012c5780633af32abf1461015c5780633ca5b2341461018c575b600080fd5b61012a60048036038101906101259190611924565b610322565b005b61014660048036038101906101419190611a49565b610685565b6040516101539190611ee3565b60405180910390f35b610176600480360381019061017191906118ba565b6106a9565b6040516101839190611d2b565b60405180910390f35b6101946106c9565b6040516101a19190611d46565b60405180910390f35b6101b26106ed565b005b6101ce60048036038101906101c991906119e4565b610773565b6040516101db9190611ee3565b60405180910390f35b6101fe60048036038101906101f99190611a49565b61078b565b60405161020b9190611ee3565b60405180910390f35b61022e600480360381019061022991906118e3565b6107af565b005b61023861092e565b6040516102459190611d2b565b60405180910390f35b61026860048036038101906102639190611a49565b610944565b6040516102759190611d46565b60405180910390f35b610286610983565b005b610290610a0b565b60405161029d9190611cd9565b60405180910390f35b6102c060048036038101906102bb91906118e3565b610a2f565b005b6102ca610bae565b005b6102d4610c34565b6040516102e19190611cd9565b60405180910390f35b61030460048036038101906102ff9190611a0d565b610c5d565b005b610320600480360381019061031b91906118ba565b611032565b005b61032a61112a565b73ffffffffffffffffffffffffffffffffffffffff16610348610c34565b73ffffffffffffffffffffffffffffffffffffffff161461039e576040517f08c379a000000000000000000000000000000000000000000000000000000000815260040161039590611e43565b60405180910390fd5b6103a661092e565b156103e6576040517f08c379a00000000000000000000000000000000000000000000000000000000081526004016103dd90611e23565b60405180910390fd5b815183511480156103f8575080518251145b610437576040517f08c379a000000000000000000000000000000000000000000000000000000000815260040161042e90611e03565b60405180910390fd5b600160006104459190611630565b600260006104539190611651565b600360006104619190611651565b60008351905060005b8181101561067e5760018582815181106104ad577f4e487b7100000000000000000000000000000000000000000000000000000000600052603260045260246000fd5b60200260200101519080600181540180825580915050600190039060005260206000200160009091909190916101000a81548173ffffffffffffffffffffffffffffffffffffffff021916908373ffffffffffffffffffffffffffffffffffffffff1602179055506002848281518110610550577f4e487b7100000000000000000000000000000000000000000000000000000000600052603260045260246000fd5b6020026020010151908060018154018082558091505060019003906000526020600020016000909190919091505560038382815181106105b9577f4e487b7100000000000000000000000000000000000000000000000000000000600052603260045260246000fd5b602002602001015190806001815401808255809150506001900390600052602060002001600090919091909150558060056000878481518110610625577f4e487b7100000000000000000000000000000000000000000000000000000000600052603260045260246000fd5b602002602001015173ffffffffffffffffffffffffffffffffffffffff1673ffffffffffffffffffffffffffffffffffffffff1681526020019081526020016000208190555080806106769061219c565b91505061046a565b5050505050565b6002818154811061069557600080fd5b906000526020600020016000915090505481565b60046020528060005260406000206000915054906101000a900460ff1681565b7f000000000000000000000000000000000000000000000000000000000000000081565b6106f561112a565b73ffffffffffffffffffffffffffffffffffffffff16610713610c34565b73ffffffffffffffffffffffffffffffffffffffff1614610769576040517f08c379a000000000000000000000000000000000000000000000000000000000815260040161076090611e43565b60405180910390fd5b610771611132565b565b60056020528060005260406000206000915090505481565b6003818154811061079b57600080fd5b906000526020600020016000915090505481565b6107b761112a565b73ffffffffffffffffffffffffffffffffffffffff166107d5610c34565b73ffffffffffffffffffffffffffffffffffffffff161461082b576040517f08c379a000000000000000000000000000000000000000000000000000000000815260040161082290611e43565b60405180910390fd5b61083361092e565b15610873576040517f08c379a000000000000000000000000000000000000000000000000000000000815260040161086a90611e23565b60405180910390fd5b60005b815181101561092a576000600460008484815181106108be577f4e487b7100000000000000000000000000000000000000000000000000000000600052603260045260246000fd5b602002602001015173ffffffffffffffffffffffffffffffffffffffff1673ffffffffffffffffffffffffffffffffffffffff16815260200190815260200160002060006101000a81548160ff02191690831515021790555080806109229061219c565b915050610876565b5050565b60008060009054906101000a900460ff16905090565b6001818154811061095457600080fd5b906000526020600020016000915054906101000a900473ffffffffffffffffffffffffffffffffffffffff1681565b61098b61112a565b73ffffffffffffffffffffffffffffffffffffffff166109a9610c34565b73ffffffffffffffffffffffffffffffffffffffff16146109ff576040517f08c379a00000000000000000000000000000000000000000000000000000000081526004016109f690611e43565b60405180910390fd5b610a0960006111d3565b565b7f000000000000000000000000000000000000000000000000000000000000000081565b610a3761112a565b73ffffffffffffffffffffffffffffffffffffffff16610a55610c34565b73ffffffffffffffffffffffffffffffffffffffff1614610aab576040517f08c379a0000000000000000000000000000000000000000000000000000000008152600401610aa290611e43565b60405180910390fd5b610ab361092e565b15610af3576040517f08c379a0000000000000000000000000000000000000000000000000000000008152600401610aea90611e23565b60405180910390fd5b60005b8151811015610baa57600160046000848481518110610b3e577f4e487b7100000000000000000000000000000000000000000000000000000000600052603260045260246000fd5b602002602001015173ffffffffffffffffffffffffffffffffffffffff1673ffffffffffffffffffffffffffffffffffffffff16815260200190815260200160002060006101000a81548160ff0219169083151502179055508080610ba29061219c565b915050610af6565b5050565b610bb661112a565b73ffffffffffffffffffffffffffffffffffffffff16610bd4610c34565b73ffffffffffffffffffffffffffffffffffffffff1614610c2a576040517f08c379a0000000000000000000000000000000000000000000000000000000008152600401610c2190611e43565b60405180910390fd5b610c32611298565b565b60008060019054906101000a900473ffffffffffffffffffffffffffffffffffffffff16905090565b610c6561092e565b15610ca5576040517f08c379a0000000000000000000000000000000000000000000000000000000008152600401610c9c90611e23565b60405180910390fd5b600460003373ffffffffffffffffffffffffffffffffffffffff1673ffffffffffffffffffffffffffffffffffffffff16815260200190815260200160002060009054906101000a900460ff16610d31576040517f08c379a0000000000000000000000000000000000000000000000000000000008152600401610d2890611e63565b60405180910390fd5b670de0b6b3a76400008110158015610d5c57506000670de0b6b3a764000082610d5a91906121e5565b145b610d9b576040517f08c379a0000000000000000000000000000000000000000000000000000000008152600401610d9290611dc3565b60405180910390fd5b6000600560008473ffffffffffffffffffffffffffffffffffffffff1673ffffffffffffffffffffffffffffffffffffffff168152602001908152602001600020549050600060038281548110610e1b577f4e487b7100000000000000000000000000000000000000000000000000000000600052603260045260246000fd5b9060005260206000200154905080838573ffffffffffffffffffffffffffffffffffffffff166370a08231336040518263ffffffff1660e01b8152600401610e639190611cd9565b60206040518083038186803b158015610e7b57600080fd5b505afa158015610e8f573d6000803e3d6000fd5b505050506040513d601f19601f82011682018060405250810190610eb39190611a72565b610ebd9190611fd9565b1115610efe576040517f08c379a0000000000000000000000000000000000000000000000000000000008152600401610ef590611e83565b60405180910390fd5b600060028381548110610f3a577f4e487b7100000000000000000000000000000000000000000000000000000000600052603260045260246000fd5b906000526020600020015490506000670de0b6b3a764000085610f5d919061202f565b905060008282610f6d9190612060565b9050610fdc337f0000000000000000000000000000000000000000000000000000000000000000837f000000000000000000000000000000000000000000000000000000000000000073ffffffffffffffffffffffffffffffffffffffff1661133a909392919063ffffffff16565b6110297f000000000000000000000000000000000000000000000000000000000000000033888a73ffffffffffffffffffffffffffffffffffffffff1661133a909392919063ffffffff16565b50505050505050565b61103a61112a565b73ffffffffffffffffffffffffffffffffffffffff16611058610c34565b73ffffffffffffffffffffffffffffffffffffffff16146110ae576040517f08c379a00000000000000000000000000000000000000000000000000000000081526004016110a590611e43565b60405180910390fd5b600073ffffffffffffffffffffffffffffffffffffffff168173ffffffffffffffffffffffffffffffffffffffff16141561111e576040517f08c379a000000000000000000000000000000000000000000000000000000000815260040161111590611da3565b60405180910390fd5b611127816111d3565b50565b600033905090565b61113a61092e565b611179576040517f08c379a000000000000000000000000000000000000000000000000000000000815260040161117090611d83565b60405180910390fd5b60008060006101000a81548160ff0219169083151502179055507f5db9ee0a495bf2e6ff9c91a7834c1ba4fdd244a5e8aa4e537bd38aeae4b073aa6111bc61112a565b6040516111c99190611cd9565b60405180910390a1565b60008060019054906101000a900473ffffffffffffffffffffffffffffffffffffffff16905081600060016101000a81548173ffffffffffffffffffffffffffffffffffffffff021916908373ffffffffffffffffffffffffffffffffffffffff1602179055508173ffffffffffffffffffffffffffffffffffffffff168173ffffffffffffffffffffffffffffffffffffffff167f8be0079c531659141344cd1fd0a4f28419497f9722a3daafe3b4186f6b6457e060405160405180910390a35050565b6112a061092e565b156112e0576040517f08c379a00000000000000000000000000000000000000000000000000000000081526004016112d790611e23565b60405180910390fd5b60016000806101000a81548160ff0219169083151502179055507f62e78cea01bee320cd4e420270b5ea74000d11b0c9f74754ebdbfc544b05a25861132361112a565b6040516113309190611cd9565b60405180910390a1565b6113bd846323b872dd60e01b85858560405160240161135b93929190611cf4565b604051602081830303815290604052907bffffffffffffffffffffffffffffffffffffffffffffffffffffffff19166020820180517bffffffffffffffffffffffffffffffffffffffffffffffffffffffff83818316178352505050506113c3565b50505050565b6000611425826040518060400160405280602081526020017f5361666545524332303a206c6f772d6c6576656c2063616c6c206661696c65648152508573ffffffffffffffffffffffffffffffffffffffff1661148a9092919063ffffffff16565b9050600081511115611485578080602001905181019061144591906119bb565b611484576040517f08c379a000000000000000000000000000000000000000000000000000000000815260040161147b90611ec3565b60405180910390fd5b5b505050565b606061149984846000856114a2565b90509392505050565b6060824710156114e7576040517f08c379a00000000000000000000000000000000000000000000000000000000081526004016114de90611de3565b60405180910390fd5b6114f0856115b6565b61152f576040517f08c379a000000000000000000000000000000000000000000000000000000000815260040161152690611ea3565b60405180910390fd5b6000808673ffffffffffffffffffffffffffffffffffffffff1685876040516115589190611cc2565b60006040518083038185875af1925050503d8060008114611595576040519150601f19603f3d011682016040523d82523d6000602084013e61159a565b606091505b50915091506115aa8282866115c9565b92505050949350505050565b600080823b905060008111915050919050565b606083156115d957829050611629565b6000835111156115ec5782518084602001fd5b816040517f08c379a00000000000000000000000000000000000000000000000000000000081526004016116209190611d61565b60405180910390fd5b9392505050565b508054600082559060005260206000209081019061164e9190611672565b50565b508054600082559060005260206000209081019061166f9190611672565b50565b5b8082111561168b576000816000905550600101611673565b5090565b60006116a261169d84611f23565b611efe565b905080838252602082019050828560208602820111156116c157600080fd5b60005b858110156116f157816116d788826117d3565b8452602084019350602083019250506001810190506116c4565b5050509392505050565b600061170e61170984611f4f565b611efe565b9050808382526020820190508285602086028201111561172d57600080fd5b60005b8581101561175d5781611743888261187b565b845260208401935060208301925050600181019050611730565b5050509392505050565b600061177a61177584611f7b565b611efe565b9050808382526020820190508285602086028201111561179957600080fd5b60005b858110156117c957816117af8882611890565b84526020840193506020830192505060018101905061179c565b5050509392505050565b6000813590506117e2816124e9565b92915050565b600082601f8301126117f957600080fd5b813561180984826020860161168f565b91505092915050565b600082601f83011261182357600080fd5b81356118338482602086016116fb565b91505092915050565b600082601f83011261184d57600080fd5b813561185d848260208601611767565b91505092915050565b60008151905061187581612500565b92915050565b60008135905061188a81612517565b92915050565b60008135905061189f8161252e565b92915050565b6000815190506118b48161252e565b92915050565b6000602082840312156118cc57600080fd5b60006118da848285016117d3565b91505092915050565b6000602082840312156118f557600080fd5b600082013567ffffffffffffffff81111561190f57600080fd5b61191b848285016117e8565b91505092915050565b60008060006060848603121561193957600080fd5b600084013567ffffffffffffffff81111561195357600080fd5b61195f86828701611812565b935050602084013567ffffffffffffffff81111561197c57600080fd5b6119888682870161183c565b925050604084013567ffffffffffffffff8111156119a557600080fd5b6119b18682870161183c565b9150509250925092565b6000602082840312156119cd57600080fd5b60006119db84828501611866565b91505092915050565b6000602082840312156119f657600080fd5b6000611a048482850161187b565b91505092915050565b60008060408385031215611a2057600080fd5b6000611a2e8582860161187b565b9250506020611a3f85828601611890565b9150509250929050565b600060208284031215611a5b57600080fd5b6000611a6984828501611890565b91505092915050565b600060208284031215611a8457600080fd5b6000611a92848285016118a5565b91505092915050565b611aa4816120ba565b82525050565b611ab3816120cc565b82525050565b6000611ac482611fa7565b611ace8185611fbd565b9350611ade818560208601612138565b80840191505092915050565b611af381612114565b82525050565b6000611b0482611fb2565b611b0e8185611fc8565b9350611b1e818560208601612138565b611b27816122a3565b840191505092915050565b6000611b3f601483611fc8565b9150611b4a826122b4565b602082019050919050565b6000611b62602683611fc8565b9150611b6d826122dd565b604082019050919050565b6000611b85601b83611fc8565b9150611b908261232c565b602082019050919050565b6000611ba8602683611fc8565b9150611bb382612355565b604082019050919050565b6000611bcb601b83611fc8565b9150611bd6826123a4565b602082019050919050565b6000611bee601083611fc8565b9150611bf9826123cd565b602082019050919050565b6000611c11602083611fc8565b9150611c1c826123f6565b602082019050919050565b6000611c34601c83611fc8565b9150611c3f8261241f565b602082019050919050565b6000611c57601683611fc8565b9150611c6282612448565b602082019050919050565b6000611c7a601d83611fc8565b9150611c8582612471565b602082019050919050565b6000611c9d602a83611fc8565b9150611ca88261249a565b604082019050919050565b611cbc8161210a565b82525050565b6000611cce8284611ab9565b915081905092915050565b6000602082019050611cee6000830184611a9b565b92915050565b6000606082019050611d096000830186611a9b565b611d166020830185611a9b565b611d236040830184611cb3565b949350505050565b6000602082019050611d406000830184611aaa565b92915050565b6000602082019050611d5b6000830184611aea565b92915050565b60006020820190508181036000830152611d7b8184611af9565b905092915050565b60006020820190508181036000830152611d9c81611b32565b9050919050565b60006020820190508181036000830152611dbc81611b55565b9050919050565b60006020820190508181036000830152611ddc81611b78565b9050919050565b60006020820190508181036000830152611dfc81611b9b565b9050919050565b60006020820190508181036000830152611e1c81611bbe565b9050919050565b60006020820190508181036000830152611e3c81611be1565b9050919050565b60006020820190508181036000830152611e5c81611c04565b9050919050565b60006020820190508181036000830152611e7c81611c27565b9050919050565b60006020820190508181036000830152611e9c81611c4a565b9050919050565b60006020820190508181036000830152611ebc81611c6d565b9050919050565b60006020820190508181036000830152611edc81611c90565b9050919050565b6000602082019050611ef86000830184611cb3565b92915050565b6000611f08611f19565b9050611f14828261216b565b919050565b6000604051905090565b600067ffffffffffffffff821115611f3e57611f3d612274565b5b602082029050602081019050919050565b600067ffffffffffffffff821115611f6a57611f69612274565b5b602082029050602081019050919050565b600067ffffffffffffffff821115611f9657611f95612274565b5b602082029050602081019050919050565b600081519050919050565b600081519050919050565b600081905092915050565b600082825260208201905092915050565b6000611fe48261210a565b9150611fef8361210a565b9250827fffffffffffffffffffffffffffffffffffffffffffffffffffffffffffffffff0382111561202457612023612216565b5b828201905092915050565b600061203a8261210a565b91506120458361210a565b92508261205557612054612245565b5b828204905092915050565b600061206b8261210a565b91506120768361210a565b9250817fffffffffffffffffffffffffffffffffffffffffffffffffffffffffffffffff04831182151516156120af576120ae612216565b5b828202905092915050565b60006120c5826120ea565b9050919050565b60008115159050919050565b60006120e3826120ba565b9050919050565b600073ffffffffffffffffffffffffffffffffffffffff82169050919050565b6000819050919050565b600061211f82612126565b9050919050565b6000612131826120ea565b9050919050565b60005b8381101561215657808201518184015260208101905061213b565b83811115612165576000848401525b50505050565b612174826122a3565b810181811067ffffffffffffffff8211171561219357612192612274565b5b80604052505050565b60006121a78261210a565b91507fffffffffffffffffffffffffffffffffffffffffffffffffffffffffffffffff8214156121da576121d9612216565b5b600182019050919050565b60006121f08261210a565b91506121fb8361210a565b92508261220b5761220a612245565b5b828206905092915050565b7f4e487b7100000000000000000000000000000000000000000000000000000000600052601160045260246000fd5b7f4e487b7100000000000000000000000000000000000000000000000000000000600052601260045260246000fd5b7f4e487b7100000000000000000000000000000000000000000000000000000000600052604160045260246000fd5b6000601f19601f8301169050919050565b7f5061757361626c653a206e6f7420706175736564000000000000000000000000600082015250565b7f4f776e61626c653a206e6577206f776e657220697320746865207a65726f206160008201527f6464726573730000000000000000000000000000000000000000000000000000602082015250565b7f426f6f7374657253616c653a20696e76616c696420616d6f756e740000000000600082015250565b7f416464726573733a20696e73756666696369656e742062616c616e636520666f60008201527f722063616c6c0000000000000000000000000000000000000000000000000000602082015250565b7f426f6f7374657253616c653a20696e76616c696420636f6e6669670000000000600082015250565b7f5061757361626c653a2070617573656400000000000000000000000000000000600082015250565b7f4f776e61626c653a2063616c6c6572206973206e6f7420746865206f776e6572600082015250565b7f426f6f7374657253616c653a206e6f742077686974656c697374656400000000600082015250565b7f426f6f7374657253616c653a2061626f76652063617000000000000000000000600082015250565b7f416464726573733a2063616c6c20746f206e6f6e2d636f6e7472616374000000600082015250565b7f5361666545524332303a204552433230206f7065726174696f6e20646964206e60008201527f6f74207375636365656400000000000000000000000000000000000000000000602082015250565b6124f2816120ba565b81146124fd57600080fd5b50565b612509816120cc565b811461251457600080fd5b50565b612520816120d8565b811461252b57600080fd5b50565b6125378161210a565b811461254257600080fd5b5056fea2646970667358221220fc5d0cea0473227d372324e3b81d7d6c40594cd100b0498012a33ed7a0eaf06164736f6c63430008040033",
  "linkReferences": {},
  "deployedLinkReferences": {}
}