{
  "_format": "hh-sol-artifact-1",
  "contractName": "BoosterSale",
  "sourceName": "contracts/booster/BoosterSale.sol",
  "abi": [
    {
      "inputs": [
        {
          "internalType": "address",
          "name": "_boosterOwner",
          "type": "address"
        },
        {
          "internalType": "contract IERC20",
          "name": "_busd",
          "type": "address"
        }
      ],
      "stateMutability": "nonpayable",
      "type": "constructor"
    },
    {
      "anonymous": false,
      "inputs": [
        {
          "indexed": true,
          "internalType": "address",
          "name": "previousOwner",
          "type": "address"
        },
        {
          "indexed": true,
          "internalType": "address",
          "name": "newOwner",
          "type": "address"
        }
      ],
      "name": "OwnershipTransferred",
      "type": "event"
    },
    {
      "anonymous": false,
      "inputs": [
        {
          "indexed": false,
          "internalType": "address",
          "name": "account",
          "type": "address"
        }
      ],
      "name": "Paused",
      "type": "event"
    },
    {
      "anonymous": false,
      "inputs": [
        {
          "indexed": false,
          "internalType": "address",
          "name": "account",
          "type": "address"
        }
      ],
      "name": "Unpaused",
      "type": "event"
    },
    {
      "inputs": [
        {
          "internalType": "address[]",
          "name": "_buyers",
          "type": "address[]"
        }
      ],
      "name": "addToWhitelist",
      "outputs": [],
      "stateMutability": "nonpayable",
      "type": "function"
    },
    {
      "inputs": [],
      "name": "boosterOwner",
      "outputs": [
        {
          "internalType": "address",
          "name": "",
          "type": "address"
        }
      ],
      "stateMutability": "view",
      "type": "function"
    },
    {
      "inputs": [
        {
          "internalType": "contract IERC20",
          "name": "",
          "type": "address"
        }
      ],
      "name": "boosterToBoosterIndex",
      "outputs": [
        {
          "internalType": "uint256",
          "name": "",
          "type": "uint256"
        }
      ],
      "stateMutability": "view",
      "type": "function"
    },
    {
      "inputs": [
        {
          "internalType": "uint256",
          "name": "",
          "type": "uint256"
        }
      ],
      "name": "boosters",
      "outputs": [
        {
          "internalType": "contract IERC20",
          "name": "",
          "type": "address"
        }
      ],
      "stateMutability": "view",
      "type": "function"
    },
    {
      "inputs": [],
      "name": "busd",
      "outputs": [
        {
          "internalType": "contract IERC20",
          "name": "",
          "type": "address"
        }
      ],
      "stateMutability": "view",
      "type": "function"
    },
    {
      "inputs": [
        {
          "internalType": "uint256",
          "name": "",
          "type": "uint256"
        }
      ],
      "name": "busdPricePerBoosterInWei",
      "outputs": [
        {
          "internalType": "uint256",
          "name": "",
          "type": "uint256"
        }
      ],
      "stateMutability": "view",
      "type": "function"
    },
    {
      "inputs": [
        {
          "internalType": "contract IERC20",
          "name": "booster",
          "type": "address"
        },
        {
          "internalType": "uint256",
          "name": "_numberOfBoostersInWei",
          "type": "uint256"
        }
      ],
      "name": "buy",
      "outputs": [],
      "stateMutability": "nonpayable",
      "type": "function"
    },
    {
      "inputs": [
        {
          "internalType": "uint256",
          "name": "",
          "type": "uint256"
        }
      ],
      "name": "capPerBoosterInWei",
      "outputs": [
        {
          "internalType": "uint256",
          "name": "",
          "type": "uint256"
        }
      ],
      "stateMutability": "view",
      "type": "function"
    },
    {
      "inputs": [
        {
          "internalType": "contract IERC20[]",
          "name": "_boosters",
          "type": "address[]"
        },
        {
          "internalType": "uint256[]",
          "name": "_busdPricePerBoosterInWei",
          "type": "uint256[]"
        },
        {
          "internalType": "uint256[]",
          "name": "_capPerBoosterInWei",
          "type": "uint256[]"
        }
      ],
      "name": "configure",
      "outputs": [],
      "stateMutability": "nonpayable",
      "type": "function"
    },
    {
      "inputs": [
        {
          "internalType": "address",
          "name": "",
          "type": "address"
        }
      ],
      "name": "isWhitelisted",
      "outputs": [
        {
          "internalType": "bool",
          "name": "",
          "type": "bool"
        }
      ],
      "stateMutability": "view",
      "type": "function"
    },
    {
      "inputs": [],
      "name": "owner",
      "outputs": [
        {
          "internalType": "address",
          "name": "",
          "type": "address"
        }
      ],
      "stateMutability": "view",
      "type": "function"
    },
    {
      "inputs": [],
      "name": "pause",
      "outputs": [],
      "stateMutability": "nonpayable",
      "type": "function"
    },
    {
      "inputs": [],
      "name": "paused",
      "outputs": [
        {
          "internalType": "bool",
          "name": "",
          "type": "bool"
        }
      ],
      "stateMutability": "view",
      "type": "function"
    },
    {
      "inputs": [
        {
          "internalType": "address[]",
          "name": "_buyers",
          "type": "address[]"
        }
      ],
      "name": "removeFromWhitelist",
      "outputs": [],
      "stateMutability": "nonpayable",
      "type": "function"
    },
    {
      "inputs": [],
      "name": "renounceOwnership",
      "outputs": [],
      "stateMutability": "nonpayable",
      "type": "function"
    },
    {
      "inputs": [
        {
          "internalType": "address",
          "name": "newOwner",
          "type": "address"
        }
      ],
      "name": "transferOwnership",
      "outputs": [],
      "stateMutability": "nonpayable",
      "type": "function"
    },
    {
      "inputs": [],
      "name": "unpause",
      "outputs": [],
      "stateMutability": "nonpayable",
      "type": "function"
    },
    {
      "inputs": [
        {
          "internalType": "address",
          "name": "",
          "type": "address"
        },
        {
          "internalType": "uint256",
          "name": "",
          "type": "uint256"
        }
      ],
      "name": "walletToBoosterIndexToBoughtInWei",
      "outputs": [
        {
          "internalType": "uint256",
          "name": "",
          "type": "uint256"
        }
      ],
      "stateMutability": "view",
      "type": "function"
    }
  ],
  "bytecode": "0x60c06040523480156200001157600080fd5b5060405162002c3938038062002c39833981810160405281019062000037919062000332565b60008060006101000a81548160ff0219169083151502179055506200007162000065620000f860201b60201c565b6200010060201b60201c565b6200008282620001c560201b60201c565b8173ffffffffffffffffffffffffffffffffffffffff1660808173ffffffffffffffffffffffffffffffffffffffff1660601b815250508073ffffffffffffffffffffffffffffffffffffffff1660a08173ffffffffffffffffffffffffffffffffffffffff1660601b8152505050506200050a565b600033905090565b60008060019054906101000a900473ffffffffffffffffffffffffffffffffffffffff16905081600060016101000a81548173ffffffffffffffffffffffffffffffffffffffff021916908373ffffffffffffffffffffffffffffffffffffffff1602179055508173ffffffffffffffffffffffffffffffffffffffff168173ffffffffffffffffffffffffffffffffffffffff167f8be0079c531659141344cd1fd0a4f28419497f9722a3daafe3b4186f6b6457e060405160405180910390a35050565b620001d5620000f860201b60201c565b73ffffffffffffffffffffffffffffffffffffffff16620001fb620002db60201b60201c565b73ffffffffffffffffffffffffffffffffffffffff161462000254576040517f08c379a00000000000000000000000000000000000000000000000000000000081526004016200024b90620003e3565b60405180910390fd5b600073ffffffffffffffffffffffffffffffffffffffff168173ffffffffffffffffffffffffffffffffffffffff161415620002c7576040517f08c379a0000000000000000000000000000000000000000000000000000000008152600401620002be90620003c1565b60405180910390fd5b620002d8816200010060201b60201c565b50565b60008060019054906101000a900473ffffffffffffffffffffffffffffffffffffffff16905090565b6000815190506200031581620004d6565b92915050565b6000815190506200032c81620004f0565b92915050565b600080604083850312156200034657600080fd5b6000620003568582860162000304565b925050602062000369858286016200031b565b9150509250929050565b60006200038260268362000405565b91506200038f826200045e565b604082019050919050565b6000620003a960208362000405565b9150620003b682620004ad565b602082019050919050565b60006020820190508181036000830152620003dc8162000373565b9050919050565b60006020820190508181036000830152620003fe816200039a565b9050919050565b600082825260208201905092915050565b600062000423826200043e565b9050919050565b6000620004378262000416565b9050919050565b600073ffffffffffffffffffffffffffffffffffffffff82169050919050565b7f4f776e61626c653a206e6577206f776e657220697320746865207a65726f206160008201527f6464726573730000000000000000000000000000000000000000000000000000602082015250565b7f4f776e61626c653a2063616c6c6572206973206e6f7420746865206f776e6572600082015250565b620004e18162000416565b8114620004ed57600080fd5b50565b620004fb816200042a565b81146200050757600080fd5b50565b60805160601c60a05160601c6126ee6200054b6000396000818161072b0152611064015260008181610a6d0152818161104201526110ae01526126ee6000f3fe608060405234801561001057600080fd5b50600436106101165760003560e01c80635c975abb116100a25780637f649783116100715780637f649783146102e15780638456cb59146102fd5780638da5cb5b14610307578063cce7ec1314610325578063f2fde38b1461034157610116565b80635c975abb1461026b57806370cd22ae14610289578063715018a6146102b95780637532ed2b146102c357610116565b80633ca5b234116100e95780633ca5b234146101c75780633f4ba83a146101e557806348e44272146101ef5780634c3a02551461021f578063548db1741461024f57610116565b80630903df0b1461011b5780632098879414610137578063291d9142146101675780633af32abf14610197575b600080fd5b61013560048036038101906101309190611a97565b61035d565b005b610151600480360381019061014c9190611bbc565b6106c0565b60405161015e9190612056565b60405180910390f35b610181600480360381019061017c9190611a1a565b6106e4565b60405161018e9190612056565b60405180910390f35b6101b160048036038101906101ac91906119f1565b610709565b6040516101be9190611e9e565b60405180910390f35b6101cf610729565b6040516101dc9190611eb9565b60405180910390f35b6101ed61074d565b005b61020960048036038101906102049190611b57565b6107d3565b6040516102169190612056565b60405180910390f35b61023960048036038101906102349190611bbc565b6107eb565b6040516102469190612056565b60405180910390f35b61026960048036038101906102649190611a56565b61080f565b005b61027361098e565b6040516102809190611e9e565b60405180910390f35b6102a3600480360381019061029e9190611bbc565b6109a4565b6040516102b09190611eb9565b60405180910390f35b6102c16109e3565b005b6102cb610a6b565b6040516102d89190611e4c565b60405180910390f35b6102fb60048036038101906102f69190611a56565b610a8f565b005b610305610c0e565b005b61030f610c94565b60405161031c9190611e4c565b60405180910390f35b61033f600480360381019061033a9190611b80565b610cbd565b005b61035b600480360381019061035691906119f1565b611169565b005b610365611261565b73ffffffffffffffffffffffffffffffffffffffff16610383610c94565b73ffffffffffffffffffffffffffffffffffffffff16146103d9576040517f08c379a00000000000000000000000000000000000000000000000000000000081526004016103d090611fb6565b60405180910390fd5b6103e161098e565b15610421576040517f08c379a000000000000000000000000000000000000000000000000000000000815260040161041890611f96565b60405180910390fd5b81518351148015610433575080518251145b610472576040517f08c379a000000000000000000000000000000000000000000000000000000000815260040161046990611f76565b60405180910390fd5b600160006104809190611767565b6002600061048e9190611788565b6003600061049c9190611788565b60008351905060005b818110156106b95760018582815181106104e8577f4e487b7100000000000000000000000000000000000000000000000000000000600052603260045260246000fd5b60200260200101519080600181540180825580915050600190039060005260206000200160009091909190916101000a81548173ffffffffffffffffffffffffffffffffffffffff021916908373ffffffffffffffffffffffffffffffffffffffff160217905550600284828151811061058b577f4e487b7100000000000000000000000000000000000000000000000000000000600052603260045260246000fd5b6020026020010151908060018154018082558091505060019003906000526020600020016000909190919091505560038382815181106105f4577f4e487b7100000000000000000000000000000000000000000000000000000000600052603260045260246000fd5b602002602001015190806001815401808255809150506001900390600052602060002001600090919091909150558060056000878481518110610660577f4e487b7100000000000000000000000000000000000000000000000000000000600052603260045260246000fd5b602002602001015173ffffffffffffffffffffffffffffffffffffffff1673ffffffffffffffffffffffffffffffffffffffff1681526020019081526020016000208190555080806106b19061230f565b9150506104a5565b5050505050565b600281815481106106d057600080fd5b906000526020600020016000915090505481565b6006602052816000526040600020602052806000526040600020600091509150505481565b60046020528060005260406000206000915054906101000a900460ff1681565b7f000000000000000000000000000000000000000000000000000000000000000081565b610755611261565b73ffffffffffffffffffffffffffffffffffffffff16610773610c94565b73ffffffffffffffffffffffffffffffffffffffff16146107c9576040517f08c379a00000000000000000000000000000000000000000000000000000000081526004016107c090611fb6565b60405180910390fd5b6107d1611269565b565b60056020528060005260406000206000915090505481565b600381815481106107fb57600080fd5b906000526020600020016000915090505481565b610817611261565b73ffffffffffffffffffffffffffffffffffffffff16610835610c94565b73ffffffffffffffffffffffffffffffffffffffff161461088b576040517f08c379a000000000000000000000000000000000000000000000000000000000815260040161088290611fb6565b60405180910390fd5b61089361098e565b156108d3576040517f08c379a00000000000000000000000000000000000000000000000000000000081526004016108ca90611f96565b60405180910390fd5b60005b815181101561098a5760006004600084848151811061091e577f4e487b7100000000000000000000000000000000000000000000000000000000600052603260045260246000fd5b602002602001015173ffffffffffffffffffffffffffffffffffffffff1673ffffffffffffffffffffffffffffffffffffffff16815260200190815260200160002060006101000a81548160ff02191690831515021790555080806109829061230f565b9150506108d6565b5050565b60008060009054906101000a900460ff16905090565b600181815481106109b457600080fd5b906000526020600020016000915054906101000a900473ffffffffffffffffffffffffffffffffffffffff1681565b6109eb611261565b73ffffffffffffffffffffffffffffffffffffffff16610a09610c94565b73ffffffffffffffffffffffffffffffffffffffff1614610a5f576040517f08c379a0000000000000000000000000000000000000000000000000000000008152600401610a5690611fb6565b60405180910390fd5b610a69600061130a565b565b7f000000000000000000000000000000000000000000000000000000000000000081565b610a97611261565b73ffffffffffffffffffffffffffffffffffffffff16610ab5610c94565b73ffffffffffffffffffffffffffffffffffffffff1614610b0b576040517f08c379a0000000000000000000000000000000000000000000000000000000008152600401610b0290611fb6565b60405180910390fd5b610b1361098e565b15610b53576040517f08c379a0000000000000000000000000000000000000000000000000000000008152600401610b4a90611f96565b60405180910390fd5b60005b8151811015610c0a57600160046000848481518110610b9e577f4e487b7100000000000000000000000000000000000000000000000000000000600052603260045260246000fd5b602002602001015173ffffffffffffffffffffffffffffffffffffffff1673ffffffffffffffffffffffffffffffffffffffff16815260200190815260200160002060006101000a81548160ff0219169083151502179055508080610c029061230f565b915050610b56565b5050565b610c16611261565b73ffffffffffffffffffffffffffffffffffffffff16610c34610c94565b73ffffffffffffffffffffffffffffffffffffffff1614610c8a576040517f08c379a0000000000000000000000000000000000000000000000000000000008152600401610c8190611fb6565b60405180910390fd5b610c926113cf565b565b60008060019054906101000a900473ffffffffffffffffffffffffffffffffffffffff16905090565b610cc561098e565b15610d05576040517f08c379a0000000000000000000000000000000000000000000000000000000008152600401610cfc90611f96565b60405180910390fd5b600460003373ffffffffffffffffffffffffffffffffffffffff1673ffffffffffffffffffffffffffffffffffffffff16815260200190815260200160002060009054906101000a900460ff16610d91576040517f08c379a0000000000000000000000000000000000000000000000000000000008152600401610d8890611fd6565b60405180910390fd5b670de0b6b3a76400008110158015610dbc57506000670de0b6b3a764000082610dba9190612358565b145b610dfb576040517f08c379a0000000000000000000000000000000000000000000000000000000008152600401610df290611f36565b60405180910390fd5b6000600560008473ffffffffffffffffffffffffffffffffffffffff1673ffffffffffffffffffffffffffffffffffffffff168152602001908152602001600020549050600060038281548110610e7b577f4e487b7100000000000000000000000000000000000000000000000000000000600052603260045260246000fd5b9060005260206000200154905060008473ffffffffffffffffffffffffffffffffffffffff166370a08231336040518263ffffffff1660e01b8152600401610ec39190611e4c565b60206040518083038186803b158015610edb57600080fd5b505afa158015610eef573d6000803e3d6000fd5b505050506040513d601f19601f82011682018060405250810190610f139190611be5565b90506000600660003373ffffffffffffffffffffffffffffffffffffffff1673ffffffffffffffffffffffffffffffffffffffff16815260200190815260200160002060008581526020019081526020016000205490506000818311610f795781610f7b565b825b9050838682610f8a919061214c565b1115610fcb576040517f08c379a0000000000000000000000000000000000000000000000000000000008152600401610fc290611ff6565b60405180910390fd5b600060028681548110611007577f4e487b7100000000000000000000000000000000000000000000000000000000600052603260045260246000fd5b906000526020600020015490506000670de0b6b3a76400008861102a91906121a2565b90506000828261103a91906121d3565b90506110a9337f0000000000000000000000000000000000000000000000000000000000000000837f000000000000000000000000000000000000000000000000000000000000000073ffffffffffffffffffffffffffffffffffffffff16611471909392919063ffffffff16565b6110f67f0000000000000000000000000000000000000000000000000000000000000000338b8d73ffffffffffffffffffffffffffffffffffffffff16611471909392919063ffffffff16565b88600660003373ffffffffffffffffffffffffffffffffffffffff1673ffffffffffffffffffffffffffffffffffffffff16815260200190815260200160002060008a81526020019081526020016000206000828254611156919061214c565b9250508190555050505050505050505050565b611171611261565b73ffffffffffffffffffffffffffffffffffffffff1661118f610c94565b73ffffffffffffffffffffffffffffffffffffffff16146111e5576040517f08c379a00000000000000000000000000000000000000000000000000000000081526004016111dc90611fb6565b60405180910390fd5b600073ffffffffffffffffffffffffffffffffffffffff168173ffffffffffffffffffffffffffffffffffffffff161415611255576040517f08c379a000000000000000000000000000000000000000000000000000000000815260040161124c90611f16565b60405180910390fd5b61125e8161130a565b50565b600033905090565b61127161098e565b6112b0576040517f08c379a00000000000000000000000000000000000000000000000000000000081526004016112a790611ef6565b60405180910390fd5b60008060006101000a81548160ff0219169083151502179055507f5db9ee0a495bf2e6ff9c91a7834c1ba4fdd244a5e8aa4e537bd38aeae4b073aa6112f3611261565b6040516113009190611e4c565b60405180910390a1565b60008060019054906101000a900473ffffffffffffffffffffffffffffffffffffffff16905081600060016101000a81548173ffffffffffffffffffffffffffffffffffffffff021916908373ffffffffffffffffffffffffffffffffffffffff1602179055508173ffffffffffffffffffffffffffffffffffffffff168173ffffffffffffffffffffffffffffffffffffffff167f8be0079c531659141344cd1fd0a4f28419497f9722a3daafe3b4186f6b6457e060405160405180910390a35050565b6113d761098e565b15611417576040517f08c379a000000000000000000000000000000000000000000000000000000000815260040161140e90611f96565b60405180910390fd5b60016000806101000a81548160ff0219169083151502179055507f62e78cea01bee320cd4e420270b5ea74000d11b0c9f74754ebdbfc544b05a25861145a611261565b6040516114679190611e4c565b60405180910390a1565b6114f4846323b872dd60e01b85858560405160240161149293929190611e67565b604051602081830303815290604052907bffffffffffffffffffffffffffffffffffffffffffffffffffffffff19166020820180517bffffffffffffffffffffffffffffffffffffffffffffffffffffffff83818316178352505050506114fa565b50505050565b600061155c826040518060400160405280602081526020017f5361666545524332303a206c6f772d6c6576656c2063616c6c206661696c65648152508573ffffffffffffffffffffffffffffffffffffffff166115c19092919063ffffffff16565b90506000815111156115bc578080602001905181019061157c9190611b2e565b6115bb576040517f08c379a00000000000000000000000000000000000000000000000000000000081526004016115b290612036565b60405180910390fd5b5b505050565b60606115d084846000856115d9565b90509392505050565b60608247101561161e576040517f08c379a000000000000000000000000000000000000000000000000000000000815260040161161590611f56565b60405180910390fd5b611627856116ed565b611666576040517f08c379a000000000000000000000000000000000000000000000000000000000815260040161165d90612016565b60405180910390fd5b6000808673ffffffffffffffffffffffffffffffffffffffff16858760405161168f9190611e35565b60006040518083038185875af1925050503d80600081146116cc576040519150601f19603f3d011682016040523d82523d6000602084013e6116d1565b606091505b50915091506116e1828286611700565b92505050949350505050565b600080823b905060008111915050919050565b6060831561171057829050611760565b6000835111156117235782518084602001fd5b816040517f08c379a00000000000000000000000000000000000000000000000000000000081526004016117579190611ed4565b60405180910390fd5b9392505050565b508054600082559060005260206000209081019061178591906117a9565b50565b50805460008255906000526020600020908101906117a691906117a9565b50565b5b808211156117c25760008160009055506001016117aa565b5090565b60006117d96117d484612096565b612071565b905080838252602082019050828560208602820111156117f857600080fd5b60005b85811015611828578161180e888261190a565b8452602084019350602083019250506001810190506117fb565b5050509392505050565b6000611845611840846120c2565b612071565b9050808382526020820190508285602086028201111561186457600080fd5b60005b85811015611894578161187a88826119b2565b845260208401935060208301925050600181019050611867565b5050509392505050565b60006118b16118ac846120ee565b612071565b905080838252602082019050828560208602820111156118d057600080fd5b60005b8581101561190057816118e688826119c7565b8452602084019350602083019250506001810190506118d3565b5050509392505050565b6000813590506119198161265c565b92915050565b600082601f83011261193057600080fd5b81356119408482602086016117c6565b91505092915050565b600082601f83011261195a57600080fd5b813561196a848260208601611832565b91505092915050565b600082601f83011261198457600080fd5b813561199484826020860161189e565b91505092915050565b6000815190506119ac81612673565b92915050565b6000813590506119c18161268a565b92915050565b6000813590506119d6816126a1565b92915050565b6000815190506119eb816126a1565b92915050565b600060208284031215611a0357600080fd5b6000611a118482850161190a565b91505092915050565b60008060408385031215611a2d57600080fd5b6000611a3b8582860161190a565b9250506020611a4c858286016119c7565b9150509250929050565b600060208284031215611a6857600080fd5b600082013567ffffffffffffffff811115611a8257600080fd5b611a8e8482850161191f565b91505092915050565b600080600060608486031215611aac57600080fd5b600084013567ffffffffffffffff811115611ac657600080fd5b611ad286828701611949565b935050602084013567ffffffffffffffff811115611aef57600080fd5b611afb86828701611973565b925050604084013567ffffffffffffffff811115611b1857600080fd5b611b2486828701611973565b9150509250925092565b600060208284031215611b4057600080fd5b6000611b4e8482850161199d565b91505092915050565b600060208284031215611b6957600080fd5b6000611b77848285016119b2565b91505092915050565b60008060408385031215611b9357600080fd5b6000611ba1858286016119b2565b9250506020611bb2858286016119c7565b9150509250929050565b600060208284031215611bce57600080fd5b6000611bdc848285016119c7565b91505092915050565b600060208284031215611bf757600080fd5b6000611c05848285016119dc565b91505092915050565b611c178161222d565b82525050565b611c268161223f565b82525050565b6000611c378261211a565b611c418185612130565b9350611c518185602086016122ab565b80840191505092915050565b611c6681612287565b82525050565b6000611c7782612125565b611c81818561213b565b9350611c918185602086016122ab565b611c9a81612416565b840191505092915050565b6000611cb260148361213b565b9150611cbd82612427565b602082019050919050565b6000611cd560268361213b565b9150611ce082612450565b604082019050919050565b6000611cf8601b8361213b565b9150611d038261249f565b602082019050919050565b6000611d1b60268361213b565b9150611d26826124c8565b604082019050919050565b6000611d3e601b8361213b565b9150611d4982612517565b602082019050919050565b6000611d6160108361213b565b9150611d6c82612540565b602082019050919050565b6000611d8460208361213b565b9150611d8f82612569565b602082019050919050565b6000611da7601c8361213b565b9150611db282612592565b602082019050919050565b6000611dca60168361213b565b9150611dd5826125bb565b602082019050919050565b6000611ded601d8361213b565b9150611df8826125e4565b602082019050919050565b6000611e10602a8361213b565b9150611e1b8261260d565b604082019050919050565b611e2f8161227d565b82525050565b6000611e418284611c2c565b915081905092915050565b6000602082019050611e616000830184611c0e565b92915050565b6000606082019050611e7c6000830186611c0e565b611e896020830185611c0e565b611e966040830184611e26565b949350505050565b6000602082019050611eb36000830184611c1d565b92915050565b6000602082019050611ece6000830184611c5d565b92915050565b60006020820190508181036000830152611eee8184611c6c565b905092915050565b60006020820190508181036000830152611f0f81611ca5565b9050919050565b60006020820190508181036000830152611f2f81611cc8565b9050919050565b60006020820190508181036000830152611f4f81611ceb565b9050919050565b60006020820190508181036000830152611f6f81611d0e565b9050919050565b60006020820190508181036000830152611f8f81611d31565b9050919050565b60006020820190508181036000830152611faf81611d54565b9050919050565b60006020820190508181036000830152611fcf81611d77565b9050919050565b60006020820190508181036000830152611fef81611d9a565b9050919050565b6000602082019050818103600083015261200f81611dbd565b9050919050565b6000602082019050818103600083015261202f81611de0565b9050919050565b6000602082019050818103600083015261204f81611e03565b9050919050565b600060208201905061206b6000830184611e26565b92915050565b600061207b61208c565b905061208782826122de565b919050565b6000604051905090565b600067ffffffffffffffff8211156120b1576120b06123e7565b5b602082029050602081019050919050565b600067ffffffffffffffff8211156120dd576120dc6123e7565b5b602082029050602081019050919050565b600067ffffffffffffffff821115612109576121086123e7565b5b602082029050602081019050919050565b600081519050919050565b600081519050919050565b600081905092915050565b600082825260208201905092915050565b60006121578261227d565b91506121628361227d565b9250827fffffffffffffffffffffffffffffffffffffffffffffffffffffffffffffffff0382111561219757612196612389565b5b828201905092915050565b60006121ad8261227d565b91506121b88361227d565b9250826121c8576121c76123b8565b5b828204905092915050565b60006121de8261227d565b91506121e98361227d565b9250817fffffffffffffffffffffffffffffffffffffffffffffffffffffffffffffffff048311821515161561222257612221612389565b5b828202905092915050565b60006122388261225d565b9050919050565b60008115159050919050565b60006122568261222d565b9050919050565b600073ffffffffffffffffffffffffffffffffffffffff82169050919050565b6000819050919050565b600061229282612299565b9050919050565b60006122a48261225d565b9050919050565b60005b838110156122c95780820151818401526020810190506122ae565b838111156122d8576000848401525b50505050565b6122e782612416565b810181811067ffffffffffffffff82111715612306576123056123e7565b5b80604052505050565b600061231a8261227d565b91507fffffffffffffffffffffffffffffffffffffffffffffffffffffffffffffffff82141561234d5761234c612389565b5b600182019050919050565b60006123638261227d565b915061236e8361227d565b92508261237e5761237d6123b8565b5b828206905092915050565b7f4e487b7100000000000000000000000000000000000000000000000000000000600052601160045260246000fd5b7f4e487b7100000000000000000000000000000000000000000000000000000000600052601260045260246000fd5b7f4e487b7100000000000000000000000000000000000000000000000000000000600052604160045260246000fd5b6000601f19601f8301169050919050565b7f5061757361626c653a206e6f7420706175736564000000000000000000000000600082015250565b7f4f776e61626c653a206e6577206f776e657220697320746865207a65726f206160008201527f6464726573730000000000000000000000000000000000000000000000000000602082015250565b7f426f6f7374657253616c653a20696e76616c696420616d6f756e740000000000600082015250565b7f416464726573733a20696e73756666696369656e742062616c616e636520666f60008201527f722063616c6c0000000000000000000000000000000000000000000000000000602082015250565b7f426f6f7374657253616c653a20696e76616c696420636f6e6669670000000000600082015250565b7f5061757361626c653a2070617573656400000000000000000000000000000000600082015250565b7f4f776e61626c653a2063616c6c6572206973206e6f7420746865206f776e6572600082015250565b7f426f6f7374657253616c653a206e6f742077686974656c697374656400000000600082015250565b7f426f6f7374657253616c653a2061626f76652063617000000000000000000000600082015250565b7f416464726573733a2063616c6c20746f206e6f6e2d636f6e7472616374000000600082015250565b7f5361666545524332303a204552433230206f7065726174696f6e20646964206e60008201527f6f74207375636365656400000000000000000000000000000000000000000000602082015250565b6126658161222d565b811461267057600080fd5b50565b61267c8161223f565b811461268757600080fd5b50565b6126938161224b565b811461269e57600080fd5b50565b6126aa8161227d565b81146126b557600080fd5b5056fea2646970667358221220ff540aae1a29c44abb8fd95a1a1d4a0b9af6954aabe20dae1c7e97214baeb9f564736f6c63430008040033",
  "linkReferences": {},
  "deployedLinkReferences": {}
}