{
  "_format": "hh-sol-artifact-1",
  "contractName": "BoosterSale",
  "sourceName": "contracts/booster/BoosterSale.sol",
  "abi": [
    {
      "inputs": [
        {
          "internalType": "address",
          "name": "_boosterOwner",
          "type": "address"
        },
        {
          "internalType": "contract IERC20",
          "name": "_busd",
          "type": "address"
        }
      ],
      "stateMutability": "nonpayable",
      "type": "constructor"
    },
    {
      "anonymous": false,
      "inputs": [
        {
          "indexed": true,
          "internalType": "address",
          "name": "previousOwner",
          "type": "address"
        },
        {
          "indexed": true,
          "internalType": "address",
          "name": "newOwner",
          "type": "address"
        }
      ],
      "name": "OwnershipTransferred",
      "type": "event"
    },
    {
      "anonymous": false,
      "inputs": [
        {
          "indexed": false,
          "internalType": "address",
          "name": "account",
          "type": "address"
        }
      ],
      "name": "Paused",
      "type": "event"
    },
    {
      "anonymous": false,
      "inputs": [
        {
          "indexed": false,
          "internalType": "address",
          "name": "account",
          "type": "address"
        }
      ],
      "name": "Unpaused",
      "type": "event"
    },
    {
      "inputs": [
        {
          "internalType": "address[]",
          "name": "_buyers",
          "type": "address[]"
        }
      ],
      "name": "addToWhitelist",
      "outputs": [],
      "stateMutability": "nonpayable",
      "type": "function"
    },
    {
      "inputs": [],
      "name": "boosterOwner",
      "outputs": [
        {
          "internalType": "address",
          "name": "",
          "type": "address"
        }
      ],
      "stateMutability": "view",
      "type": "function"
    },
    {
      "inputs": [
        {
          "internalType": "uint256",
          "name": "",
          "type": "uint256"
        }
      ],
      "name": "boosters",
      "outputs": [
        {
          "internalType": "contract IERC20",
          "name": "",
          "type": "address"
        }
      ],
      "stateMutability": "view",
      "type": "function"
    },
    {
      "inputs": [],
      "name": "busd",
      "outputs": [
        {
          "internalType": "contract IERC20",
          "name": "",
          "type": "address"
        }
      ],
      "stateMutability": "view",
      "type": "function"
    },
    {
      "inputs": [
        {
          "internalType": "uint256",
          "name": "",
          "type": "uint256"
        }
      ],
      "name": "busdPricePerBoosterInWei",
      "outputs": [
        {
          "internalType": "uint256",
          "name": "",
          "type": "uint256"
        }
      ],
      "stateMutability": "view",
      "type": "function"
    },
    {
      "inputs": [
        {
          "internalType": "contract IERC20",
          "name": "booster",
          "type": "address"
        },
        {
          "internalType": "uint256",
          "name": "_numberOfBoostersInWei",
          "type": "uint256"
        }
      ],
      "name": "buy",
      "outputs": [],
      "stateMutability": "nonpayable",
      "type": "function"
    },
    {
      "inputs": [
        {
          "internalType": "uint256",
          "name": "",
          "type": "uint256"
        }
      ],
      "name": "capPerBoosterInWei",
      "outputs": [
        {
          "internalType": "uint256",
          "name": "",
          "type": "uint256"
        }
      ],
      "stateMutability": "view",
      "type": "function"
    },
    {
      "inputs": [
        {
          "internalType": "contract IERC20[]",
          "name": "_boosters",
          "type": "address[]"
        },
        {
          "internalType": "uint256[]",
          "name": "_busdPricePerBoosterInWei",
          "type": "uint256[]"
        },
        {
          "internalType": "uint256[]",
          "name": "_capPerBoosterInWei",
          "type": "uint256[]"
        }
      ],
      "name": "configure",
      "outputs": [],
      "stateMutability": "nonpayable",
      "type": "function"
    },
    {
      "inputs": [
        {
          "internalType": "contract IERC20",
          "name": "booster",
          "type": "address"
        }
      ],
      "name": "getBoosterIndex",
      "outputs": [
        {
          "internalType": "uint256",
          "name": "_index",
          "type": "uint256"
        }
      ],
      "stateMutability": "view",
      "type": "function"
    },
    {
      "inputs": [
        {
          "internalType": "address",
          "name": "",
          "type": "address"
        }
      ],
      "name": "isWhitelisted",
      "outputs": [
        {
          "internalType": "bool",
          "name": "",
          "type": "bool"
        }
      ],
      "stateMutability": "view",
      "type": "function"
    },
    {
      "inputs": [],
      "name": "owner",
      "outputs": [
        {
          "internalType": "address",
          "name": "",
          "type": "address"
        }
      ],
      "stateMutability": "view",
      "type": "function"
    },
    {
      "inputs": [],
      "name": "pause",
      "outputs": [],
      "stateMutability": "nonpayable",
      "type": "function"
    },
    {
      "inputs": [],
      "name": "paused",
      "outputs": [
        {
          "internalType": "bool",
          "name": "",
          "type": "bool"
        }
      ],
      "stateMutability": "view",
      "type": "function"
    },
    {
      "inputs": [
        {
          "internalType": "address[]",
          "name": "_buyers",
          "type": "address[]"
        }
      ],
      "name": "removeFromWhitelist",
      "outputs": [],
      "stateMutability": "nonpayable",
      "type": "function"
    },
    {
      "inputs": [],
      "name": "renounceOwnership",
      "outputs": [],
      "stateMutability": "nonpayable",
      "type": "function"
    },
    {
      "inputs": [
        {
          "internalType": "address",
          "name": "newOwner",
          "type": "address"
        }
      ],
      "name": "transferOwnership",
      "outputs": [],
      "stateMutability": "nonpayable",
      "type": "function"
    },
    {
      "inputs": [],
      "name": "unpause",
      "outputs": [],
      "stateMutability": "nonpayable",
      "type": "function"
    }
  ],
  "bytecode": "0x60c06040523480156200001157600080fd5b5060405162002ad938038062002ad9833981810160405281019062000037919062000332565b60008060006101000a81548160ff0219169083151502179055506200007162000065620000f860201b60201c565b6200010060201b60201c565b6200008282620001c560201b60201c565b8173ffffffffffffffffffffffffffffffffffffffff1660808173ffffffffffffffffffffffffffffffffffffffff1660601b815250508073ffffffffffffffffffffffffffffffffffffffff1660a08173ffffffffffffffffffffffffffffffffffffffff1660601b8152505050506200050a565b600033905090565b60008060019054906101000a900473ffffffffffffffffffffffffffffffffffffffff16905081600060016101000a81548173ffffffffffffffffffffffffffffffffffffffff021916908373ffffffffffffffffffffffffffffffffffffffff1602179055508173ffffffffffffffffffffffffffffffffffffffff168173ffffffffffffffffffffffffffffffffffffffff167f8be0079c531659141344cd1fd0a4f28419497f9722a3daafe3b4186f6b6457e060405160405180910390a35050565b620001d5620000f860201b60201c565b73ffffffffffffffffffffffffffffffffffffffff16620001fb620002db60201b60201c565b73ffffffffffffffffffffffffffffffffffffffff161462000254576040517f08c379a00000000000000000000000000000000000000000000000000000000081526004016200024b90620003e3565b60405180910390fd5b600073ffffffffffffffffffffffffffffffffffffffff168173ffffffffffffffffffffffffffffffffffffffff161415620002c7576040517f08c379a0000000000000000000000000000000000000000000000000000000008152600401620002be90620003c1565b60405180910390fd5b620002d8816200010060201b60201c565b50565b60008060019054906101000a900473ffffffffffffffffffffffffffffffffffffffff16905090565b6000815190506200031581620004d6565b92915050565b6000815190506200032c81620004f0565b92915050565b600080604083850312156200034657600080fd5b6000620003568582860162000304565b925050602062000369858286016200031b565b9150509250929050565b60006200038260268362000405565b91506200038f826200045e565b604082019050919050565b6000620003a960208362000405565b9150620003b682620004ad565b602082019050919050565b60006020820190508181036000830152620003dc8162000373565b9050919050565b60006020820190508181036000830152620003fe816200039a565b9050919050565b600082825260208201905092915050565b600062000423826200043e565b9050919050565b6000620004378262000416565b9050919050565b600073ffffffffffffffffffffffffffffffffffffffff82169050919050565b7f4f776e61626c653a206e6577206f776e657220697320746865207a65726f206160008201527f6464726573730000000000000000000000000000000000000000000000000000602082015250565b7f4f776e61626c653a2063616c6c6572206973206e6f7420746865206f776e6572600082015250565b620004e18162000416565b8114620004ed57600080fd5b50565b620004fb816200042a565b81146200050757600080fd5b50565b60805160601c60a05160601c61258e6200054b600039600081816106470152610e3101526000818161097101528181610e0f0152610e7b015261258e6000f3fe608060405234801561001057600080fd5b506004361061010b5760003560e01c806370cd22ae116100a25780638456cb59116100715780638456cb59146102925780638da5cb5b1461029c578063cce7ec13146102ba578063f2fde38b146102d6578063fc20acc5146102f25761010b565b806370cd22ae1461021e578063715018a61461024e5780637532ed2b146102585780637f649783146102765761010b565b80633f4ba83a116100de5780633f4ba83a146101aa5780634c3a0255146101b4578063548db174146101e45780635c975abb146102005761010b565b80630903df0b14610110578063209887941461012c5780633af32abf1461015c5780633ca5b2341461018c575b600080fd5b61012a6004803603810190610125919061194a565b610322565b005b61014660048036038101906101419190611a6f565b610601565b6040516101539190611f23565b60405180910390f35b610176600480360381019061017191906118e0565b610625565b6040516101839190611d4b565b60405180910390f35b610194610645565b6040516101a19190611d66565b60405180910390f35b6101b2610669565b005b6101ce60048036038101906101c99190611a6f565b6106ef565b6040516101db9190611f23565b60405180910390f35b6101fe60048036038101906101f99190611909565b610713565b005b610208610892565b6040516102159190611d4b565b60405180910390f35b61023860048036038101906102339190611a6f565b6108a8565b6040516102459190611d66565b60405180910390f35b6102566108e7565b005b61026061096f565b60405161026d9190611cf9565b60405180910390f35b610290600480360381019061028b9190611909565b610993565b005b61029a610b12565b005b6102a4610b98565b6040516102b19190611cf9565b60405180910390f35b6102d460048036038101906102cf9190611a33565b610bc1565b005b6102f060048036038101906102eb91906118e0565b610ecc565b005b61030c60048036038101906103079190611a0a565b610fc4565b6040516103199190611f23565b60405180910390f35b61032a611165565b73ffffffffffffffffffffffffffffffffffffffff16610348610b98565b73ffffffffffffffffffffffffffffffffffffffff161461039e576040517f08c379a000000000000000000000000000000000000000000000000000000000815260040161039590611e83565b60405180910390fd5b6103a6610892565b156103e6576040517f08c379a00000000000000000000000000000000000000000000000000000000081526004016103dd90611e43565b60405180910390fd5b815183511480156103f8575080518251145b610437576040517f08c379a000000000000000000000000000000000000000000000000000000000815260040161042e90611e23565b60405180910390fd5b60016000610445919061166b565b60026000610453919061168c565b60036000610461919061168c565b60008351905060005b818110156105fa5760018582815181106104ad577f4e487b7100000000000000000000000000000000000000000000000000000000600052603260045260246000fd5b60200260200101519080600181540180825580915050600190039060005260206000200160009091909190916101000a81548173ffffffffffffffffffffffffffffffffffffffff021916908373ffffffffffffffffffffffffffffffffffffffff1602179055506002848281518110610550577f4e487b7100000000000000000000000000000000000000000000000000000000600052603260045260246000fd5b6020026020010151908060018154018082558091505060019003906000526020600020016000909190919091505560038382815181106105b9577f4e487b7100000000000000000000000000000000000000000000000000000000600052603260045260246000fd5b6020026020010151908060018154018082558091505060019003906000526020600020016000909190919091505580806105f290612186565b91505061046a565b5050505050565b6002818154811061061157600080fd5b906000526020600020016000915090505481565b60046020528060005260406000206000915054906101000a900460ff1681565b7f000000000000000000000000000000000000000000000000000000000000000081565b610671611165565b73ffffffffffffffffffffffffffffffffffffffff1661068f610b98565b73ffffffffffffffffffffffffffffffffffffffff16146106e5576040517f08c379a00000000000000000000000000000000000000000000000000000000081526004016106dc90611e83565b60405180910390fd5b6106ed61116d565b565b600381815481106106ff57600080fd5b906000526020600020016000915090505481565b61071b611165565b73ffffffffffffffffffffffffffffffffffffffff16610739610b98565b73ffffffffffffffffffffffffffffffffffffffff161461078f576040517f08c379a000000000000000000000000000000000000000000000000000000000815260040161078690611e83565b60405180910390fd5b610797610892565b156107d7576040517f08c379a00000000000000000000000000000000000000000000000000000000081526004016107ce90611e43565b60405180910390fd5b60005b815181101561088e57600060046000848481518110610822577f4e487b7100000000000000000000000000000000000000000000000000000000600052603260045260246000fd5b602002602001015173ffffffffffffffffffffffffffffffffffffffff1673ffffffffffffffffffffffffffffffffffffffff16815260200190815260200160002060006101000a81548160ff021916908315150217905550808061088690612186565b9150506107da565b5050565b60008060009054906101000a900460ff16905090565b600181815481106108b857600080fd5b906000526020600020016000915054906101000a900473ffffffffffffffffffffffffffffffffffffffff1681565b6108ef611165565b73ffffffffffffffffffffffffffffffffffffffff1661090d610b98565b73ffffffffffffffffffffffffffffffffffffffff1614610963576040517f08c379a000000000000000000000000000000000000000000000000000000000815260040161095a90611e83565b60405180910390fd5b61096d600061120e565b565b7f000000000000000000000000000000000000000000000000000000000000000081565b61099b611165565b73ffffffffffffffffffffffffffffffffffffffff166109b9610b98565b73ffffffffffffffffffffffffffffffffffffffff1614610a0f576040517f08c379a0000000000000000000000000000000000000000000000000000000008152600401610a0690611e83565b60405180910390fd5b610a17610892565b15610a57576040517f08c379a0000000000000000000000000000000000000000000000000000000008152600401610a4e90611e43565b60405180910390fd5b60005b8151811015610b0e57600160046000848481518110610aa2577f4e487b7100000000000000000000000000000000000000000000000000000000600052603260045260246000fd5b602002602001015173ffffffffffffffffffffffffffffffffffffffff1673ffffffffffffffffffffffffffffffffffffffff16815260200190815260200160002060006101000a81548160ff0219169083151502179055508080610b0690612186565b915050610a5a565b5050565b610b1a611165565b73ffffffffffffffffffffffffffffffffffffffff16610b38610b98565b73ffffffffffffffffffffffffffffffffffffffff1614610b8e576040517f08c379a0000000000000000000000000000000000000000000000000000000008152600401610b8590611e83565b60405180910390fd5b610b966112d3565b565b60008060019054906101000a900473ffffffffffffffffffffffffffffffffffffffff16905090565b610bc9610892565b15610c09576040517f08c379a0000000000000000000000000000000000000000000000000000000008152600401610c0090611e43565b60405180910390fd5b600460003373ffffffffffffffffffffffffffffffffffffffff1673ffffffffffffffffffffffffffffffffffffffff16815260200190815260200160002060009054906101000a900460ff16610c95576040517f08c379a0000000000000000000000000000000000000000000000000000000008152600401610c8c90611ea3565b60405180910390fd5b670de0b6b3a76400008110158015610cc057506000670de0b6b3a764000082610cbe91906121cf565b145b610cff576040517f08c379a0000000000000000000000000000000000000000000000000000000008152600401610cf690611de3565b60405180910390fd5b6000610d0a83610fc4565b9050600060038281548110610d48577f4e487b7100000000000000000000000000000000000000000000000000000000600052603260045260246000fd5b9060005260206000200154905080831115610d98576040517f08c379a0000000000000000000000000000000000000000000000000000000008152600401610d8f90611ec3565b60405180910390fd5b600060028381548110610dd4577f4e487b7100000000000000000000000000000000000000000000000000000000600052603260045260246000fd5b906000526020600020015490506000670de0b6b3a764000085610df79190612019565b905060008282610e07919061204a565b9050610e76337f0000000000000000000000000000000000000000000000000000000000000000837f000000000000000000000000000000000000000000000000000000000000000073ffffffffffffffffffffffffffffffffffffffff16611375909392919063ffffffff16565b610ec37f000000000000000000000000000000000000000000000000000000000000000033888a73ffffffffffffffffffffffffffffffffffffffff16611375909392919063ffffffff16565b50505050505050565b610ed4611165565b73ffffffffffffffffffffffffffffffffffffffff16610ef2610b98565b73ffffffffffffffffffffffffffffffffffffffff1614610f48576040517f08c379a0000000000000000000000000000000000000000000000000000000008152600401610f3f90611e83565b60405180910390fd5b600073ffffffffffffffffffffffffffffffffffffffff168173ffffffffffffffffffffffffffffffffffffffff161415610fb8576040517f08c379a0000000000000000000000000000000000000000000000000000000008152600401610faf90611dc3565b60405180910390fd5b610fc18161120e565b50565b6000610fce610892565b1561100e576040517f08c379a000000000000000000000000000000000000000000000000000000000815260040161100590611e43565b60405180910390fd5b60007fffffffffffffffffffffffffffffffffffffffffffffffffffffffffffffffff905060005b6001805490508110156110f2578373ffffffffffffffffffffffffffffffffffffffff1660018281548110611094577f4e487b7100000000000000000000000000000000000000000000000000000000600052603260045260246000fd5b9060005260206000200160009054906101000a900473ffffffffffffffffffffffffffffffffffffffff1673ffffffffffffffffffffffffffffffffffffffff1614156110df578091505b80806110ea90612186565b915050611036565b507fffffffffffffffffffffffffffffffffffffffffffffffffffffffffffffffff811415611156576040517f08c379a000000000000000000000000000000000000000000000000000000000815260040161114d90611e63565b60405180910390fd5b60008190508092505050919050565b600033905090565b611175610892565b6111b4576040517f08c379a00000000000000000000000000000000000000000000000000000000081526004016111ab90611da3565b60405180910390fd5b60008060006101000a81548160ff0219169083151502179055507f5db9ee0a495bf2e6ff9c91a7834c1ba4fdd244a5e8aa4e537bd38aeae4b073aa6111f7611165565b6040516112049190611cf9565b60405180910390a1565b60008060019054906101000a900473ffffffffffffffffffffffffffffffffffffffff16905081600060016101000a81548173ffffffffffffffffffffffffffffffffffffffff021916908373ffffffffffffffffffffffffffffffffffffffff1602179055508173ffffffffffffffffffffffffffffffffffffffff168173ffffffffffffffffffffffffffffffffffffffff167f8be0079c531659141344cd1fd0a4f28419497f9722a3daafe3b4186f6b6457e060405160405180910390a35050565b6112db610892565b1561131b576040517f08c379a000000000000000000000000000000000000000000000000000000000815260040161131290611e43565b60405180910390fd5b60016000806101000a81548160ff0219169083151502179055507f62e78cea01bee320cd4e420270b5ea74000d11b0c9f74754ebdbfc544b05a25861135e611165565b60405161136b9190611cf9565b60405180910390a1565b6113f8846323b872dd60e01b85858560405160240161139693929190611d14565b604051602081830303815290604052907bffffffffffffffffffffffffffffffffffffffffffffffffffffffff19166020820180517bffffffffffffffffffffffffffffffffffffffffffffffffffffffff83818316178352505050506113fe565b50505050565b6000611460826040518060400160405280602081526020017f5361666545524332303a206c6f772d6c6576656c2063616c6c206661696c65648152508573ffffffffffffffffffffffffffffffffffffffff166114c59092919063ffffffff16565b90506000815111156114c0578080602001905181019061148091906119e1565b6114bf576040517f08c379a00000000000000000000000000000000000000000000000000000000081526004016114b690611f03565b60405180910390fd5b5b505050565b60606114d484846000856114dd565b90509392505050565b606082471015611522576040517f08c379a000000000000000000000000000000000000000000000000000000000815260040161151990611e03565b60405180910390fd5b61152b856115f1565b61156a576040517f08c379a000000000000000000000000000000000000000000000000000000000815260040161156190611ee3565b60405180910390fd5b6000808673ffffffffffffffffffffffffffffffffffffffff1685876040516115939190611ce2565b60006040518083038185875af1925050503d80600081146115d0576040519150601f19603f3d011682016040523d82523d6000602084013e6115d5565b606091505b50915091506115e5828286611604565b92505050949350505050565b600080823b905060008111915050919050565b6060831561161457829050611664565b6000835111156116275782518084602001fd5b816040517f08c379a000000000000000000000000000000000000000000000000000000000815260040161165b9190611d81565b60405180910390fd5b9392505050565b508054600082559060005260206000209081019061168991906116ad565b50565b50805460008255906000526020600020908101906116aa91906116ad565b50565b5b808211156116c65760008160009055506001016116ae565b5090565b60006116dd6116d884611f63565b611f3e565b905080838252602082019050828560208602820111156116fc57600080fd5b60005b8581101561172c5781611712888261180e565b8452602084019350602083019250506001810190506116ff565b5050509392505050565b600061174961174484611f8f565b611f3e565b9050808382526020820190508285602086028201111561176857600080fd5b60005b85811015611798578161177e88826118b6565b84526020840193506020830192505060018101905061176b565b5050509392505050565b60006117b56117b084611fbb565b611f3e565b905080838252602082019050828560208602820111156117d457600080fd5b60005b8581101561180457816117ea88826118cb565b8452602084019350602083019250506001810190506117d7565b5050509392505050565b60008135905061181d816124fc565b92915050565b600082601f83011261183457600080fd5b81356118448482602086016116ca565b91505092915050565b600082601f83011261185e57600080fd5b813561186e848260208601611736565b91505092915050565b600082601f83011261188857600080fd5b81356118988482602086016117a2565b91505092915050565b6000815190506118b081612513565b92915050565b6000813590506118c58161252a565b92915050565b6000813590506118da81612541565b92915050565b6000602082840312156118f257600080fd5b60006119008482850161180e565b91505092915050565b60006020828403121561191b57600080fd5b600082013567ffffffffffffffff81111561193557600080fd5b61194184828501611823565b91505092915050565b60008060006060848603121561195f57600080fd5b600084013567ffffffffffffffff81111561197957600080fd5b6119858682870161184d565b935050602084013567ffffffffffffffff8111156119a257600080fd5b6119ae86828701611877565b925050604084013567ffffffffffffffff8111156119cb57600080fd5b6119d786828701611877565b9150509250925092565b6000602082840312156119f357600080fd5b6000611a01848285016118a1565b91505092915050565b600060208284031215611a1c57600080fd5b6000611a2a848285016118b6565b91505092915050565b60008060408385031215611a4657600080fd5b6000611a54858286016118b6565b9250506020611a65858286016118cb565b9150509250929050565b600060208284031215611a8157600080fd5b6000611a8f848285016118cb565b91505092915050565b611aa1816120a4565b82525050565b611ab0816120b6565b82525050565b6000611ac182611fe7565b611acb8185611ffd565b9350611adb818560208601612122565b80840191505092915050565b611af0816120fe565b82525050565b6000611b0182611ff2565b611b0b8185612008565b9350611b1b818560208601612122565b611b248161228d565b840191505092915050565b6000611b3c601483612008565b9150611b478261229e565b602082019050919050565b6000611b5f602683612008565b9150611b6a826122c7565b604082019050919050565b6000611b82601b83612008565b9150611b8d82612316565b602082019050919050565b6000611ba5602683612008565b9150611bb08261233f565b604082019050919050565b6000611bc8601b83612008565b9150611bd38261238e565b602082019050919050565b6000611beb601083612008565b9150611bf6826123b7565b602082019050919050565b6000611c0e601c83612008565b9150611c19826123e0565b602082019050919050565b6000611c31602083612008565b9150611c3c82612409565b602082019050919050565b6000611c54601c83612008565b9150611c5f82612432565b602082019050919050565b6000611c77601683612008565b9150611c828261245b565b602082019050919050565b6000611c9a601d83612008565b9150611ca582612484565b602082019050919050565b6000611cbd602a83612008565b9150611cc8826124ad565b604082019050919050565b611cdc816120f4565b82525050565b6000611cee8284611ab6565b915081905092915050565b6000602082019050611d0e6000830184611a98565b92915050565b6000606082019050611d296000830186611a98565b611d366020830185611a98565b611d436040830184611cd3565b949350505050565b6000602082019050611d606000830184611aa7565b92915050565b6000602082019050611d7b6000830184611ae7565b92915050565b60006020820190508181036000830152611d9b8184611af6565b905092915050565b60006020820190508181036000830152611dbc81611b2f565b9050919050565b60006020820190508181036000830152611ddc81611b52565b9050919050565b60006020820190508181036000830152611dfc81611b75565b9050919050565b60006020820190508181036000830152611e1c81611b98565b9050919050565b60006020820190508181036000830152611e3c81611bbb565b9050919050565b60006020820190508181036000830152611e5c81611bde565b9050919050565b60006020820190508181036000830152611e7c81611c01565b9050919050565b60006020820190508181036000830152611e9c81611c24565b9050919050565b60006020820190508181036000830152611ebc81611c47565b9050919050565b60006020820190508181036000830152611edc81611c6a565b9050919050565b60006020820190508181036000830152611efc81611c8d565b9050919050565b60006020820190508181036000830152611f1c81611cb0565b9050919050565b6000602082019050611f386000830184611cd3565b92915050565b6000611f48611f59565b9050611f548282612155565b919050565b6000604051905090565b600067ffffffffffffffff821115611f7e57611f7d61225e565b5b602082029050602081019050919050565b600067ffffffffffffffff821115611faa57611fa961225e565b5b602082029050602081019050919050565b600067ffffffffffffffff821115611fd657611fd561225e565b5b602082029050602081019050919050565b600081519050919050565b600081519050919050565b600081905092915050565b600082825260208201905092915050565b6000612024826120f4565b915061202f836120f4565b92508261203f5761203e61222f565b5b828204905092915050565b6000612055826120f4565b9150612060836120f4565b9250817fffffffffffffffffffffffffffffffffffffffffffffffffffffffffffffffff048311821515161561209957612098612200565b5b828202905092915050565b60006120af826120d4565b9050919050565b60008115159050919050565b60006120cd826120a4565b9050919050565b600073ffffffffffffffffffffffffffffffffffffffff82169050919050565b6000819050919050565b600061210982612110565b9050919050565b600061211b826120d4565b9050919050565b60005b83811015612140578082015181840152602081019050612125565b8381111561214f576000848401525b50505050565b61215e8261228d565b810181811067ffffffffffffffff8211171561217d5761217c61225e565b5b80604052505050565b6000612191826120f4565b91507fffffffffffffffffffffffffffffffffffffffffffffffffffffffffffffffff8214156121c4576121c3612200565b5b600182019050919050565b60006121da826120f4565b91506121e5836120f4565b9250826121f5576121f461222f565b5b828206905092915050565b7f4e487b7100000000000000000000000000000000000000000000000000000000600052601160045260246000fd5b7f4e487b7100000000000000000000000000000000000000000000000000000000600052601260045260246000fd5b7f4e487b7100000000000000000000000000000000000000000000000000000000600052604160045260246000fd5b6000601f19601f8301169050919050565b7f5061757361626c653a206e6f7420706175736564000000000000000000000000600082015250565b7f4f776e61626c653a206e6577206f776e657220697320746865207a65726f206160008201527f6464726573730000000000000000000000000000000000000000000000000000602082015250565b7f426f6f7374657253616c653a20696e76616c696420616d6f756e740000000000600082015250565b7f416464726573733a20696e73756666696369656e742062616c616e636520666f60008201527f722063616c6c0000000000000000000000000000000000000000000000000000602082015250565b7f426f6f7374657253616c653a20696e76616c696420636f6e6669670000000000600082015250565b7f5061757361626c653a2070617573656400000000000000000000000000000000600082015250565b7f426f6f7374657253616c653a20696e76616c696420626f6f7374657200000000600082015250565b7f4f776e61626c653a2063616c6c6572206973206e6f7420746865206f776e6572600082015250565b7f426f6f7374657253616c653a206e6f742077686974656c697374656400000000600082015250565b7f426f6f7374657253616c653a2061626f76652063617000000000000000000000600082015250565b7f416464726573733a2063616c6c20746f206e6f6e2d636f6e7472616374000000600082015250565b7f5361666545524332303a204552433230206f7065726174696f6e20646964206e60008201527f6f74207375636365656400000000000000000000000000000000000000000000602082015250565b612505816120a4565b811461251057600080fd5b50565b61251c816120b6565b811461252757600080fd5b50565b612533816120c2565b811461253e57600080fd5b50565b61254a816120f4565b811461255557600080fd5b5056fea2646970667358221220b07e4d8d2947346a0d8672ac95030ddc3e4cd430948e9059c32ea36d5ab2759664736f6c63430008040033",
  "linkReferences": {},
  "deployedLinkReferences": {}
}