{
  "_format": "hh-sol-artifact-1",
  "contractName": "BoosterSale",
  "sourceName": "contracts/booster/BoosterSale.sol",
  "abi": [
    {
      "inputs": [
        {
          "internalType": "address",
          "name": "_boosterOwner",
          "type": "address"
        },
        {
          "internalType": "contract IERC20",
          "name": "_busd",
          "type": "address"
        }
      ],
      "stateMutability": "nonpayable",
      "type": "constructor"
    },
    {
      "anonymous": false,
      "inputs": [
        {
          "indexed": true,
          "internalType": "address",
          "name": "previousOwner",
          "type": "address"
        },
        {
          "indexed": true,
          "internalType": "address",
          "name": "newOwner",
          "type": "address"
        }
      ],
      "name": "OwnershipTransferred",
      "type": "event"
    },
    {
      "anonymous": false,
      "inputs": [
        {
          "indexed": false,
          "internalType": "address",
          "name": "account",
          "type": "address"
        }
      ],
      "name": "Paused",
      "type": "event"
    },
    {
      "anonymous": false,
      "inputs": [
        {
          "indexed": false,
          "internalType": "address",
          "name": "account",
          "type": "address"
        }
      ],
      "name": "Unpaused",
      "type": "event"
    },
    {
      "inputs": [
        {
          "internalType": "address[]",
          "name": "_buyers",
          "type": "address[]"
        }
      ],
      "name": "addToWhitelist",
      "outputs": [],
      "stateMutability": "nonpayable",
      "type": "function"
    },
    {
      "inputs": [],
      "name": "boosterOwner",
      "outputs": [
        {
          "internalType": "address",
          "name": "",
          "type": "address"
        }
      ],
      "stateMutability": "view",
      "type": "function"
    },
    {
      "inputs": [
        {
          "internalType": "contract IERC20",
          "name": "",
          "type": "address"
        }
      ],
      "name": "boosterToBoosterIndex",
      "outputs": [
        {
          "internalType": "uint256",
          "name": "",
          "type": "uint256"
        }
      ],
      "stateMutability": "view",
      "type": "function"
    },
    {
      "inputs": [
        {
          "internalType": "uint256",
          "name": "",
          "type": "uint256"
        }
      ],
      "name": "boosters",
      "outputs": [
        {
          "internalType": "contract IERC20",
          "name": "",
          "type": "address"
        }
      ],
      "stateMutability": "view",
      "type": "function"
    },
    {
      "inputs": [],
      "name": "busd",
      "outputs": [
        {
          "internalType": "contract IERC20",
          "name": "",
          "type": "address"
        }
      ],
      "stateMutability": "view",
      "type": "function"
    },
    {
      "inputs": [
        {
          "internalType": "uint256",
          "name": "",
          "type": "uint256"
        }
      ],
      "name": "busdPricePerBoosterInWei",
      "outputs": [
        {
          "internalType": "uint256",
          "name": "",
          "type": "uint256"
        }
      ],
      "stateMutability": "view",
      "type": "function"
    },
    {
      "inputs": [
        {
          "internalType": "contract IERC20",
          "name": "booster",
          "type": "address"
        },
        {
          "internalType": "uint256",
          "name": "_numberOfBoostersInWei",
          "type": "uint256"
        }
      ],
      "name": "buy",
      "outputs": [],
      "stateMutability": "nonpayable",
      "type": "function"
    },
    {
      "inputs": [
        {
          "internalType": "uint256",
          "name": "",
          "type": "uint256"
        }
      ],
      "name": "capPerBoosterInWei",
      "outputs": [
        {
          "internalType": "uint256",
          "name": "",
          "type": "uint256"
        }
      ],
      "stateMutability": "view",
      "type": "function"
    },
    {
      "inputs": [
        {
          "internalType": "contract IERC20[]",
          "name": "_boosters",
          "type": "address[]"
        },
        {
          "internalType": "uint256[]",
          "name": "_busdPricePerBoosterInWei",
          "type": "uint256[]"
        },
        {
          "internalType": "uint256[]",
          "name": "_capPerBoosterInWei",
          "type": "uint256[]"
        }
      ],
      "name": "configure",
      "outputs": [],
      "stateMutability": "nonpayable",
      "type": "function"
    },
    {
      "inputs": [
        {
          "internalType": "address",
          "name": "",
          "type": "address"
        }
      ],
      "name": "isWhitelisted",
      "outputs": [
        {
          "internalType": "bool",
          "name": "",
          "type": "bool"
        }
      ],
      "stateMutability": "view",
      "type": "function"
    },
    {
      "inputs": [],
      "name": "owner",
      "outputs": [
        {
          "internalType": "address",
          "name": "",
          "type": "address"
        }
      ],
      "stateMutability": "view",
      "type": "function"
    },
    {
      "inputs": [],
      "name": "pause",
      "outputs": [],
      "stateMutability": "nonpayable",
      "type": "function"
    },
    {
      "inputs": [],
      "name": "paused",
      "outputs": [
        {
          "internalType": "bool",
          "name": "",
          "type": "bool"
        }
      ],
      "stateMutability": "view",
      "type": "function"
    },
    {
      "inputs": [
        {
          "internalType": "address[]",
          "name": "_buyers",
          "type": "address[]"
        }
      ],
      "name": "removeFromWhitelist",
      "outputs": [],
      "stateMutability": "nonpayable",
      "type": "function"
    },
    {
      "inputs": [],
      "name": "renounceOwnership",
      "outputs": [],
      "stateMutability": "nonpayable",
      "type": "function"
    },
    {
      "inputs": [
        {
          "internalType": "address",
          "name": "newOwner",
          "type": "address"
        }
      ],
      "name": "transferOwnership",
      "outputs": [],
      "stateMutability": "nonpayable",
      "type": "function"
    },
    {
      "inputs": [],
      "name": "unpause",
      "outputs": [],
      "stateMutability": "nonpayable",
      "type": "function"
    },
    {
      "inputs": [
        {
          "internalType": "address",
          "name": "",
          "type": "address"
        },
        {
          "internalType": "uint256",
          "name": "",
          "type": "uint256"
        }
      ],
      "name": "walletToBoosterIndexToBoughtInWei",
      "outputs": [
        {
          "internalType": "uint256",
          "name": "",
          "type": "uint256"
        }
      ],
      "stateMutability": "view",
      "type": "function"
    }
  ],
  "bytecode": "0x60c06040523480156200001157600080fd5b5060405162002c2438038062002c24833981810160405281019062000037919062000332565b60008060006101000a81548160ff0219169083151502179055506200007162000065620000f860201b60201c565b6200010060201b60201c565b6200008282620001c560201b60201c565b8173ffffffffffffffffffffffffffffffffffffffff1660808173ffffffffffffffffffffffffffffffffffffffff1660601b815250508073ffffffffffffffffffffffffffffffffffffffff1660a08173ffffffffffffffffffffffffffffffffffffffff1660601b8152505050506200050a565b600033905090565b60008060019054906101000a900473ffffffffffffffffffffffffffffffffffffffff16905081600060016101000a81548173ffffffffffffffffffffffffffffffffffffffff021916908373ffffffffffffffffffffffffffffffffffffffff1602179055508173ffffffffffffffffffffffffffffffffffffffff168173ffffffffffffffffffffffffffffffffffffffff167f8be0079c531659141344cd1fd0a4f28419497f9722a3daafe3b4186f6b6457e060405160405180910390a35050565b620001d5620000f860201b60201c565b73ffffffffffffffffffffffffffffffffffffffff16620001fb620002db60201b60201c565b73ffffffffffffffffffffffffffffffffffffffff161462000254576040517f08c379a00000000000000000000000000000000000000000000000000000000081526004016200024b90620003e3565b60405180910390fd5b600073ffffffffffffffffffffffffffffffffffffffff168173ffffffffffffffffffffffffffffffffffffffff161415620002c7576040517f08c379a0000000000000000000000000000000000000000000000000000000008152600401620002be90620003c1565b60405180910390fd5b620002d8816200010060201b60201c565b50565b60008060019054906101000a900473ffffffffffffffffffffffffffffffffffffffff16905090565b6000815190506200031581620004d6565b92915050565b6000815190506200032c81620004f0565b92915050565b600080604083850312156200034657600080fd5b6000620003568582860162000304565b925050602062000369858286016200031b565b9150509250929050565b60006200038260268362000405565b91506200038f826200045e565b604082019050919050565b6000620003a960208362000405565b9150620003b682620004ad565b602082019050919050565b60006020820190508181036000830152620003dc8162000373565b9050919050565b60006020820190508181036000830152620003fe816200039a565b9050919050565b600082825260208201905092915050565b600062000423826200043e565b9050919050565b6000620004378262000416565b9050919050565b600073ffffffffffffffffffffffffffffffffffffffff82169050919050565b7f4f776e61626c653a206e6577206f776e657220697320746865207a65726f206160008201527f6464726573730000000000000000000000000000000000000000000000000000602082015250565b7f4f776e61626c653a2063616c6c6572206973206e6f7420746865206f776e6572600082015250565b620004e18162000416565b8114620004ed57600080fd5b50565b620004fb816200042a565b81146200050757600080fd5b50565b60805160601c60a05160601c6126d96200054b6000396000818161072b0152611052015260008181610a6d01528181611030015261109c01526126d96000f3fe608060405234801561001057600080fd5b50600436106101165760003560e01c80635c975abb116100a25780637f649783116100715780637f649783146102e15780638456cb59146102fd5780638da5cb5b14610307578063cce7ec1314610325578063f2fde38b1461034157610116565b80635c975abb1461026b57806370cd22ae14610289578063715018a6146102b95780637532ed2b146102c357610116565b80633ca5b234116100e95780633ca5b234146101c75780633f4ba83a146101e557806348e44272146101ef5780634c3a02551461021f578063548db1741461024f57610116565b80630903df0b1461011b5780632098879414610137578063291d9142146101675780633af32abf14610197575b600080fd5b61013560048036038101906101309190611a82565b61035d565b005b610151600480360381019061014c9190611ba7565b6106c0565b60405161015e9190612041565b60405180910390f35b610181600480360381019061017c9190611a05565b6106e4565b60405161018e9190612041565b60405180910390f35b6101b160048036038101906101ac91906119dc565b610709565b6040516101be9190611e89565b60405180910390f35b6101cf610729565b6040516101dc9190611ea4565b60405180910390f35b6101ed61074d565b005b61020960048036038101906102049190611b42565b6107d3565b6040516102169190612041565b60405180910390f35b61023960048036038101906102349190611ba7565b6107eb565b6040516102469190612041565b60405180910390f35b61026960048036038101906102649190611a41565b61080f565b005b61027361098e565b6040516102809190611e89565b60405180910390f35b6102a3600480360381019061029e9190611ba7565b6109a4565b6040516102b09190611ea4565b60405180910390f35b6102c16109e3565b005b6102cb610a6b565b6040516102d89190611e37565b60405180910390f35b6102fb60048036038101906102f69190611a41565b610a8f565b005b610305610c0e565b005b61030f610c94565b60405161031c9190611e37565b60405180910390f35b61033f600480360381019061033a9190611b6b565b610cbd565b005b61035b600480360381019061035691906119dc565b611154565b005b61036561124c565b73ffffffffffffffffffffffffffffffffffffffff16610383610c94565b73ffffffffffffffffffffffffffffffffffffffff16146103d9576040517f08c379a00000000000000000000000000000000000000000000000000000000081526004016103d090611fa1565b60405180910390fd5b6103e161098e565b15610421576040517f08c379a000000000000000000000000000000000000000000000000000000000815260040161041890611f81565b60405180910390fd5b81518351148015610433575080518251145b610472576040517f08c379a000000000000000000000000000000000000000000000000000000000815260040161046990611f61565b60405180910390fd5b600160006104809190611752565b6002600061048e9190611773565b6003600061049c9190611773565b60008351905060005b818110156106b95760018582815181106104e8577f4e487b7100000000000000000000000000000000000000000000000000000000600052603260045260246000fd5b60200260200101519080600181540180825580915050600190039060005260206000200160009091909190916101000a81548173ffffffffffffffffffffffffffffffffffffffff021916908373ffffffffffffffffffffffffffffffffffffffff160217905550600284828151811061058b577f4e487b7100000000000000000000000000000000000000000000000000000000600052603260045260246000fd5b6020026020010151908060018154018082558091505060019003906000526020600020016000909190919091505560038382815181106105f4577f4e487b7100000000000000000000000000000000000000000000000000000000600052603260045260246000fd5b602002602001015190806001815401808255809150506001900390600052602060002001600090919091909150558060056000878481518110610660577f4e487b7100000000000000000000000000000000000000000000000000000000600052603260045260246000fd5b602002602001015173ffffffffffffffffffffffffffffffffffffffff1673ffffffffffffffffffffffffffffffffffffffff1681526020019081526020016000208190555080806106b1906122fa565b9150506104a5565b5050505050565b600281815481106106d057600080fd5b906000526020600020016000915090505481565b6006602052816000526040600020602052806000526040600020600091509150505481565b60046020528060005260406000206000915054906101000a900460ff1681565b7f000000000000000000000000000000000000000000000000000000000000000081565b61075561124c565b73ffffffffffffffffffffffffffffffffffffffff16610773610c94565b73ffffffffffffffffffffffffffffffffffffffff16146107c9576040517f08c379a00000000000000000000000000000000000000000000000000000000081526004016107c090611fa1565b60405180910390fd5b6107d1611254565b565b60056020528060005260406000206000915090505481565b600381815481106107fb57600080fd5b906000526020600020016000915090505481565b61081761124c565b73ffffffffffffffffffffffffffffffffffffffff16610835610c94565b73ffffffffffffffffffffffffffffffffffffffff161461088b576040517f08c379a000000000000000000000000000000000000000000000000000000000815260040161088290611fa1565b60405180910390fd5b61089361098e565b156108d3576040517f08c379a00000000000000000000000000000000000000000000000000000000081526004016108ca90611f81565b60405180910390fd5b60005b815181101561098a5760006004600084848151811061091e577f4e487b7100000000000000000000000000000000000000000000000000000000600052603260045260246000fd5b602002602001015173ffffffffffffffffffffffffffffffffffffffff1673ffffffffffffffffffffffffffffffffffffffff16815260200190815260200160002060006101000a81548160ff0219169083151502179055508080610982906122fa565b9150506108d6565b5050565b60008060009054906101000a900460ff16905090565b600181815481106109b457600080fd5b906000526020600020016000915054906101000a900473ffffffffffffffffffffffffffffffffffffffff1681565b6109eb61124c565b73ffffffffffffffffffffffffffffffffffffffff16610a09610c94565b73ffffffffffffffffffffffffffffffffffffffff1614610a5f576040517f08c379a0000000000000000000000000000000000000000000000000000000008152600401610a5690611fa1565b60405180910390fd5b610a6960006112f5565b565b7f000000000000000000000000000000000000000000000000000000000000000081565b610a9761124c565b73ffffffffffffffffffffffffffffffffffffffff16610ab5610c94565b73ffffffffffffffffffffffffffffffffffffffff1614610b0b576040517f08c379a0000000000000000000000000000000000000000000000000000000008152600401610b0290611fa1565b60405180910390fd5b610b1361098e565b15610b53576040517f08c379a0000000000000000000000000000000000000000000000000000000008152600401610b4a90611f81565b60405180910390fd5b60005b8151811015610c0a57600160046000848481518110610b9e577f4e487b7100000000000000000000000000000000000000000000000000000000600052603260045260246000fd5b602002602001015173ffffffffffffffffffffffffffffffffffffffff1673ffffffffffffffffffffffffffffffffffffffff16815260200190815260200160002060006101000a81548160ff0219169083151502179055508080610c02906122fa565b915050610b56565b5050565b610c1661124c565b73ffffffffffffffffffffffffffffffffffffffff16610c34610c94565b73ffffffffffffffffffffffffffffffffffffffff1614610c8a576040517f08c379a0000000000000000000000000000000000000000000000000000000008152600401610c8190611fa1565b60405180910390fd5b610c926113ba565b565b60008060019054906101000a900473ffffffffffffffffffffffffffffffffffffffff16905090565b610cc561098e565b15610d05576040517f08c379a0000000000000000000000000000000000000000000000000000000008152600401610cfc90611f81565b60405180910390fd5b600460003373ffffffffffffffffffffffffffffffffffffffff1673ffffffffffffffffffffffffffffffffffffffff16815260200190815260200160002060009054906101000a900460ff16610d91576040517f08c379a0000000000000000000000000000000000000000000000000000000008152600401610d8890611fc1565b60405180910390fd5b670de0b6b3a76400008110158015610dbc57506000670de0b6b3a764000082610dba9190612343565b145b610dfb576040517f08c379a0000000000000000000000000000000000000000000000000000000008152600401610df290611f21565b60405180910390fd5b6000600560008473ffffffffffffffffffffffffffffffffffffffff1673ffffffffffffffffffffffffffffffffffffffff168152602001908152602001600020549050600060038281548110610e7b577f4e487b7100000000000000000000000000000000000000000000000000000000600052603260045260246000fd5b906000526020600020015490508083600660003373ffffffffffffffffffffffffffffffffffffffff1673ffffffffffffffffffffffffffffffffffffffff1681526020019081526020016000206000858152602001908152602001600020548673ffffffffffffffffffffffffffffffffffffffff166370a08231336040518263ffffffff1660e01b8152600401610f149190611e37565b60206040518083038186803b158015610f2c57600080fd5b505afa158015610f40573d6000803e3d6000fd5b505050506040513d601f19601f82011682018060405250810190610f649190611bd0565b610f6e9190612137565b610f789190612137565b1115610fb9576040517f08c379a0000000000000000000000000000000000000000000000000000000008152600401610fb090611fe1565b60405180910390fd5b600060028381548110610ff5577f4e487b7100000000000000000000000000000000000000000000000000000000600052603260045260246000fd5b906000526020600020015490506000670de0b6b3a764000085611018919061218d565b90506000828261102891906121be565b9050611097337f0000000000000000000000000000000000000000000000000000000000000000837f000000000000000000000000000000000000000000000000000000000000000073ffffffffffffffffffffffffffffffffffffffff1661145c909392919063ffffffff16565b6110e47f000000000000000000000000000000000000000000000000000000000000000033888a73ffffffffffffffffffffffffffffffffffffffff1661145c909392919063ffffffff16565b85600660003373ffffffffffffffffffffffffffffffffffffffff1673ffffffffffffffffffffffffffffffffffffffff168152602001908152602001600020600087815260200190815260200160002060008282546111449190612137565b9250508190555050505050505050565b61115c61124c565b73ffffffffffffffffffffffffffffffffffffffff1661117a610c94565b73ffffffffffffffffffffffffffffffffffffffff16146111d0576040517f08c379a00000000000000000000000000000000000000000000000000000000081526004016111c790611fa1565b60405180910390fd5b600073ffffffffffffffffffffffffffffffffffffffff168173ffffffffffffffffffffffffffffffffffffffff161415611240576040517f08c379a000000000000000000000000000000000000000000000000000000000815260040161123790611f01565b60405180910390fd5b611249816112f5565b50565b600033905090565b61125c61098e565b61129b576040517f08c379a000000000000000000000000000000000000000000000000000000000815260040161129290611ee1565b60405180910390fd5b60008060006101000a81548160ff0219169083151502179055507f5db9ee0a495bf2e6ff9c91a7834c1ba4fdd244a5e8aa4e537bd38aeae4b073aa6112de61124c565b6040516112eb9190611e37565b60405180910390a1565b60008060019054906101000a900473ffffffffffffffffffffffffffffffffffffffff16905081600060016101000a81548173ffffffffffffffffffffffffffffffffffffffff021916908373ffffffffffffffffffffffffffffffffffffffff1602179055508173ffffffffffffffffffffffffffffffffffffffff168173ffffffffffffffffffffffffffffffffffffffff167f8be0079c531659141344cd1fd0a4f28419497f9722a3daafe3b4186f6b6457e060405160405180910390a35050565b6113c261098e565b15611402576040517f08c379a00000000000000000000000000000000000000000000000000000000081526004016113f990611f81565b60405180910390fd5b60016000806101000a81548160ff0219169083151502179055507f62e78cea01bee320cd4e420270b5ea74000d11b0c9f74754ebdbfc544b05a25861144561124c565b6040516114529190611e37565b60405180910390a1565b6114df846323b872dd60e01b85858560405160240161147d93929190611e52565b604051602081830303815290604052907bffffffffffffffffffffffffffffffffffffffffffffffffffffffff19166020820180517bffffffffffffffffffffffffffffffffffffffffffffffffffffffff83818316178352505050506114e5565b50505050565b6000611547826040518060400160405280602081526020017f5361666545524332303a206c6f772d6c6576656c2063616c6c206661696c65648152508573ffffffffffffffffffffffffffffffffffffffff166115ac9092919063ffffffff16565b90506000815111156115a757808060200190518101906115679190611b19565b6115a6576040517f08c379a000000000000000000000000000000000000000000000000000000000815260040161159d90612021565b60405180910390fd5b5b505050565b60606115bb84846000856115c4565b90509392505050565b606082471015611609576040517f08c379a000000000000000000000000000000000000000000000000000000000815260040161160090611f41565b60405180910390fd5b611612856116d8565b611651576040517f08c379a000000000000000000000000000000000000000000000000000000000815260040161164890612001565b60405180910390fd5b6000808673ffffffffffffffffffffffffffffffffffffffff16858760405161167a9190611e20565b60006040518083038185875af1925050503d80600081146116b7576040519150601f19603f3d011682016040523d82523d6000602084013e6116bc565b606091505b50915091506116cc8282866116eb565b92505050949350505050565b600080823b905060008111915050919050565b606083156116fb5782905061174b565b60008351111561170e5782518084602001fd5b816040517f08c379a00000000000000000000000000000000000000000000000000000000081526004016117429190611ebf565b60405180910390fd5b9392505050565b50805460008255906000526020600020908101906117709190611794565b50565b50805460008255906000526020600020908101906117919190611794565b50565b5b808211156117ad576000816000905550600101611795565b5090565b60006117c46117bf84612081565b61205c565b905080838252602082019050828560208602820111156117e357600080fd5b60005b8581101561181357816117f988826118f5565b8452602084019350602083019250506001810190506117e6565b5050509392505050565b600061183061182b846120ad565b61205c565b9050808382526020820190508285602086028201111561184f57600080fd5b60005b8581101561187f5781611865888261199d565b845260208401935060208301925050600181019050611852565b5050509392505050565b600061189c611897846120d9565b61205c565b905080838252602082019050828560208602820111156118bb57600080fd5b60005b858110156118eb57816118d188826119b2565b8452602084019350602083019250506001810190506118be565b5050509392505050565b60008135905061190481612647565b92915050565b600082601f83011261191b57600080fd5b813561192b8482602086016117b1565b91505092915050565b600082601f83011261194557600080fd5b813561195584826020860161181d565b91505092915050565b600082601f83011261196f57600080fd5b813561197f848260208601611889565b91505092915050565b6000815190506119978161265e565b92915050565b6000813590506119ac81612675565b92915050565b6000813590506119c18161268c565b92915050565b6000815190506119d68161268c565b92915050565b6000602082840312156119ee57600080fd5b60006119fc848285016118f5565b91505092915050565b60008060408385031215611a1857600080fd5b6000611a26858286016118f5565b9250506020611a37858286016119b2565b9150509250929050565b600060208284031215611a5357600080fd5b600082013567ffffffffffffffff811115611a6d57600080fd5b611a798482850161190a565b91505092915050565b600080600060608486031215611a9757600080fd5b600084013567ffffffffffffffff811115611ab157600080fd5b611abd86828701611934565b935050602084013567ffffffffffffffff811115611ada57600080fd5b611ae68682870161195e565b925050604084013567ffffffffffffffff811115611b0357600080fd5b611b0f8682870161195e565b9150509250925092565b600060208284031215611b2b57600080fd5b6000611b3984828501611988565b91505092915050565b600060208284031215611b5457600080fd5b6000611b628482850161199d565b91505092915050565b60008060408385031215611b7e57600080fd5b6000611b8c8582860161199d565b9250506020611b9d858286016119b2565b9150509250929050565b600060208284031215611bb957600080fd5b6000611bc7848285016119b2565b91505092915050565b600060208284031215611be257600080fd5b6000611bf0848285016119c7565b91505092915050565b611c0281612218565b82525050565b611c118161222a565b82525050565b6000611c2282612105565b611c2c818561211b565b9350611c3c818560208601612296565b80840191505092915050565b611c5181612272565b82525050565b6000611c6282612110565b611c6c8185612126565b9350611c7c818560208601612296565b611c8581612401565b840191505092915050565b6000611c9d601483612126565b9150611ca882612412565b602082019050919050565b6000611cc0602683612126565b9150611ccb8261243b565b604082019050919050565b6000611ce3601b83612126565b9150611cee8261248a565b602082019050919050565b6000611d06602683612126565b9150611d11826124b3565b604082019050919050565b6000611d29601b83612126565b9150611d3482612502565b602082019050919050565b6000611d4c601083612126565b9150611d578261252b565b602082019050919050565b6000611d6f602083612126565b9150611d7a82612554565b602082019050919050565b6000611d92601c83612126565b9150611d9d8261257d565b602082019050919050565b6000611db5601683612126565b9150611dc0826125a6565b602082019050919050565b6000611dd8601d83612126565b9150611de3826125cf565b602082019050919050565b6000611dfb602a83612126565b9150611e06826125f8565b604082019050919050565b611e1a81612268565b82525050565b6000611e2c8284611c17565b915081905092915050565b6000602082019050611e4c6000830184611bf9565b92915050565b6000606082019050611e676000830186611bf9565b611e746020830185611bf9565b611e816040830184611e11565b949350505050565b6000602082019050611e9e6000830184611c08565b92915050565b6000602082019050611eb96000830184611c48565b92915050565b60006020820190508181036000830152611ed98184611c57565b905092915050565b60006020820190508181036000830152611efa81611c90565b9050919050565b60006020820190508181036000830152611f1a81611cb3565b9050919050565b60006020820190508181036000830152611f3a81611cd6565b9050919050565b60006020820190508181036000830152611f5a81611cf9565b9050919050565b60006020820190508181036000830152611f7a81611d1c565b9050919050565b60006020820190508181036000830152611f9a81611d3f565b9050919050565b60006020820190508181036000830152611fba81611d62565b9050919050565b60006020820190508181036000830152611fda81611d85565b9050919050565b60006020820190508181036000830152611ffa81611da8565b9050919050565b6000602082019050818103600083015261201a81611dcb565b9050919050565b6000602082019050818103600083015261203a81611dee565b9050919050565b60006020820190506120566000830184611e11565b92915050565b6000612066612077565b905061207282826122c9565b919050565b6000604051905090565b600067ffffffffffffffff82111561209c5761209b6123d2565b5b602082029050602081019050919050565b600067ffffffffffffffff8211156120c8576120c76123d2565b5b602082029050602081019050919050565b600067ffffffffffffffff8211156120f4576120f36123d2565b5b602082029050602081019050919050565b600081519050919050565b600081519050919050565b600081905092915050565b600082825260208201905092915050565b600061214282612268565b915061214d83612268565b9250827fffffffffffffffffffffffffffffffffffffffffffffffffffffffffffffffff0382111561218257612181612374565b5b828201905092915050565b600061219882612268565b91506121a383612268565b9250826121b3576121b26123a3565b5b828204905092915050565b60006121c982612268565b91506121d483612268565b9250817fffffffffffffffffffffffffffffffffffffffffffffffffffffffffffffffff048311821515161561220d5761220c612374565b5b828202905092915050565b600061222382612248565b9050919050565b60008115159050919050565b600061224182612218565b9050919050565b600073ffffffffffffffffffffffffffffffffffffffff82169050919050565b6000819050919050565b600061227d82612284565b9050919050565b600061228f82612248565b9050919050565b60005b838110156122b4578082015181840152602081019050612299565b838111156122c3576000848401525b50505050565b6122d282612401565b810181811067ffffffffffffffff821117156122f1576122f06123d2565b5b80604052505050565b600061230582612268565b91507fffffffffffffffffffffffffffffffffffffffffffffffffffffffffffffffff82141561233857612337612374565b5b600182019050919050565b600061234e82612268565b915061235983612268565b925082612369576123686123a3565b5b828206905092915050565b7f4e487b7100000000000000000000000000000000000000000000000000000000600052601160045260246000fd5b7f4e487b7100000000000000000000000000000000000000000000000000000000600052601260045260246000fd5b7f4e487b7100000000000000000000000000000000000000000000000000000000600052604160045260246000fd5b6000601f19601f8301169050919050565b7f5061757361626c653a206e6f7420706175736564000000000000000000000000600082015250565b7f4f776e61626c653a206e6577206f776e657220697320746865207a65726f206160008201527f6464726573730000000000000000000000000000000000000000000000000000602082015250565b7f426f6f7374657253616c653a20696e76616c696420616d6f756e740000000000600082015250565b7f416464726573733a20696e73756666696369656e742062616c616e636520666f60008201527f722063616c6c0000000000000000000000000000000000000000000000000000602082015250565b7f426f6f7374657253616c653a20696e76616c696420636f6e6669670000000000600082015250565b7f5061757361626c653a2070617573656400000000000000000000000000000000600082015250565b7f4f776e61626c653a2063616c6c6572206973206e6f7420746865206f776e6572600082015250565b7f426f6f7374657253616c653a206e6f742077686974656c697374656400000000600082015250565b7f426f6f7374657253616c653a2061626f76652063617000000000000000000000600082015250565b7f416464726573733a2063616c6c20746f206e6f6e2d636f6e7472616374000000600082015250565b7f5361666545524332303a204552433230206f7065726174696f6e20646964206e60008201527f6f74207375636365656400000000000000000000000000000000000000000000602082015250565b61265081612218565b811461265b57600080fd5b50565b6126678161222a565b811461267257600080fd5b50565b61267e81612236565b811461268957600080fd5b50565b61269581612268565b81146126a057600080fd5b5056fea2646970667358221220188e2e5cd2b3e28205d30e324b4aedd5b32a3911f682eff2af1da75bd60554b164736f6c63430008040033",
  "linkReferences": {},
  "deployedLinkReferences": {}
}