{
  "_format": "hh-sol-artifact-1",
  "contractName": "Marketplace",
  "sourceName": "contracts/marketplace/Marketplace.sol",
  "abi": [
    {
      "inputs": [
        {
          "internalType": "contract IERC20",
          "name": "_acceptedToken",
          "type": "address"
        },
        {
          "internalType": "uint256",
          "name": "_ownerCutPerMillion",
          "type": "uint256"
        },
        {
          "internalType": "uint256",
          "name": "_publicationFeeInWei",
          "type": "uint256"
        },
        {
          "internalType": "address",
          "name": "_owner",
          "type": "address"
        }
      ],
      "stateMutability": "nonpayable",
      "type": "constructor"
    },
    {
      "anonymous": false,
      "inputs": [
        {
          "indexed": false,
          "internalType": "uint256",
          "name": "ownerCutPerMillion",
          "type": "uint256"
        }
      ],
      "name": "ChangedOwnerCutPerMillion",
      "type": "event"
    },
    {
      "anonymous": false,
      "inputs": [
        {
          "indexed": false,
          "internalType": "uint256",
          "name": "publicationFee",
          "type": "uint256"
        }
      ],
      "name": "ChangedPublicationFee",
      "type": "event"
    },
    {
      "anonymous": false,
      "inputs": [
        {
          "indexed": false,
          "internalType": "uint256",
          "name": "id",
          "type": "uint256"
        },
        {
          "indexed": true,
          "internalType": "uint256",
          "name": "assetId",
          "type": "uint256"
        },
        {
          "indexed": true,
          "internalType": "address",
          "name": "seller",
          "type": "address"
        },
        {
          "indexed": false,
          "internalType": "uint256",
          "name": "amount",
          "type": "uint256"
        },
        {
          "indexed": false,
          "internalType": "address",
          "name": "nftAddress",
          "type": "address"
        }
      ],
      "name": "OrderCancelled",
      "type": "event"
    },
    {
      "anonymous": false,
      "inputs": [
        {
          "indexed": false,
          "internalType": "uint256",
          "name": "id",
          "type": "uint256"
        },
        {
          "indexed": true,
          "internalType": "uint256",
          "name": "assetId",
          "type": "uint256"
        },
        {
          "indexed": true,
          "internalType": "address",
          "name": "seller",
          "type": "address"
        },
        {
          "indexed": false,
          "internalType": "uint256",
          "name": "amount",
          "type": "uint256"
        },
        {
          "indexed": false,
          "internalType": "address",
          "name": "nftAddress",
          "type": "address"
        },
        {
          "indexed": false,
          "internalType": "uint256",
          "name": "priceInWei",
          "type": "uint256"
        },
        {
          "indexed": false,
          "internalType": "uint256",
          "name": "expiresAt",
          "type": "uint256"
        }
      ],
      "name": "OrderCreated",
      "type": "event"
    },
    {
      "anonymous": false,
      "inputs": [
        {
          "indexed": false,
          "internalType": "uint256",
          "name": "id",
          "type": "uint256"
        },
        {
          "indexed": true,
          "internalType": "uint256",
          "name": "assetId",
          "type": "uint256"
        },
        {
          "indexed": true,
          "internalType": "address",
          "name": "seller",
          "type": "address"
        },
        {
          "indexed": false,
          "internalType": "uint256",
          "name": "amount",
          "type": "uint256"
        },
        {
          "indexed": false,
          "internalType": "address",
          "name": "nftAddress",
          "type": "address"
        },
        {
          "indexed": false,
          "internalType": "uint256",
          "name": "totalPrice",
          "type": "uint256"
        },
        {
          "indexed": true,
          "internalType": "address",
          "name": "buyer",
          "type": "address"
        }
      ],
      "name": "OrderExecuted",
      "type": "event"
    },
    {
      "anonymous": false,
      "inputs": [
        {
          "indexed": false,
          "internalType": "address",
          "name": "account",
          "type": "address"
        }
      ],
      "name": "Paused",
      "type": "event"
    },
    {
      "anonymous": false,
      "inputs": [
        {
          "indexed": true,
          "internalType": "bytes32",
          "name": "role",
          "type": "bytes32"
        },
        {
          "indexed": true,
          "internalType": "bytes32",
          "name": "previousAdminRole",
          "type": "bytes32"
        },
        {
          "indexed": true,
          "internalType": "bytes32",
          "name": "newAdminRole",
          "type": "bytes32"
        }
      ],
      "name": "RoleAdminChanged",
      "type": "event"
    },
    {
      "anonymous": false,
      "inputs": [
        {
          "indexed": true,
          "internalType": "bytes32",
          "name": "role",
          "type": "bytes32"
        },
        {
          "indexed": true,
          "internalType": "address",
          "name": "account",
          "type": "address"
        },
        {
          "indexed": true,
          "internalType": "address",
          "name": "sender",
          "type": "address"
        }
      ],
      "name": "RoleGranted",
      "type": "event"
    },
    {
      "anonymous": false,
      "inputs": [
        {
          "indexed": true,
          "internalType": "bytes32",
          "name": "role",
          "type": "bytes32"
        },
        {
          "indexed": true,
          "internalType": "address",
          "name": "account",
          "type": "address"
        },
        {
          "indexed": true,
          "internalType": "address",
          "name": "sender",
          "type": "address"
        }
      ],
      "name": "RoleRevoked",
      "type": "event"
    },
    {
      "anonymous": false,
      "inputs": [
        {
          "indexed": false,
          "internalType": "address",
          "name": "account",
          "type": "address"
        }
      ],
      "name": "Unpaused",
      "type": "event"
    },
    {
      "inputs": [],
      "name": "DEFAULT_ADMIN_ROLE",
      "outputs": [
        {
          "internalType": "bytes32",
          "name": "",
          "type": "bytes32"
        }
      ],
      "stateMutability": "view",
      "type": "function"
    },
    {
      "inputs": [],
      "name": "MILLION",
      "outputs": [
        {
          "internalType": "uint256",
          "name": "",
          "type": "uint256"
        }
      ],
      "stateMutability": "view",
      "type": "function"
    },
    {
      "inputs": [],
      "name": "OPERATOR_ROLE",
      "outputs": [
        {
          "internalType": "bytes32",
          "name": "",
          "type": "bytes32"
        }
      ],
      "stateMutability": "view",
      "type": "function"
    },
    {
      "inputs": [],
      "name": "acceptedToken",
      "outputs": [
        {
          "internalType": "contract IERC20",
          "name": "",
          "type": "address"
        }
      ],
      "stateMutability": "view",
      "type": "function"
    },
    {
      "inputs": [
        {
          "components": [
            {
              "internalType": "address",
              "name": "addr",
              "type": "address"
            },
            {
              "internalType": "enum MarketplaceStorage.AssetType",
              "name": "tokenType",
              "type": "uint8"
            }
          ],
          "internalType": "struct MarketplaceStorage.NFT[]",
          "name": "_nfts",
          "type": "tuple[]"
        }
      ],
      "name": "approveNFTs",
      "outputs": [],
      "stateMutability": "nonpayable",
      "type": "function"
    },
    {
      "inputs": [
        {
          "internalType": "uint256",
          "name": "orderId",
          "type": "uint256"
        }
      ],
      "name": "cancelOrder",
      "outputs": [],
      "stateMutability": "nonpayable",
      "type": "function"
    },
    {
      "inputs": [
        {
          "internalType": "address",
          "name": "nftAddress",
          "type": "address"
        },
        {
          "internalType": "uint256",
          "name": "assetId",
          "type": "uint256"
        },
        {
          "internalType": "uint256",
          "name": "amount",
          "type": "uint256"
        },
        {
          "internalType": "uint256",
          "name": "priceInWei",
          "type": "uint256"
        },
        {
          "internalType": "uint256",
          "name": "expiresAt",
          "type": "uint256"
        }
      ],
      "name": "createOrder",
      "outputs": [],
      "stateMutability": "nonpayable",
      "type": "function"
    },
    {
      "inputs": [
        {
          "internalType": "uint256",
          "name": "orderId",
          "type": "uint256"
        }
      ],
      "name": "executeOrder",
      "outputs": [],
      "stateMutability": "nonpayable",
      "type": "function"
    },
    {
      "inputs": [
        {
          "internalType": "address",
          "name": "nftAddress",
          "type": "address"
        }
      ],
      "name": "getAssetType",
      "outputs": [
        {
          "internalType": "enum MarketplaceStorage.AssetType",
          "name": "",
          "type": "uint8"
        }
      ],
      "stateMutability": "view",
      "type": "function"
    },
    {
      "inputs": [
        {
          "internalType": "bytes32",
          "name": "role",
          "type": "bytes32"
        }
      ],
      "name": "getRoleAdmin",
      "outputs": [
        {
          "internalType": "bytes32",
          "name": "",
          "type": "bytes32"
        }
      ],
      "stateMutability": "view",
      "type": "function"
    },
    {
      "inputs": [
        {
          "internalType": "bytes32",
          "name": "role",
          "type": "bytes32"
        },
        {
          "internalType": "address",
          "name": "account",
          "type": "address"
        }
      ],
      "name": "grantRole",
      "outputs": [],
      "stateMutability": "nonpayable",
      "type": "function"
    },
    {
      "inputs": [
        {
          "internalType": "bytes32",
          "name": "role",
          "type": "bytes32"
        },
        {
          "internalType": "address",
          "name": "account",
          "type": "address"
        }
      ],
      "name": "hasRole",
      "outputs": [
        {
          "internalType": "bool",
          "name": "",
          "type": "bool"
        }
      ],
      "stateMutability": "view",
      "type": "function"
    },
    {
      "inputs": [
        {
          "internalType": "uint256",
          "name": "",
          "type": "uint256"
        }
      ],
      "name": "nfts",
      "outputs": [
        {
          "internalType": "address",
          "name": "addr",
          "type": "address"
        },
        {
          "internalType": "enum MarketplaceStorage.AssetType",
          "name": "tokenType",
          "type": "uint8"
        }
      ],
      "stateMutability": "view",
      "type": "function"
    },
    {
      "inputs": [
        {
          "internalType": "uint256",
          "name": "",
          "type": "uint256"
        }
      ],
      "name": "orders",
      "outputs": [
        {
          "internalType": "uint256",
          "name": "id",
          "type": "uint256"
        },
        {
          "internalType": "address",
          "name": "seller",
          "type": "address"
        },
        {
          "internalType": "address",
          "name": "nftAddress",
          "type": "address"
        },
        {
          "internalType": "uint256",
          "name": "assetId",
          "type": "uint256"
        },
        {
          "internalType": "uint256",
          "name": "amount",
          "type": "uint256"
        },
        {
          "internalType": "uint256",
          "name": "price",
          "type": "uint256"
        },
        {
          "internalType": "uint256",
          "name": "expiresAt",
          "type": "uint256"
        }
      ],
      "stateMutability": "view",
      "type": "function"
    },
    {
      "inputs": [],
      "name": "owner",
      "outputs": [
        {
          "internalType": "address",
          "name": "",
          "type": "address"
        }
      ],
      "stateMutability": "view",
      "type": "function"
    },
    {
      "inputs": [],
      "name": "ownerCutPerMillion",
      "outputs": [
        {
          "internalType": "uint256",
          "name": "",
          "type": "uint256"
        }
      ],
      "stateMutability": "view",
      "type": "function"
    },
    {
      "inputs": [],
      "name": "paused",
      "outputs": [
        {
          "internalType": "bool",
          "name": "",
          "type": "bool"
        }
      ],
      "stateMutability": "view",
      "type": "function"
    },
    {
      "inputs": [],
      "name": "publicationFeeInWei",
      "outputs": [
        {
          "internalType": "uint256",
          "name": "",
          "type": "uint256"
        }
      ],
      "stateMutability": "view",
      "type": "function"
    },
    {
      "inputs": [
        {
          "internalType": "bytes32",
          "name": "role",
          "type": "bytes32"
        },
        {
          "internalType": "address",
          "name": "account",
          "type": "address"
        }
      ],
      "name": "renounceRole",
      "outputs": [],
      "stateMutability": "nonpayable",
      "type": "function"
    },
    {
      "inputs": [
        {
          "internalType": "bytes32",
          "name": "role",
          "type": "bytes32"
        },
        {
          "internalType": "address",
          "name": "account",
          "type": "address"
        }
      ],
      "name": "revokeRole",
      "outputs": [],
      "stateMutability": "nonpayable",
      "type": "function"
    },
    {
      "inputs": [
        {
          "internalType": "uint256",
          "name": "_ownerCutPerMillion",
          "type": "uint256"
        }
      ],
      "name": "setOwnerCutPerMillion",
      "outputs": [],
      "stateMutability": "nonpayable",
      "type": "function"
    },
    {
      "inputs": [
        {
          "internalType": "uint256",
          "name": "_publicationFeeInWei",
          "type": "uint256"
        }
      ],
      "name": "setPublicationFee",
      "outputs": [],
      "stateMutability": "nonpayable",
      "type": "function"
    },
    {
      "inputs": [
        {
          "internalType": "bytes4",
          "name": "interfaceId",
          "type": "bytes4"
        }
      ],
      "name": "supportsInterface",
      "outputs": [
        {
          "internalType": "bool",
          "name": "",
          "type": "bool"
        }
      ],
      "stateMutability": "view",
      "type": "function"
    }
  ],
  "bytecode": "0x60a06040523480156200001157600080fd5b506040516200468438038062004684833981810160405281019062000037919062000581565b6000600160006101000a81548160ff021916908315150217905550600073ffffffffffffffffffffffffffffffffffffffff168473ffffffffffffffffffffffffffffffffffffffff161415620000c5576040517f08c379a0000000000000000000000000000000000000000000000000000000008152600401620000bc9062000654565b60405180910390fd5b600073ffffffffffffffffffffffffffffffffffffffff168173ffffffffffffffffffffffffffffffffffffffff16141562000138576040517f08c379a00000000000000000000000000000000000000000000000000000000081526004016200012f90620006c6565b60405180910390fd5b836001806101000a81548173ffffffffffffffffffffffffffffffffffffffff021916908373ffffffffffffffffffffffffffffffffffffffff16021790555062000189836200023660201b60201c565b6200019a82620002c360201b60201c565b8073ffffffffffffffffffffffffffffffffffffffff1660808173ffffffffffffffffffffffffffffffffffffffff1681525050620001e560076200030860201b620019681760201c565b620001fa6000801b826200031e60201b60201c565b6200022c7f97667070c54ef182b0f5858b034beac1b6f3089aa2d3188bb1e8929f4fa9b929826200031e60201b60201c565b5050505062000788565b620f424081106200027e576040517f08c379a0000000000000000000000000000000000000000000000000000000008152600401620002759062000738565b60405180910390fd5b806005819055507ffa406a120a9e7f2b332bfb7a43d3bf1c3f079262202907a6b69c94b2821a02c6600554604051620002b891906200076b565b60405180910390a150565b806006819055507fe7fa8737293f41b5dfa0d5c3e552860a06275bed7015581b083c7be7003308ba600654604051620002fd91906200076b565b60405180910390a150565b6001816000016000828254019250508190555050565b6200033082826200033460201b60201c565b5050565b6200034682826200042560201b60201c565b6200042157600160008084815260200190815260200160002060000160008373ffffffffffffffffffffffffffffffffffffffff1673ffffffffffffffffffffffffffffffffffffffff16815260200190815260200160002060006101000a81548160ff021916908315150217905550620003c66200048f60201b60201c565b73ffffffffffffffffffffffffffffffffffffffff168173ffffffffffffffffffffffffffffffffffffffff16837f2f8788117e7eff1d82e926ec794901d17c78024a50270940304540a733656f0d60405160405180910390a45b5050565b600080600084815260200190815260200160002060000160008373ffffffffffffffffffffffffffffffffffffffff1673ffffffffffffffffffffffffffffffffffffffff16815260200190815260200160002060009054906101000a900460ff16905092915050565b600033905090565b600080fd5b600073ffffffffffffffffffffffffffffffffffffffff82169050919050565b6000620004c9826200049c565b9050919050565b6000620004dd82620004bc565b9050919050565b620004ef81620004d0565b8114620004fb57600080fd5b50565b6000815190506200050f81620004e4565b92915050565b6000819050919050565b6200052a8162000515565b81146200053657600080fd5b50565b6000815190506200054a816200051f565b92915050565b6200055b81620004bc565b81146200056757600080fd5b50565b6000815190506200057b8162000550565b92915050565b600080600080608085870312156200059e576200059d62000497565b5b6000620005ae87828801620004fe565b9450506020620005c18782880162000539565b9350506040620005d48782880162000539565b9250506060620005e7878288016200056a565b91505092959194509250565b600082825260208201905092915050565b7f496e76616c696420616363657074656420746f6b656e00000000000000000000600082015250565b60006200063c601683620005f3565b9150620006498262000604565b602082019050919050565b600060208201905081810360008301526200066f816200062d565b9050919050565b7f496e76616c6964206f776e657200000000000000000000000000000000000000600082015250565b6000620006ae600d83620005f3565b9150620006bb8262000676565b602082019050919050565b60006020820190508181036000830152620006e1816200069f565b9050919050565b7f496e76616c6964206f776e657220637574000000000000000000000000000000600082015250565b600062000720601183620005f3565b91506200072d82620006e8565b602082019050919050565b60006020820190508181036000830152620007538162000711565b9050919050565b620007658162000515565b82525050565b60006020820190506200078260008301846200075a565b92915050565b608051613ed2620007b260003960008181610a8101528181610e9001526118500152613ed26000f3fe608060405234801561001057600080fd5b506004361061014d5760003560e01c80638bf6a4eb116100c3578063a85c38ef1161007c578063a85c38ef1461039f578063ae4f1198146103d5578063af8996f1146103f3578063cd115e211461040f578063d547741f1461042b578063f5b541a6146104475761014d565b80638bf6a4eb146102dd5780638da5cb5b146102f957806391d148541461031757806394f6113414610347578063a01f79d414610363578063a217fddf146103815761014d565b80632f2ff15d116101155780632f2ff15d1461022f57806332bc934c1461024b57806336568abe14610269578063451c3d8014610285578063514fcac7146102a35780635c975abb146102bf5761014d565b806301ffc9a714610152578063032c49ed1461018257806319dad16d146101b2578063248a9ca3146101ce578063265aa621146101fe575b600080fd5b61016c600480360381019061016791906128a7565b610465565b60405161017991906128ef565b60405180910390f35b61019c60048036038101906101979190612968565b6104df565b6040516101a99190612a0c565b60405180910390f35b6101cc60048036038101906101c79190612a5d565b6105be565b005b6101e860048036038101906101e39190612ac0565b6105fd565b6040516101f59190612afc565b60405180910390f35b61021860048036038101906102139190612a5d565b61061c565b604051610226929190612b26565b60405180910390f35b61024960048036038101906102449190612b4f565b610679565b005b6102536106a2565b6040516102609190612b9e565b60405180910390f35b610283600480360381019061027e9190612b4f565b6106a9565b005b61028d61072c565b60405161029a9190612c18565b60405180910390f35b6102bd60048036038101906102b89190612a5d565b610750565b005b6102c76108d0565b6040516102d491906128ef565b60405180910390f35b6102f760048036038101906102f29190612c98565b6108e7565b005b610301610a7f565b60405161030e9190612ce5565b60405180910390f35b610331600480360381019061032c9190612b4f565b610aa3565b60405161033e91906128ef565b60405180910390f35b610361600480360381019061035c9190612a5d565b610b0d565b005b61036b6110a2565b6040516103789190612b9e565b60405180910390f35b6103896110a8565b6040516103969190612afc565b60405180910390f35b6103b960048036038101906103b49190612a5d565b6110af565b6040516103cc9796959493929190612d00565b60405180910390f35b6103dd611141565b6040516103ea9190612b9e565b60405180910390f35b61040d60048036038101906104089190612a5d565b611147565b005b61042960048036038101906104249190612d6f565b611186565b005b61044560048036038101906104409190612b4f565b61191b565b005b61044f611944565b60405161045c9190612afc565b60405180910390f35b60007f7965db0b000000000000000000000000000000000000000000000000000000007bffffffffffffffffffffffffffffffffffffffffffffffffffffffff1916827bffffffffffffffffffffffffffffffffffffffffffffffffffffffff191614806104d857506104d78261197e565b5b9050919050565b600080600090505b6004805490508110156105b3578273ffffffffffffffffffffffffffffffffffffffff166004828154811061051f5761051e612dea565b5b9060005260206000200160000160009054906101000a900473ffffffffffffffffffffffffffffffffffffffff1673ffffffffffffffffffffffffffffffffffffffff1614156105a0576004818154811061057d5761057c612dea565b5b9060005260206000200160000160149054906101000a900460ff169150506105b9565b80806105ab90612e48565b9150506104e7565b50600090505b919050565b7f97667070c54ef182b0f5858b034beac1b6f3089aa2d3188bb1e8929f4fa9b9296105f0816105eb6119e8565b6119f0565b6105f982611a8d565b5050565b6000806000838152602001908152602001600020600101549050919050565b6004818154811061062c57600080fd5b906000526020600020016000915090508060000160009054906101000a900473ffffffffffffffffffffffffffffffffffffffff16908060000160149054906101000a900460ff16905082565b610682826105fd565b6106938161068e6119e8565b6119f0565b61069d8383611b15565b505050565b620f424081565b6106b16119e8565b73ffffffffffffffffffffffffffffffffffffffff168173ffffffffffffffffffffffffffffffffffffffff161461071e576040517f08c379a000000000000000000000000000000000000000000000000000000000815260040161071590612f14565b60405180910390fd5b6107288282611bf5565b5050565b60018054906101000a900473ffffffffffffffffffffffffffffffffffffffff1681565b6107586108d0565b15610798576040517f08c379a000000000000000000000000000000000000000000000000000000000815260040161078f90612f80565b60405180910390fd5b60006107a382611cd6565b90503373ffffffffffffffffffffffffffffffffffffffff16816020015173ffffffffffffffffffffffffffffffffffffffff16148061080957506108087f97667070c54ef182b0f5858b034beac1b6f3089aa2d3188bb1e8929f4fa9b92933610aa3565b5b610848576040517f08c379a000000000000000000000000000000000000000000000000000000000815260040161083f90612fec565b60405180910390fd5b60008160600151905060008260200151905060008360400151905060008460800151905061087586611e9c565b8273ffffffffffffffffffffffffffffffffffffffff16847fc1d10a941b6901df329fcbab88fd651a427dce87c6d7deec21618b952100151c8884866040516108c09392919061300c565b60405180910390a3505050505050565b6000600160009054906101000a900460ff16905090565b7f97667070c54ef182b0f5858b034beac1b6f3089aa2d3188bb1e8929f4fa9b929610919816109146119e8565b6119f0565b600460006109279190612769565b60005b83839050811015610a79576004604051806040016040528086868581811061095557610954612dea565b5b905060400201600001602081019061096d9190612968565b73ffffffffffffffffffffffffffffffffffffffff16815260200186868581811061099b5761099a612dea565b5b90506040020160200160208101906109b39190613068565b60028111156109c5576109c4612995565b5b8152509080600181540180825580915050600190039060005260206000200160009091909190915060008201518160000160006101000a81548173ffffffffffffffffffffffffffffffffffffffff021916908373ffffffffffffffffffffffffffffffffffffffff16021790555060208201518160000160146101000a81548160ff02191690836002811115610a5f57610a5e612995565b5b021790555050508080610a7190612e48565b91505061092a565b50505050565b7f000000000000000000000000000000000000000000000000000000000000000081565b600080600084815260200190815260200160002060000160008373ffffffffffffffffffffffffffffffffffffffff1673ffffffffffffffffffffffffffffffffffffffff16815260200190815260200160002060009054906101000a900460ff16905092915050565b610b156108d0565b15610b55576040517f08c379a0000000000000000000000000000000000000000000000000000000008152600401610b4c90612f80565b60405180910390fd5b6000610b6082611cd6565b90506000816020015190503373ffffffffffffffffffffffffffffffffffffffff168173ffffffffffffffffffffffffffffffffffffffff161415610bda576040517f08c379a0000000000000000000000000000000000000000000000000000000008152600401610bd1906130e1565b60405180910390fd5b8160c001514210610c20576040517f08c379a0000000000000000000000000000000000000000000000000000000008152600401610c179061314d565b60405180910390fd5b60008260800151905060008360600151905060008460a0015190506000856040015190506000610c4f826104df565b905060016002811115610c6557610c64612995565b5b816002811115610c7857610c77612995565b5b1415610d5a57600082905060008173ffffffffffffffffffffffffffffffffffffffff166370a08231896040518263ffffffff1660e01b8152600401610cbe9190612ce5565b60206040518083038186803b158015610cd657600080fd5b505afa158015610cea573d6000803e3d6000fd5b505050506040513d601f19601f82011682018060405250810190610d0e9190613182565b905086811015610d53576040517f08c379a0000000000000000000000000000000000000000000000000000000008152600401610d4a906131fb565b60405180910390fd5b5050610e57565b60008290508073ffffffffffffffffffffffffffffffffffffffff16636352211e866040518263ffffffff1660e01b8152600401610d989190612b9e565b60206040518083038186803b158015610db057600080fd5b505afa158015610dc4573d6000803e3d6000fd5b505050506040513d601f19601f82011682018060405250810190610de89190613230565b73ffffffffffffffffffffffffffffffffffffffff168773ffffffffffffffffffffffffffffffffffffffff1614610e55576040517f08c379a0000000000000000000000000000000000000000000000000000000008152600401610e4c906132a9565b60405180910390fd5b505b610e6088611e9c565b6000806005541115610ef857620f424060055485610e7e91906132c9565b610e889190613352565b9050610ef7337f00000000000000000000000000000000000000000000000000000000000000008360018054906101000a900473ffffffffffffffffffffffffffffffffffffffff1673ffffffffffffffffffffffffffffffffffffffff166120c8909392919063ffffffff16565b5b610f5033888387610f099190613383565b60018054906101000a900473ffffffffffffffffffffffffffffffffffffffff1673ffffffffffffffffffffffffffffffffffffffff166120c8909392919063ffffffff16565b60016002811115610f6457610f63612995565b5b826002811115610f7757610f76612995565b5b1415610fb5576000839050610faf8833898473ffffffffffffffffffffffffffffffffffffffff166120c8909392919063ffffffff16565b5061102b565b60008390508073ffffffffffffffffffffffffffffffffffffffff166342842e0e8933896040518463ffffffff1660e01b8152600401610ff7939291906133b7565b600060405180830381600087803b15801561101157600080fd5b505af1158015611025573d6000803e3d6000fd5b50505050505b3373ffffffffffffffffffffffffffffffffffffffff168773ffffffffffffffffffffffffffffffffffffffff16867f31d527e062da06a19d35b7e6379b1c78dd7ad54432f1bd50fd6977697f0b800d8c8a888a60405161108f94939291906133ee565b60405180910390a4505050505050505050565b60055481565b6000801b81565b600281815481106110bf57600080fd5b90600052602060002090600702016000915090508060000154908060010160009054906101000a900473ffffffffffffffffffffffffffffffffffffffff16908060020160009054906101000a900473ffffffffffffffffffffffffffffffffffffffff16908060030154908060040154908060050154908060060154905087565b60065481565b7f97667070c54ef182b0f5858b034beac1b6f3089aa2d3188bb1e8929f4fa9b929611179816111746119e8565b6119f0565b61118282612151565b5050565b61118e6108d0565b156111ce576040517f08c379a00000000000000000000000000000000000000000000000000000000081526004016111c590612f80565b60405180910390fd5b60008211611211576040517f08c379a00000000000000000000000000000000000000000000000000000000081526004016112089061347f565b60405180910390fd5b6000429050603c81611223919061349f565b8211611264576040517f08c379a000000000000000000000000000000000000000000000000000000000815260040161125b90613541565b60405180910390fd5b600061126f876104df565b90506000600281111561128557611284612995565b5b81600281111561129857611297612995565b5b14156112d9576040517f08c379a00000000000000000000000000000000000000000000000000000000081526004016112d0906135ad565b60405180910390fd5b600160028111156112ed576112ec612995565b5b816002811115611300576112ff612995565b5b14156114f25760008614611349576040517f08c379a000000000000000000000000000000000000000000000000000000000815260040161134090613619565b60405180910390fd5b600087905060008173ffffffffffffffffffffffffffffffffffffffff166370a08231336040518263ffffffff1660e01b81526004016113899190612ce5565b60206040518083038186803b1580156113a157600080fd5b505afa1580156113b5573d6000803e3d6000fd5b505050506040513d601f19601f820116820180604052508101906113d99190613182565b90508681101561141e576040517f08c379a000000000000000000000000000000000000000000000000000000000815260040161141590613685565b60405180910390fd5b868273ffffffffffffffffffffffffffffffffffffffff1663dd62ed3e33306040518363ffffffff1660e01b815260040161145a9291906136a5565b60206040518083038186803b15801561147257600080fd5b505afa158015611486573d6000803e3d6000fd5b505050506040513d601f19601f820116820180604052508101906114aa9190613182565b10156114eb576040517f08c379a00000000000000000000000000000000000000000000000000000000081526004016114e29061371a565b60405180910390fd5b50506117c0565b60018514611535576040517f08c379a000000000000000000000000000000000000000000000000000000000815260040161152c90613786565b60405180910390fd5b600087905060008173ffffffffffffffffffffffffffffffffffffffff16636352211e896040518263ffffffff1660e01b81526004016115759190612b9e565b60206040518083038186803b15801561158d57600080fd5b505afa1580156115a1573d6000803e3d6000fd5b505050506040513d601f19601f820116820180604052508101906115c59190613230565b90508073ffffffffffffffffffffffffffffffffffffffff163373ffffffffffffffffffffffffffffffffffffffff1614611635576040517f08c379a000000000000000000000000000000000000000000000000000000000815260040161162c906137f2565b60405180910390fd5b3073ffffffffffffffffffffffffffffffffffffffff168273ffffffffffffffffffffffffffffffffffffffff1663081812fc8a6040518263ffffffff1660e01b81526004016116859190612b9e565b60206040518083038186803b15801561169d57600080fd5b505afa1580156116b1573d6000803e3d6000fd5b505050506040513d601f19601f820116820180604052508101906116d59190613230565b73ffffffffffffffffffffffffffffffffffffffff16148061177e57508173ffffffffffffffffffffffffffffffffffffffff1663e985e9c582306040518363ffffffff1660e01b815260040161172d9291906136a5565b60206040518083038186803b15801561174557600080fd5b505afa158015611759573d6000803e3d6000fd5b505050506040513d601f19601f8201168201806040525081019061177d919061383e565b5b6117bd576040517f08c379a00000000000000000000000000000000000000000000000000000000081526004016117b49061371a565b60405180910390fd5b50505b60006117cc6007612194565b90506117d86007611968565b61183f6040518060e001604052808381526020013373ffffffffffffffffffffffffffffffffffffffff1681526020018a73ffffffffffffffffffffffffffffffffffffffff168152602001898152602001888152602001878152602001868152506121a2565b600060065411156118ba576118b9337f000000000000000000000000000000000000000000000000000000000000000060065460018054906101000a900473ffffffffffffffffffffffffffffffffffffffff1673ffffffffffffffffffffffffffffffffffffffff166120c8909392919063ffffffff16565b5b3373ffffffffffffffffffffffffffffffffffffffff16877f64a51624f531aae4e5d86d31192645e61feee4523e2544113240356c630f4e1083898c8a8a60405161190995949392919061386b565b60405180910390a35050505050505050565b611924826105fd565b611935816119306119e8565b6119f0565b61193f8383611bf5565b505050565b7f97667070c54ef182b0f5858b034beac1b6f3089aa2d3188bb1e8929f4fa9b92981565b6001816000016000828254019250508190555050565b60007f01ffc9a7000000000000000000000000000000000000000000000000000000007bffffffffffffffffffffffffffffffffffffffffffffffffffffffff1916827bffffffffffffffffffffffffffffffffffffffffffffffffffffffff1916149050919050565b600033905090565b6119fa8282610aa3565b611a8957611a1f8173ffffffffffffffffffffffffffffffffffffffff1660146122c0565b611a2d8360001c60206122c0565b604051602001611a3e9291906139d0565b6040516020818303038152906040526040517f08c379a0000000000000000000000000000000000000000000000000000000008152600401611a809190613a54565b60405180910390fd5b5050565b620f42408110611ad2576040517f08c379a0000000000000000000000000000000000000000000000000000000008152600401611ac990613ac2565b60405180910390fd5b806005819055507ffa406a120a9e7f2b332bfb7a43d3bf1c3f079262202907a6b69c94b2821a02c6600554604051611b0a9190612b9e565b60405180910390a150565b611b1f8282610aa3565b611bf157600160008084815260200190815260200160002060000160008373ffffffffffffffffffffffffffffffffffffffff1673ffffffffffffffffffffffffffffffffffffffff16815260200190815260200160002060006101000a81548160ff021916908315150217905550611b966119e8565b73ffffffffffffffffffffffffffffffffffffffff168173ffffffffffffffffffffffffffffffffffffffff16837f2f8788117e7eff1d82e926ec794901d17c78024a50270940304540a733656f0d60405160405180910390a45b5050565b611bff8282610aa3565b15611cd257600080600084815260200190815260200160002060000160008373ffffffffffffffffffffffffffffffffffffffff1673ffffffffffffffffffffffffffffffffffffffff16815260200190815260200160002060006101000a81548160ff021916908315150217905550611c776119e8565b73ffffffffffffffffffffffffffffffffffffffff168173ffffffffffffffffffffffffffffffffffffffff16837ff6391f5c32d9c69d2a47ea670b442974b53935d1edc7fd64eb21e047a839171b60405160405180910390a45b5050565b611cde61278a565b6000600360008481526020019081526020016000205490506002805490508110611d3d576040517f08c379a0000000000000000000000000000000000000000000000000000000008152600401611d3490613b2e565b60405180910390fd5b600060028281548110611d5357611d52612dea565b5b90600052602060002090600702016040518060e0016040529081600082015481526020016001820160009054906101000a900473ffffffffffffffffffffffffffffffffffffffff1673ffffffffffffffffffffffffffffffffffffffff1673ffffffffffffffffffffffffffffffffffffffff1681526020016002820160009054906101000a900473ffffffffffffffffffffffffffffffffffffffff1673ffffffffffffffffffffffffffffffffffffffff1673ffffffffffffffffffffffffffffffffffffffff168152602001600382015481526020016004820154815260200160058201548152602001600682015481525050905083816000015114611e92576040517f08c379a0000000000000000000000000000000000000000000000000000000008152600401611e8990613b9a565b60405180910390fd5b8092505050919050565b600360008281526020019081526020016000206000905560006003600083815260200190815260200160002054905060026001600280549050611edf9190613383565b81548110611ef057611eef612dea565b5b906000526020600020906007020160028281548110611f1257611f11612dea565b5b9060005260206000209060070201600082015481600001556001820160009054906101000a900473ffffffffffffffffffffffffffffffffffffffff168160010160006101000a81548173ffffffffffffffffffffffffffffffffffffffff021916908373ffffffffffffffffffffffffffffffffffffffff1602179055506002820160009054906101000a900473ffffffffffffffffffffffffffffffffffffffff168160020160006101000a81548173ffffffffffffffffffffffffffffffffffffffff021916908373ffffffffffffffffffffffffffffffffffffffff16021790555060038201548160030155600482015481600401556005820154816005015560068201548160060155905050600280548061203557612034613bba565b5b60019003818190600052602060002090600702016000808201600090556001820160006101000a81549073ffffffffffffffffffffffffffffffffffffffff02191690556002820160006101000a81549073ffffffffffffffffffffffffffffffffffffffff02191690556003820160009055600482016000905560058201600090556006820160009055505090555050565b61214b846323b872dd60e01b8585856040516024016120e9939291906133b7565b604051602081830303815290604052907bffffffffffffffffffffffffffffffffffffffffffffffffffffffff19166020820180517bffffffffffffffffffffffffffffffffffffffffffffffffffffffff83818316178352505050506124fc565b50505050565b806006819055507fe7fa8737293f41b5dfa0d5c3e552860a06275bed7015581b083c7be7003308ba6006546040516121899190612b9e565b60405180910390a150565b600081600001549050919050565b60028190806001815401808255809150506001900390600052602060002090600702016000909190919091506000820151816000015560208201518160010160006101000a81548173ffffffffffffffffffffffffffffffffffffffff021916908373ffffffffffffffffffffffffffffffffffffffff16021790555060408201518160020160006101000a81548173ffffffffffffffffffffffffffffffffffffffff021916908373ffffffffffffffffffffffffffffffffffffffff160217905550606082015181600301556080820151816004015560a0820151816005015560c08201518160060155505060016002805490506122a29190613383565b60036000836000015181526020019081526020016000208190555050565b6060600060028360026122d391906132c9565b6122dd919061349f565b67ffffffffffffffff8111156122f6576122f5613be9565b5b6040519080825280601f01601f1916602001820160405280156123285781602001600182028036833780820191505090505b5090507f3000000000000000000000000000000000000000000000000000000000000000816000815181106123605761235f612dea565b5b60200101907effffffffffffffffffffffffffffffffffffffffffffffffffffffffffffff1916908160001a9053507f7800000000000000000000000000000000000000000000000000000000000000816001815181106123c4576123c3612dea565b5b60200101907effffffffffffffffffffffffffffffffffffffffffffffffffffffffffffff1916908160001a9053506000600184600261240491906132c9565b61240e919061349f565b90505b60018111156124ae577f3031323334353637383961626364656600000000000000000000000000000000600f8616601081106124505761244f612dea565b5b1a60f81b82828151811061246757612466612dea565b5b60200101907effffffffffffffffffffffffffffffffffffffffffffffffffffffffffffff1916908160001a905350600485901c9450806124a790613c18565b9050612411565b50600084146124f2576040517f08c379a00000000000000000000000000000000000000000000000000000000081526004016124e990613c8e565b60405180910390fd5b8091505092915050565b600061255e826040518060400160405280602081526020017f5361666545524332303a206c6f772d6c6576656c2063616c6c206661696c65648152508573ffffffffffffffffffffffffffffffffffffffff166125c39092919063ffffffff16565b90506000815111156125be578080602001905181019061257e919061383e565b6125bd576040517f08c379a00000000000000000000000000000000000000000000000000000000081526004016125b490613d20565b60405180910390fd5b5b505050565b60606125d284846000856125db565b90509392505050565b606082471015612620576040517f08c379a000000000000000000000000000000000000000000000000000000000815260040161261790613db2565b60405180910390fd5b612629856126ef565b612668576040517f08c379a000000000000000000000000000000000000000000000000000000000815260040161265f90613e1e565b60405180910390fd5b6000808673ffffffffffffffffffffffffffffffffffffffff1685876040516126919190613e85565b60006040518083038185875af1925050503d80600081146126ce576040519150601f19603f3d011682016040523d82523d6000602084013e6126d3565b606091505b50915091506126e3828286612702565b92505050949350505050565b600080823b905060008111915050919050565b6060831561271257829050612762565b6000835111156127255782518084602001fd5b816040517f08c379a00000000000000000000000000000000000000000000000000000000081526004016127599190613a54565b60405180910390fd5b9392505050565b508054600082559060005260206000209081019061278791906127f3565b50565b6040518060e0016040528060008152602001600073ffffffffffffffffffffffffffffffffffffffff168152602001600073ffffffffffffffffffffffffffffffffffffffff168152602001600081526020016000815260200160008152602001600081525090565b5b8082111561284157600080820160006101000a81549073ffffffffffffffffffffffffffffffffffffffff02191690556000820160146101000a81549060ff0219169055506001016127f4565b5090565b600080fd5b600080fd5b60007fffffffff0000000000000000000000000000000000000000000000000000000082169050919050565b6128848161284f565b811461288f57600080fd5b50565b6000813590506128a18161287b565b92915050565b6000602082840312156128bd576128bc612845565b5b60006128cb84828501612892565b91505092915050565b60008115159050919050565b6128e9816128d4565b82525050565b600060208201905061290460008301846128e0565b92915050565b600073ffffffffffffffffffffffffffffffffffffffff82169050919050565b60006129358261290a565b9050919050565b6129458161292a565b811461295057600080fd5b50565b6000813590506129628161293c565b92915050565b60006020828403121561297e5761297d612845565b5b600061298c84828501612953565b91505092915050565b7f4e487b7100000000000000000000000000000000000000000000000000000000600052602160045260246000fd5b600381106129d5576129d4612995565b5b50565b60008190506129e6826129c4565b919050565b60006129f6826129d8565b9050919050565b612a06816129eb565b82525050565b6000602082019050612a2160008301846129fd565b92915050565b6000819050919050565b612a3a81612a27565b8114612a4557600080fd5b50565b600081359050612a5781612a31565b92915050565b600060208284031215612a7357612a72612845565b5b6000612a8184828501612a48565b91505092915050565b6000819050919050565b612a9d81612a8a565b8114612aa857600080fd5b50565b600081359050612aba81612a94565b92915050565b600060208284031215612ad657612ad5612845565b5b6000612ae484828501612aab565b91505092915050565b612af681612a8a565b82525050565b6000602082019050612b116000830184612aed565b92915050565b612b208161292a565b82525050565b6000604082019050612b3b6000830185612b17565b612b4860208301846129fd565b9392505050565b60008060408385031215612b6657612b65612845565b5b6000612b7485828601612aab565b9250506020612b8585828601612953565b9150509250929050565b612b9881612a27565b82525050565b6000602082019050612bb36000830184612b8f565b92915050565b6000819050919050565b6000612bde612bd9612bd48461290a565b612bb9565b61290a565b9050919050565b6000612bf082612bc3565b9050919050565b6000612c0282612be5565b9050919050565b612c1281612bf7565b82525050565b6000602082019050612c2d6000830184612c09565b92915050565b600080fd5b600080fd5b600080fd5b60008083601f840112612c5857612c57612c33565b5b8235905067ffffffffffffffff811115612c7557612c74612c38565b5b602083019150836040820283011115612c9157612c90612c3d565b5b9250929050565b60008060208385031215612caf57612cae612845565b5b600083013567ffffffffffffffff811115612ccd57612ccc61284a565b5b612cd985828601612c42565b92509250509250929050565b6000602082019050612cfa6000830184612b17565b92915050565b600060e082019050612d15600083018a612b8f565b612d226020830189612b17565b612d2f6040830188612b17565b612d3c6060830187612b8f565b612d496080830186612b8f565b612d5660a0830185612b8f565b612d6360c0830184612b8f565b98975050505050505050565b600080600080600060a08688031215612d8b57612d8a612845565b5b6000612d9988828901612953565b9550506020612daa88828901612a48565b9450506040612dbb88828901612a48565b9350506060612dcc88828901612a48565b9250506080612ddd88828901612a48565b9150509295509295909350565b7f4e487b7100000000000000000000000000000000000000000000000000000000600052603260045260246000fd5b7f4e487b7100000000000000000000000000000000000000000000000000000000600052601160045260246000fd5b6000612e5382612a27565b91507fffffffffffffffffffffffffffffffffffffffffffffffffffffffffffffffff821415612e8657612e85612e19565b5b600182019050919050565b600082825260208201905092915050565b7f416363657373436f6e74726f6c3a2063616e206f6e6c792072656e6f756e636560008201527f20726f6c657320666f722073656c660000000000000000000000000000000000602082015250565b6000612efe602f83612e91565b9150612f0982612ea2565b604082019050919050565b60006020820190508181036000830152612f2d81612ef1565b9050919050565b7f5061757361626c653a2070617573656400000000000000000000000000000000600082015250565b6000612f6a601083612e91565b9150612f7582612f34565b602082019050919050565b60006020820190508181036000830152612f9981612f5d565b9050919050565b7f556e617574686f72697a65642075736572000000000000000000000000000000600082015250565b6000612fd6601183612e91565b9150612fe182612fa0565b602082019050919050565b6000602082019050818103600083015261300581612fc9565b9050919050565b60006060820190506130216000830186612b8f565b61302e6020830185612b8f565b61303b6040830184612b17565b949350505050565b6003811061305057600080fd5b50565b60008135905061306281613043565b92915050565b60006020828403121561307e5761307d612845565b5b600061308c84828501613053565b91505092915050565b7f43616e6e6f742073656c6c20746f20796f757273656c66000000000000000000600082015250565b60006130cb601783612e91565b91506130d682613095565b602082019050919050565b600060208201905081810360008301526130fa816130be565b9050919050565b7f546865206f726465722065787069726564000000000000000000000000000000600082015250565b6000613137601183612e91565b915061314282613101565b602082019050919050565b600060208201905081810360008301526131668161312a565b9050919050565b60008151905061317c81612a31565b92915050565b60006020828403121561319857613197612845565b5b60006131a68482850161316d565b91505092915050565b7f53656c6c657220646f6573206e6f7420686176652062616c616e636500000000600082015250565b60006131e5601c83612e91565b91506131f0826131af565b602082019050919050565b60006020820190508181036000830152613214816131d8565b9050919050565b60008151905061322a8161293c565b92915050565b60006020828403121561324657613245612845565b5b60006132548482850161321b565b91505092915050565b7f53656c6c6572206973206e6f206c6f6e67657220746865206f776e6572000000600082015250565b6000613293601d83612e91565b915061329e8261325d565b602082019050919050565b600060208201905081810360008301526132c281613286565b9050919050565b60006132d482612a27565b91506132df83612a27565b9250817fffffffffffffffffffffffffffffffffffffffffffffffffffffffffffffffff048311821515161561331857613317612e19565b5b828202905092915050565b7f4e487b7100000000000000000000000000000000000000000000000000000000600052601260045260246000fd5b600061335d82612a27565b915061336883612a27565b92508261337857613377613323565b5b828204905092915050565b600061338e82612a27565b915061339983612a27565b9250828210156133ac576133ab612e19565b5b828203905092915050565b60006060820190506133cc6000830186612b17565b6133d96020830185612b17565b6133e66040830184612b8f565b949350505050565b60006080820190506134036000830187612b8f565b6134106020830186612b8f565b61341d6040830185612b17565b61342a6060830184612b8f565b95945050505050565b7f50726963652073686f756c6420626520626967676572207468616e2030000000600082015250565b6000613469601d83612e91565b915061347482613433565b602082019050919050565b600060208201905081810360008301526134988161345c565b9050919050565b60006134aa82612a27565b91506134b583612a27565b9250827fffffffffffffffffffffffffffffffffffffffffffffffffffffffffffffffff038211156134ea576134e9612e19565b5b828201905092915050565b7f496e76616c69642065787069726174696f6e2074696d65000000000000000000600082015250565b600061352b601783612e91565b9150613536826134f5565b602082019050919050565b6000602082019050818103600083015261355a8161351e565b9050919050565b7f496e76616c6964204e4654206164647265737300000000000000000000000000600082015250565b6000613597601383612e91565b91506135a282613561565b602082019050919050565b600060208201905081810360008301526135c68161358a565b9050919050565b7f496e76616c696420617373657420494400000000000000000000000000000000600082015250565b6000613603601083612e91565b915061360e826135cd565b602082019050919050565b60006020820190508181036000830152613632816135f6565b9050919050565b7f496e73756666696369656e742062616c616e6365000000000000000000000000600082015250565b600061366f601483612e91565b915061367a82613639565b602082019050919050565b6000602082019050818103600083015261369e81613662565b9050919050565b60006040820190506136ba6000830185612b17565b6136c76020830184612b17565b9392505050565b7f4d61726b6574706c61636520756e617574686f72697a65640000000000000000600082015250565b6000613704601883612e91565b915061370f826136ce565b602082019050919050565b60006020820190508181036000830152613733816136f7565b9050919050565b7f496e76616c696420616d6f756e74000000000000000000000000000000000000600082015250565b6000613770600e83612e91565b915061377b8261373a565b602082019050919050565b6000602082019050818103600083015261379f81613763565b9050919050565b7f4f6e6c7920746865206f776e65722063616e20637265617465206f7264657273600082015250565b60006137dc602083612e91565b91506137e7826137a6565b602082019050919050565b6000602082019050818103600083015261380b816137cf565b9050919050565b61381b816128d4565b811461382657600080fd5b50565b60008151905061383881613812565b92915050565b60006020828403121561385457613853612845565b5b600061386284828501613829565b91505092915050565b600060a0820190506138806000830188612b8f565b61388d6020830187612b8f565b61389a6040830186612b17565b6138a76060830185612b8f565b6138b46080830184612b8f565b9695505050505050565b600081905092915050565b7f416363657373436f6e74726f6c3a206163636f756e7420000000000000000000600082015250565b60006138ff6017836138be565b915061390a826138c9565b601782019050919050565b600081519050919050565b60005b8381101561393e578082015181840152602081019050613923565b8381111561394d576000848401525b50505050565b600061395e82613915565b61396881856138be565b9350613978818560208601613920565b80840191505092915050565b7f206973206d697373696e6720726f6c6520000000000000000000000000000000600082015250565b60006139ba6011836138be565b91506139c582613984565b601182019050919050565b60006139db826138f2565b91506139e78285613953565b91506139f2826139ad565b91506139fe8284613953565b91508190509392505050565b6000601f19601f8301169050919050565b6000613a2682613915565b613a308185612e91565b9350613a40818560208601613920565b613a4981613a0a565b840191505092915050565b60006020820190508181036000830152613a6e8184613a1b565b905092915050565b7f496e76616c6964206f776e657220637574000000000000000000000000000000600082015250565b6000613aac601183612e91565b9150613ab782613a76565b602082019050919050565b60006020820190508181036000830152613adb81613a9f565b9050919050565b7f496e76616c6964206f7264657220696e64657800000000000000000000000000600082015250565b6000613b18601383612e91565b9150613b2382613ae2565b602082019050919050565b60006020820190508181036000830152613b4781613b0b565b9050919050565b7f496e76616c6964206f7264657220494400000000000000000000000000000000600082015250565b6000613b84601083612e91565b9150613b8f82613b4e565b602082019050919050565b60006020820190508181036000830152613bb381613b77565b9050919050565b7f4e487b7100000000000000000000000000000000000000000000000000000000600052603160045260246000fd5b7f4e487b7100000000000000000000000000000000000000000000000000000000600052604160045260246000fd5b6000613c2382612a27565b91506000821415613c3757613c36612e19565b5b600182039050919050565b7f537472696e67733a20686578206c656e67746820696e73756666696369656e74600082015250565b6000613c78602083612e91565b9150613c8382613c42565b602082019050919050565b60006020820190508181036000830152613ca781613c6b565b9050919050565b7f5361666545524332303a204552433230206f7065726174696f6e20646964206e60008201527f6f74207375636365656400000000000000000000000000000000000000000000602082015250565b6000613d0a602a83612e91565b9150613d1582613cae565b604082019050919050565b60006020820190508181036000830152613d3981613cfd565b9050919050565b7f416464726573733a20696e73756666696369656e742062616c616e636520666f60008201527f722063616c6c0000000000000000000000000000000000000000000000000000602082015250565b6000613d9c602683612e91565b9150613da782613d40565b604082019050919050565b60006020820190508181036000830152613dcb81613d8f565b9050919050565b7f416464726573733a2063616c6c20746f206e6f6e2d636f6e7472616374000000600082015250565b6000613e08601d83612e91565b9150613e1382613dd2565b602082019050919050565b60006020820190508181036000830152613e3781613dfb565b9050919050565b600081519050919050565b600081905092915050565b6000613e5f82613e3e565b613e698185613e49565b9350613e79818560208601613920565b80840191505092915050565b6000613e918284613e54565b91508190509291505056fea26469706673582212203b44815ebb0a519d4d31800971e93a1e90d96b2383a511128ae594aca5b8e9b964736f6c63430008090033",
  "linkReferences": {},
  "deployedLinkReferences": {}
}